:020000040000FA
:100000003016002091010000990100009B010000C2
:100010009D0100009F010000A10100000000000000
:10002000000000000000000000000000A30100002C
:10003000A501000000000000A7010000310200003F
:100040004F0D0000D90700006B080000770C00007E
:10005000810C00008B0C0000950C00007F04000058
:10006000AB010000AB010000AB010000AB010000E0
:10007000AB010000AB010000AB010000AB010000D0
:10008000AB010000AB010000AB010000AB010000C0
:10009000AB010000AB010000AB010000AB010000B0
:1000A000AB010000AB010000AB010000AB010000A0
:1000B000AB010000AB010000AB010000AB01000090
:1000C00000F002F800F048F80AA090E8000C824422
:1000D0008344AAF10107DA4501D100F03DF8AFF2FF
:1000E000090EBAE80F0013F0010F18BFFB1A43F016
:1000F00001031847EC2B00000C2C0000103A24BF21
:1001000078C878C1FAD8520724BF30C830C144BF7C
:1001100004680C60704700000023002400250026BE
:10012000103A28BF78C1FBD8520728BF30C148BF5A
:100130000B607047692902F0AF82642902F0AC823B
:10014000782902F0E582732902F0EF8300207047DE
:100150001FB51FBD10B510BD02F0EBFB1146FFF738
:10016000F7FF00F0A9F802F009FC03B4FFF7F2FF73
:1001700003BC02F011FC000003480449086070470A
:10018000014802490860704740787D010000002066
:100190000948804709480047FEE7FEE7FEE7FEE71B
:1001A000FEE7FEE7FEE7FEE7FEE7FEE70448054957
:1001B000054A064B7047000081010000C1000000A5
:1001C00030060020301600203012002030120020AF
:1001D00010B504462146024802F032F910BD000075
:1001E0000000104010B5044603E02078FFF7F0FF50
:1001F000641C20780028F8D110BD000070B50446BA
:100200000D460948006820B129462046064A126872
:10021000904700BF054800680028FBD170BD024927
:1002200008607047704700000C00002008000020A4
:1002300070B5A348007858B100220121A14800F010
:1002400078FE00204FF0E02108619D49087032E0FF
:10025000042201219B4800F06CFE01204FF0E021B8
:1002600008619949481EB0F1807F00D31BE0481E09
:100270004FF0E022506150170322002807DA93075D
:100280001D0E924B00F00F04241F1D5503E0930731
:100290001C0E8F4B1C5400BF00204FF0E0229061D9
:1002A0000720106100BF0F220121864800F041FEA7
:1002B00001208349087070BDD4B04FF0C046834818
:1002C0001838139083A103C9CDE90B0183A103C999
:1002D000CDE909012022834901A802F069FA00F062
:1002E00009FD00BF4FF0FF307F49086000BF00F0FC
:1002F00009FA8146B9F1000F02D07CA0FFF772FF26
:1003000085A0FFF76FFF022000F0C5F883A0FFF77C
:1003100069FF012000F0BFF881A0FFF763FF00F044
:100320004BFA7EA0FFF75EFF002000F0B4F800F06B
:1003300009FD072000F0BAF807206B49803942090F
:1003400051F8221001228240114009B1012100E040
:1003500000210F4600BF384600F042FB8146B9F14C
:10036000000F02D06FA0FFF73DFF00F056FB13987F
:10037000006812901298C0F3035B1298C0F30B1838
:10038000129800F00F0AA8F6214010B102280AD1F5
:1003900004E072A10DA802F0E7F90AE072A10DA82D
:1003A00002F0E2F905E0424672A10DA802F002F95E
:1003B00000BF00BF53460DAA71A114A8CDF800B02C
:1003C00002F0F8F877A0FFF70DFF14A8FFF70AFF77
:1003D0007EA0FFF707FF1FB186A0FFF703FF02E033
:1003E0008DA0FFF7FFFE94A0FFF7FCFEA0A0FFF793
:1003F000F9FE6CA0FFF7F6FE002404E001A850F817
:10040000240001C6641C082CF8D300254FF0C04618
:10041000002407E002CE01A850F82400814200D059
:100420006D1C641C082CF5D31DB195A0FFF7DAFEF6
:1004300002E09CA0FFF7D6FE00F0F8FA00220821A7
:100440000BA800F019FB0022082109A800F059FBB5
:100450000025002407E009A8005D0BA9095D88427A
:1004600000D06D1C641C082CF5D31DB193A0FFF7C0
:10047000B9FE02E09BA0FFF7B5FE00BFFEE710B596
:10048000072001218140184A430942F8231000BF88
:1004900000F00CF810BD00F01F020121914042094C
:1004A000920002F1E022C2F80011704700F01F0232
:1004B00001219140924A430942F8231070470000FD
:1004C00018000020E8000020C0E1E40018ED00E082
:1004D00000E400E00123456789ABCDEFFFFFFFFF9C
:1004E000FFFFFFFFA829000080E200E04572726F65
:1004F00072202D2058696C696E78204750494F2032
:100500006661696C656420746F20696E69746961E5
:100510006C6973650A0000003100000032000000C1
:10052000330000004572726F72202D2058696C698B
:100530006E782053504920636F6E74726F6C6C65D7
:100540007273206661696C656420746F20696E69DE
:100550007469616C6973650A00000000436F72740E
:1005600065782D4D31000000436F727465782D4D14
:1005700033000000556E6B6E6F776E20257800009B
:1005800041726D202573205265766973696F6E2004
:1005900025692056617269616E742025690D0A0A09
:1005A000000000002A2A2A2A2A2A2A2A2A2A2A2A53
:1005B0002A2A2A2A2A2A2A2A2A2A2A2A2A2A2A2A9B
:1005C0002A2A2A2A2A2A2A2A0D0A00004578616D39
:1005D000706C652064657369676E20666F72204475
:1005E0006967696C656E7420413720626F6172645F
:1005F0000D0A00000A5632432D4441504C696E6B7F
:1006000020626F617264206E6F742064657465632C
:100610007465640D0A0000000A5632432D444150AF
:100620004C696E6B20626F617264206465746563EF
:100630007465640D0A00000055736520444950201C
:10064000737769746368657320616E642070757375
:100650006820627574746F6E7320746F0D0A636F17
:100660006E74726F6C204C4544530D0A00000000FC
:100670002056657273696F6E20312E330D0A0000AB
:100680004552524F52202D204272616D2072656199
:10069000646261636B20636F727275707465642E3F
:1006A0000D0A00004272616D2072656164626163CF
:1006B0006B20636F72726563740D0A004552524F6E
:1006C00052202D204261736520535049207265618C
:1006D000646261636B20636F727275707465642EFF
:1006E0000D0A000042617365205350492072656114
:1006F000646261636B20636F72726563740D0A00DC
:1007000080E100E010B50021A44800F012FE04468C
:100710000CB1012010BD0121A14800F00AFE0446E1
:100720000CB10120F6E702219E4800F002FE0446CB
:100730000CB10120EEE703219B4800F0FAFD0446CE
:100740000CB10120E6E76FF00F020121934800F0A1
:1007500033FB4FF0FF320221904800F02DFB934A0B
:1007600001218F4800F028FB4FF0FF3202218C4816
:1007700000F022FB002201218A4800F01DFB00222C
:100780000121874800F0D5FB00220121834800F0B9
:10079000D0FB6FF00F020121834800F00DFB4FF0FA
:1007A000FF320221804800F007FB002201217E4831
:1007B00000F0BFFB0020ADE710B50221784800F043
:1007C0006CFC0221784800F068FC754800F0F8FBEA
:1007D000754800F0F5FB10BD70B50221724800F0BD
:1007E00069FB00F00100002837D071A0FFF7FAFC88
:1007F000042201216C4800F09CFB01204FF0E02115
:100800000861704800684CF2503200FB02F1481E4B
:10081000B0F1807F00D31BE0481E4FF0E022506112
:1008200050170322002807DA93071D0E664B00F0CD
:100830000F04241F1D5503E093071C0E634B1C542B
:1008400000BF00204FF0E02290610720106100BF40
:100850000C220121544800F06CFB0321524800F0A7
:1008600098FC012000F091F870BD70B588B00221AD
:100870004B4800F01FFB00285BD00221484800F0E5
:1008800019FB07900121464800F014FB06900798D9
:1008900000F0010060B1072401254A480068B0F566
:1008A000A77F37D247480068401C4649086031E0BE
:1008B000079800F0020050B138240825414800682C
:1008C00040B340480068401E3E49086022E0079857
:1008D00000F0040068B14FF4E07440253948006826
:1008E000B0F5A37F16D2374800680A303549086052
:1008F00010E0079800F0080060B14FF460644FF416
:100900000075304800680A2804D92E4800680A3863
:100910002C490860069800EA0406701900EA0406EB
:100920000698A0433043069001211D48069A00F026
:1009300000FB03211A4800F02CFC022000F025F8EF
:10094000204823A10268684601F034FE6846FFF79C
:1009500049FC0C220121144800F0EBFA08B070BDEC
:1009600010B50446224601210E4800F0E2FA10BDFF
:1009700008B50221094800F09DFA0090009A521C27
:100980000121064800F0D5FA08BD00F01F02012140
:100990009140124A430942F823107047F8000020A2
:1009A0000801002018010020E800002000F0FFFFEF
:1009B0005472696767657220506F73697469766FE6
:1009C000200A0D001400002018ED00E000E400E013
:1009D00056616C6F723A2025640D0A0080E200E0D7
:1009E00070B505460021B54801F01CFA04460CB16B
:1009F000012070BDB14800F0E2FCB04800F0D7FD26
:100A0000AE49896901F11C00002100F054F901216F
:100A1000AA4801F010F80020EBE710B5A749896952
:100A200001F11C00002100F046F910BD70B5A3498A
:100A3000896901F1600000F03BF9054645F00401C9
:100A40009E4A926902F1600000F035F906209C4947
:100A5000087001230022994800F039FE0446052061
:100A600097490870FF2048700223964A934800F087
:100A70002EFE0446204670BD2DE9F04707460D4680
:100A800016468E49896901F1600000F011F980462F
:100A900048F00401894A926902F1600000F00BF904
:100AA0000DB1FC2D02D90120BDE8F0870620844954
:100AB000087001230022814800F009FE81460220CF
:100AC0007F490870300C4870300A8870CE7000245E
:100AD00005E017F8011B201D794A1154641CAC4233
:100AE000F7D32B1D00227649744800F0F0FD8146B3
:100AF000002400E0641C44F620608442FAD3484697
:100B0000D2E72DE9F04707460D4616466B4989693D
:100B100001F1600000F0CCF8804648F00401674A1B
:100B2000926902F1600000F0C6F80DB1FC2D02D907
:100B30000120BDE8F087032061490870300C48703F
:100B4000300A8870CE70002404E00021201D5C4A29
:100B50001154641CAC42F8D32B1D5A4A58495748CB
:100B600000F0B5FD8146002405E05649201D085CD3
:100B700007F8010B641CAC42F7D34846D9E72DE9CE
:100B8000F04F93B007468846002012904B4890F8EB
:100B90002D402046E11704EB5171CD10234642460B
:100BA00049A102A8009501F005FD02A8FFF71AFB74
:100BB0004249896901F1600000F07AF883464BF000
:100BC00004013E4A926902F1600000F074F84FF0AF
:100BD000000A17E03949896901F1640000F068F8FA
:100BE000064606F0080060B997F800902F44334994
:100BF000896901F16800494600F05DF812982844BF
:100C00001290AA44C245E5D32C49896901F17000CC
:100C1000002100F050F82949896901F1600000F0D5
:100C200047F820F4807B4BF00201244A926902F1DC
:100C3000600000F040F800BF2049896901F1200000
:100C400000F036F8064606F004000028F4D01B49F0
:100C5000896901F1200000F02BF840F004001749E9
:100C60000190896901F12000019900F024F812989F
:100C700013B0BDE8F08F10B5032000F010F810BDE0
:100C800010B5042000F00BF810BD10B5052000F0E1
:100C900006F810BD10B5062000F001F810BD00F0F8
:100CA0001F02012191400F4A430942F82310704767
:100CB000014608687047024611607047280100200D
:100CC00084010020840200206C656E2025692C20A0
:100CD0005769642025692C20696E63722025690D8F
:100CE0000A00000080E200E01F4A116070471F4ABE
:100CF0001160704710B500211D4801F0CCFB04467F
:100D00000CB1012010BD1A4AAFF21D01104601F0CE
:100D1000C1FA174AAFF22F01104601F089FA4FF4D9
:100D200080721449124801F0C5F90020EAE70E4923
:100D30000968114A1268881A18B10B4909680E4AE5
:100D40001160704710B50A4801F049FB10BD10B59D
:100D5000074801F0F7FA002001218140074A4309C2
:100D600042F8231000BF10BD1C000020200000200E
:100D700084030020D00400202400002080E200E052
:100D800070B504460D4616461CB100208A4908601D
:100D900008E07D218948FFF731FA01208649086083
:100DA000002070BD2660A868A060E868E0604FF091
:100DB000113060600020F4E770B504460D46164619
:100DC0001CB100207C49086007E0A2217B48FFF7A6
:100DD00015FA01207849086070BD6068B0F1113FD4
:100DE00003D100207449086007E0A3217348FFF78E
:100DF00005FA012070490860EEE7012D04D0022DAC
:100E000006D1E068012803D100206B49086007E0A3
:100E1000A4216A48FFF7F2F9012067490860DBE77F
:100E2000691E042303EBC10122685018314600F00B
:100E3000BFF800BFD0E770B504460D461CB10020D6
:100E40005D49086008E0C0215C48FFF7D7F9012040
:100E500059490860002070BD6068B0F1113F03D1AE
:100E600000205549086008E0C1215448FFF7C6F941
:100E70000120514908600020EDE7012D04D0022D2A
:100E800006D1E068012803D100204B49086008E042
:100E9000C2214A48FFF7B2F9012047490860002003
:100EA000D9E7691E042303EBC101226850180168C9
:100EB0000846D0E770B504460D461CB100203E49F7
:100EC000086008E0DA213D48FFF798F901203A4927
:100ED0000860002070BD6068B0F1113F03D10020B0
:100EE0003549086008E0DB213448FFF787F9012025
:100EF000314908600020EDE7012D04D0022D06D114
:100F0000E068012803D100202B49086008E0DC21BB
:100F10002A48FFF773F90120274908600020D9E724
:100F2000691E002303EBC1012268501801680846BE
:100F3000D0E770B504460D4616461CB100201E4988
:100F4000086007E0F6211D48FFF758F901201A490B
:100F5000086070BD6068B0F1113F03D100201649F0
:100F6000086007E0F7211548FFF748F9012012490A
:100F70000860EEE7012D04D0022D06D1E0680128BB
:100F800003D100200C49086007E0F8210B48FFF767
:100F900035F9012008490860DBE7691E002303EBEF
:100FA000C10122685018314600F002F800BFD0E7B6
:100FB000024611607047000004000020F029000084
:100FC00010B504461CB10020CE49086007E05F213F
:100FD000CD48FFF713F90120CA49086010BD6068C9
:100FE000B0F1113F03D10020C649086007E060213D
:100FF000C548FFF703F90120C2490860EEE7A06881
:10100000012803D10020BF49086007E06121BE48E4
:10101000FFF7F4F80120BB490860DFE7216801F51C
:101020008E704FF0004100F069F900BFD6E710B5AF
:1010300004461CB10020B349086007E07A21B24899
:10104000FFF7DCF80120AF49086010BD6068B0F11F
:10105000113F03D10020AB49086007E07B21AA487B
:10106000FFF7CCF80120A7490860EEE7A068012847
:1010700003D10020A349086007E07C21A248FFF7C4
:10108000BDF801209F490860DFE7216801F58E70F7
:10109000002100F033F900BFD7E770B504460D46D4
:1010A0001CB100209749086007E098219648FFF797
:1010B000A5F801209349086070BD6068B0F1113F48
:1010C00003D100208F49086007E099218E48FFF77F
:1010D00095F801208B490860EEE7A068012803D14C
:1010E00000208849086007E09A218748FFF786F8C2
:1010F000012084490860DFE7216801F5947000F061
:10110000FAF8064646EA0501226802F5947000F0F6
:10111000F5F800BFD0E770B504460D461CB10020BD
:101120007849086007E0BC217748FFF767F801209D
:101130007449086070BD6068B0F1113F03D10020B0
:101140007049086007E0BD216F48FFF757F801209C
:101150006C490860EEE7A068012803D100206949C6
:10116000086007E0BE216848FFF748F8012065499C
:101170000860DFE7216801F5947000F0BCF80646CE
:1011800026EA0501226802F5947000F0B7F800BF66
:10119000D0E770B504460D461CB1002059490860DF
:1011A00007E0DF215848FFF729F80120554908607A
:1011B00070BD6068B0F1113F03D100205149086053
:1011C00007E0E0215048FFF719F801204D49086079
:1011D000EEE7A068012803D100204A49086007E033
:1011E000E1214948FFF70AF8012046490860DFE796
:1011F000216801F5907000F07EF8064606EA0501C8
:10120000226802F5907000F079F800BFD0E710B5C1
:1012100004461CB100203B49086009E04FF481718D
:101220003948FEF7EBFF012036490860002010BD69
:101230006068B0F1113F03D100203249086009E035
:1012400040F203113048FEF7D9FF01202D49086014
:101250000020ECE7A068012803D10020294908609C
:1012600009E04FF482712848FEF7C8FF01202549A4
:1012700008600020DBE7216801F5947000F03BF87E
:10128000D5E710B504461CB100201E49086009E0EE
:1012900040F21F111C48FEF7B1FF012019490860F8
:1012A000002010BD6068B0F1113F03D10020154946
:1012B000086009E04FF490711348FEF79FFF01208A
:1012C000104908600020ECE7A068012803D1002045
:1012D0000C49086009E040F221110B48FEF78EFF2F
:1012E0000120084908600020DBE7216801F59070C3
:1012F00000F001F8D5E70146086870470246116022
:1013000070470000040000203C2A00000246002034
:1013100000210AE0174B03EB01131B88934203D112
:10132000144B03EB011002E0491C0429F2DB00BF5F
:10133000704770B505460E461DB100200E49086085
:1013400008E08F210D48FEF759FF01200A49086087
:10135000002070BD3046FFF7D9FF04461CB90020BD
:1013600068600220F5E7214628466268FFF708FD1D
:10137000EFE7000028000020040000208C2A000075
:1013800070B50446A26902F17000216B00F02DFDDA
:10139000A16901F1600000F025FD85B245F480757A
:1013A000606A08B145F06005A16901F16000294655
:1013B00000F01BFD002060642064A06470BD10B5C7
:1013C00004461CB10020FE49086008E040F2B71155
:1013D000FC48FEF713FF0120F949086010BDE069E1
:1013E000B0F1113F03D10020F549086008E04FF447
:1013F000DC71F448FEF702FF0120F1490860EDE7D7
:101400002046FFF7BDFF00202062206B6063A169CA
:1014100001F140000A2100F0E8FC00BFDEE770B5F2
:1014200004460D46164640F21B41E648FEF7E6FE2E
:101430000120E349086070BD2DE9F84304460D46DC
:1014400090461CB10020DE49086009E0AD21DD486E
:10145000FEF7D4FE0120DA4908600020BDE8F883D9
:10146000206AB0F1223F01D10520F7E70020206279
:10147000A064D548E0640020A063E0632064606459
:10148000C4F81880A8686062E868A062287C84F8C4
:101490002C00687C18B9082084F82D0002E0687CD4
:1014A00084F82D00A87C84F82E0068696065287E89
:1014B00084F858004FF01130E06194F82C100120AE
:1014C0008840401E2063206B6063002020606060C5
:1014D000A060E06020616061687E012862D1A1693E
:1014E00001F1600000F07EFC064646F06606A16948
:1014F00001F16000314600F078FC9F208DF800007B
:1015000000208DF801008DF802009DF80010A269FE
:1015100002F1680000F069FC9DF80110A26902F177
:10152000680000F062FC9DF80210A26902F16800F8
:1015300000F05BFCA16901F1600000F053FC06467D
:1015400026F48076A16901F16000314600F04DFC7F
:10155000A16901F1600000F045FC064646F4807682
:10156000A16901F16000314600F03FFCA16901F181
:10157000640000F037FC074607F0010020B9A169BC
:1015800001F16C0000F02EFCA16901F1640000F093
:1015900029FC074607F0010020B9A16901F16C00A0
:1015A00000F020FC2046FFF70AFF002056E770B548
:1015B00004461CB100208249086009E040F239115C
:1015C0008048FEF71BFE01207D490860002070BDA9
:1015D000E069B0F1113F03D100207949086009E0CA
:1015E0004FF49D717748FEF709FE012074490860A9
:1015F0000020ECE7206AB0F1223F01D10520E6E7A8
:10160000A16901F1280000F0EDFB42F22B0140EA54
:101610000106A16901F12800314600F0E6FB4FF018
:1016200022302062A16901F1600000F0DBFB054679
:1016300045F06205A16901F16000294600F0D5FB83
:10164000A16901F11C004FF0004100F0CEFB002029
:10165000BDE770B504461CB100205949086009E097
:1016600040F287115748FEF7C9FD01205449086030
:10167000002070BDE069B0F1113F03D10020504956
:10168000086009E04FF4C4714E48FEF7B7FD012031
:101690004B4908600020ECE7A06C08B11520E8E792
:1016A000A16901F11C00002100F09FFBA16901F17B
:1016B000600000F097FB054625F00201A26902F1E7
:1016C000600000F092FB0020206200BFD1E72DE90E
:1016D000FC5F04468A4693461F464FF000091CB142
:1016E0000020374908600AE040F22A213548FEF719
:1016F00085FD0120324908600020BDE8FC9FBAF159
:10170000000F03D000202E49086009E040F22B2191
:101710002C48FEF773FD0120294908600020ECE702
:101720001FB100202649086009E04FF40B712548DD
:10173000FEF764FD0120224908600020DDE7E06932
:10174000B0F1113F03D100201D49086009E040F2CB
:101750002D211C48FEF752FD012019490860002088
:10176000CBE7206AB0F1223F01D00620C5E7A06C8C
:1017700008B11520C1E7A16901F11C0000F032FB9E
:10178000B0F1004F01D1012000E000200190A169DB
:1017900001F11C00002100F028FBA16901F16000AB
:1017A00000F020FB064606F00400D0B106F0010070
:1017B000B8B9D4E90C10884213D10198012805E08A
:1017C00004000020E02A00001F14000006D1A169D7
:1017D00001F11C004FF0004100F007FB40F2834094
:1017E0008BE70120A064C4F838A0C4F83CB027649B
:1017F000676494F82D50A16901F1640000F0F2FAD9
:10180000804624E0082D03D1A06B90F800900AE0F8
:10181000102D03D1A06BB0F8009004E0202D02D170
:10182000A06BD0F80090A16901F16800494600F072
:10183000DCFAA06B00EBE500A063606CA0EBE500B8
:101840006064A16901F1640000F0CCFA804608F000
:10185000080010B9606C0028D4D1A26902F17000B0
:10186000616B00F0C2FAA16901F1600000F0BAFA00
:10187000064626F48076A16901F16000314600F049
:10188000B4FA0198012815D1A16901F1280000F0EE
:10189000A9FA40F004000090A16901F12800009924
:1018A00000F0A3FAA16901F11C004FF0004100F023
:1018B0009CFABEE0A5E000BFA16901F1200000F0A4
:1018C00091FA804608F004000028F5D0A16901F1E2
:1018D000200000F087FA40F004000090A16901F1B7
:1018E0002000009900F081FAA16901F1600000F088
:1018F00079FA064646F48071A26902F1600000F0B0
:1019000074FAA16901F1640000F06CFA804630E0DD
:10191000A16901F16C0000F065FA8146082D07D13C
:10192000E06BD0B1E26B501CE06382F8009014E0F1
:10193000102D08D1E06B80B1E16BA1F80090E06B55
:10194000801CE06309E0202D07D1E06B28B1E06B3B
:10195000C0F80090E06B001DE063206900EBE5003B
:101960002061A7EBE507A16901F1640000F03AFAF4
:10197000804608F001000028CAD0606CF0B3A1696D
:1019800001F1640000F02EFA804624E0082D03D116
:10199000A06B90F800900AE0102D03D1A06BB0F876
:1019A000009004E0202D02D1A06BD0F80090A16936
:1019B00001F16800494600F018FAA06B00EBE50061
:1019C000A063606CA0EBE5006064A16901F16400B4
:1019D00000F008FA804608F0080010B9606C002892
:1019E000D4D1A16901F1600000F0FCF9064626F4AB
:1019F0008076A16901F16000314600E001E000F06D
:101A0000F4F9002F7FF457AFA16901F1600000F0F5
:101A1000E9F9064646F48071A26902F1600000F01F
:101A2000E4F9A26902F17000216B00F0DEF90020F8
:101A3000A064002061E62DE9F04104460E461CB189
:101A40000020EB4908600AE04FF46071E948FEF7B6
:101A5000D5FB0120E64908600020BDE8F081E0697F
:101A6000B0F1113F03D10020E149086009E040F2E4
:101A70008131E048FEF7C2FB0120DD49086000200B
:101A8000EBE7A06C08B11520E7E7002794F82C00DD
:101A9000451E06E026FA05F000F0010000B17F1CAB
:101AA0006D1E002DF6DA012F02DD40F28440D4E7EE
:101AB000F04360630020D0E710B504461CB100205D
:101AC000CB49086009E040F2BF31CA48FEF796FBF7
:101AD0000120C7490860002010BDE069B0F1113F46
:101AE00003D10020C249086009E04FF47071C14879
:101AF000FEF784FB0120BE4908600020ECE7606B24
:101B0000C043E9E770B504460E4615461CB10020F7
:101B1000B749086008E040F2FD31B648FEF76EFBB9
:101B20000120B349086070BD1DB10020B0490860B4
:101B300008E040F2FE31AF48FEF760FB0120AC49FF
:101B40000860F0E7E069B0F1113F03D10020A84937
:101B5000086008E040F2FF31A648FEF74FFB012085
:101B6000A3490860DFE7E564266500BFDBE72DE9F0
:101B7000F84F81464C460027B9F1000F03D00020F2
:101B80009B49086009E040F25A419A48FEF736FB4B
:101B9000012097490860BDE8F88F6069401C6061CA
:101BA000A16901F1200000F01DF90546A16901F1CC
:101BB000200000F017F928430090A16901F12000EE
:101BC000009900F012F905F00100A8B1D4E9100164
:101BD000A0EB010A2068401C20602046FFF7D0FBE4
:101BE000A16901F1640000F0FDF8524640F27F4126
:101BF000D4E913309847CEE794F82D6005F004003F
:101C000018B905F0400000287AD0A16901F1600000
:101C100000F0E8F883464BF48071A26902F160009D
:101C200000F0E3F8A16901F1640000F0DBF8804600
:101C30002BE0A16901F16C0000F0D4F80746082EF2
:101C400006D1E06BB8B1E26B501CE063177012E094
:101C5000102E07D1E06B70B1E16B0F80E06B801C40
:101C6000E06308E0202E06D1E06B20B1E06B076056
:101C7000E06B001DE063206900EBE6002061A169D4
:101C800001F1640000F0AEF8804608F00100002881
:101C9000CFD0606CA8B3A16901F1640000F0A2F894
:101CA000804621E0082E02D1A06B077808E0102EB4
:101CB00002D1A06B078803E0202E01D1A06B07683A
:101CC000A16901F16800394600F08FF8A06B00EBC4
:101CD000E600A063606CA0EBE6006064A16901F11E
:101CE000640000F07FF8804608F0080010B9606CCE
:101CF0000028D7D1A16901F16000594600F075F8BC
:101D00001CE0FFE7A26902F17000216B00F06DF8A2
:101D1000A16901F1280000F065F820F004000090AE
:101D2000A16901F12800009900F05FF80020A0648B
:101D30004FF49061D4E91330226C984705F080008D
:101D400028B100224FF49161D4E91330984705F48B
:101D5000807028B1002240F28941D4E913309847BD
:101D600005F0020060B1D4E91001A0EB010AE068BF
:101D7000401CE060524640F28741D4E91330984756
:101D800005F0200060B1D4E91001A0EB010AA068C1
:101D9000401CA060524640F28241D4E9133098477B
:101DA00005F0080060B1D4E91001A0EB010A6068F9
:101DB000401C6060524640F28141D4E9133098479C
:101DC00005F4005060B1D4E91001A0EB010A60688D
:101DD000401C6060524640F28A41D4E91330984773
:101DE00000BFD8E601460868704702461160704798
:101DF00004000020E02A000010B502460020002167
:101E00000CE0C1EBC103164C34F82330934204D1EB
:101E1000C1EBC10304EB830002E0491C0429F0D3A9
:101E200000BF10BD70B505460E461DB100200D491E
:101E3000086008E08A210C48FEF7E0F90120094912
:101E40000860002070BD3046FFF7D6FF04460CB98D
:101E50000220F7E7214628466268FFF7EDFAF1E72E
:101E600068000020040000202C2B000070B5044600
:101E70000D4640F2BF11EB48FEF7C0F90120EA49D8
:101E8000086070BD70B504460E4615461CB10020B2
:101E9000E549086008E08F21E248FEF7AFF901202C
:101EA000E1490860002070BD002060620021E1620D
:101EB000A1622063A16361634FF011302062E5618C
:101EC000DA48E0636064E16901F10C00002100F090
:101ED000A5F9204600F041FB0020E4E72DE9F041A0
:101EE00004460025E16901F1080000F094F9C6B24A
:101EF000E16901F1080000F08EF9C6B2E16901F173
:101F00000C00002100F08AF937460CE0626A515D4E
:101F1000E269101D00F082F96D1CE16901F1080011
:101F200000F079F9C6B206F0080010B9E06AA842DC
:101F3000ECD8606A28446062E06A411BE162A068F4
:101F40002844A06007F01007E16901F10C00394650
:101F500000F064F92846BDE8F0812DE9F04104461F
:101F60000E4615461CB10020AF49086009E0DE218D
:101F7000AC48FEF743F90120AB4908600020BDE8FA
:101F8000F0811EB10020A849086008E0DF21A548C3
:101F9000FEF734F90120A44908600020EFE7206A29
:101FA000B0F1113F03D100209F49086008E0E02113
:101FB0009C48FEF723F901209B4908600020DEE7DA
:101FC000002D03DB00209849086008E0E1219548D6
:101FD000FEF714F90120944908600020CFE7E16979
:101FE00001F1080000F017F90746E16901F10C0062
:101FF000002100F013F9A562E562666207F01007A0
:10200000E16901F10C00394600F008F92046FFF7BC
:1020100065FF80464046B2E72DE9F04104460025C1
:10202000E16901F1080000F0F6F8C7B2E16901F1D9
:102030000C00002100F0F2F824E0E16901F1080051
:1020400000F0E9F8C6B206F00100D0B1E06900F096
:10205000E2F8C2B228466D1C236B1A5406F0200029
:1020600010B12069401C206106F0800010B1606949
:10207000401C606106F0400020B1A069401CA061D6
:1020800000E002E0A06BA842D7D800BF206B284434
:102090002063A06B411BA163E0682844E06007F067
:1020A0001007E16901F10C00394600F0B7F8284645
:1020B000BDE8F0812DE9F04104460E4615461CB1FD
:1020C0000020594908600AE040F231115548FEF7F6
:1020D00095F80120544908600020BDE8F0811EB148
:1020E00000205149086009E04FF499714D48FEF70E
:1020F00085F801204C4908600020EEE7206AB0F125
:10210000113F03D100204849086009E040F2331133
:102110004448FEF773F80120434908600020DCE7DB
:10212000002D03DB00204049086009E04FF49A715C
:102130003C48FEF763F801203B4908600020CCE7EB
:10214000E16901F1080000F066F80746E16901F174
:102150000C00002100F062F86563A563266307F0B8
:102160001007E16901F10C00394600F057F82046EC
:10217000FFF752FF80464046AFE770B504461CB1FA
:1021800000202949086008E04FF4B7712548FEF7A0
:1021900035F801202449086070BD206AB0F1113F74
:1021A00003D100202049086008E040F26F111D486B
:1021B000FEF724F801201C490860EDE7E16901F110
:1021C000080000F028F8054605F0100545F0030169
:1021D000E26902F10C0000F021F800BFDCE770B505
:1021E00004461CB100201049086009E040F2991132
:1021F0000C48FEF703F801200B490860002070BD71
:10220000E16901F1080000F006F8054600BF012071
:1022100020EA9500F3E7014608687047024611601E
:10222000704700007C2B0000040000206D1E0000A1
:1022300070B504460D4616461CB100207E49086064
:1022400007E068217D48FDF7D9FF01207A49086041
:1022500070BD1DB100207849086007E0692177480A
:10226000FDF7CCFF012074490860F1E7206AB0F166
:10227000113F03D100207049086007E06A216F48D0
:10228000FDF7BCFF01206C490860E1E7E5632664C7
:1022900000BFDDE770B504460D4616461CB10020B0
:1022A0006549086007E089216448FDF7A7FF012020
:1022B0006149086070BD1DB100205F49086007E0FA
:1022C0008A215E48FDF79AFF01205B490860F1E72B
:1022D000206AB0F1113F03D100205749086007E0A0
:1022E0008B215648FDF78AFF012053490860E1E73A
:1022F0006564A66400BFDDE770B50446E06A38B9DE
:10230000A56A0021A1622946D4E91120904702E084
:102310002046FFF7E3FD2068401C206070BD70B5CB
:102320000446A06B10B12046FFF776FEA06B28B9DB
:10233000D4E90D53E91AD4E90F2090476068401C96
:10234000606070BD70B504461CB100203A49086059
:1023500007E0A6213948FDF751FF01203649086002
:1023600070BDE16901F10800056800BF05F00300D8
:1023700010B12046FFF7D3FF05F0040020B1A06A9A
:1023800010B12046FFF7B8FF00BFE9E710B50446DB
:102390001CB100202849086008E040F225112748B8
:1023A000FDF72CFF01202449086010BD206AB0F120
:1023B000113F03D100202049086008E04FF49371D9
:1023C0001E48FDF71BFF01201B490860EDE7E1698E
:1023D00001F10C00002100F02BF800BFE5E710B57B
:1023E00004461CB100201449086008E040F2431183
:1023F0001248FDF703FF01200F49086010BD206A55
:10240000B0F1113F03D100200B49086008E04FF400
:10241000A2710A48FDF7F2FE012007490860EDE7C6
:10242000E16901F10C00102100F002F800BFE5E7BE
:10243000024611607047000004000020D02B00000D
:1024400000BF00BF826802F00802082AF9D0021D0E
:102450001346196000BF7047014600BF00BF88687F
:1024600000F001000028F9D000BF0868C0B2704732
:102470000246002000210AE0164B03EB01131B88E3
:10248000934203D1134B03EB011002E0491C0029D6
:10249000F2D000BF704770B505460E461DB1002052
:1024A0000D49086008E085210C48FDF7A7FE0120D2
:1024B00009490860002070BD3046FFF7D9FF044687
:1024C0000CB90220F7E7214628466268FFF7DAFCDC
:1024D000F1E70000D800002004000020282C0000B4
:1024E00070B504460D461CB100203049086007E075
:1024F00060212F48FDF782FE01202C49086070BD45
:102500001DB100202949086007E061212848FDF736
:1025100075FE012025490860F1E7206AB0F1113FFE
:1025200003D100202149086007E062212048FDF71F
:1025300065FE01201D490860E1E7206828606068A9
:102540006860A068A860E068E86020692861A06908
:10255000A8616069686100BFD1E710B504461CB18D
:1025600000201249086007E083211148FDF746FE6C
:1025700001200E49086010BD206AB0F1113F03D15F
:1025800000200A49086007E084210948FDF736FE6B
:10259000012006490860EEE7002020606060A0602E
:1025A000E0602061A061606100BFE4E704000020FA
:1025B000842C00000FB41CB5074B06AA7B44694667
:1025C0000090059800F087F90020694600F096F920
:1025D0001CBC5DF814FB00003D0300002DE9F04138
:1025E0000E460446002020622046E168884730B34A
:1025F000252805D0D4E901219047206A401CF2E744
:10260000E168204600278847050018D0A5F1410061
:10261000192802D820354FF4006732462946204653
:102620002760FDF787FD40B1012804D0F61D26F094
:1026300007060836D8E7361DD6E72846DAE7206AC7
:10264000BDE8F08170B50C460546012A05D0287812
:10265000800600D5EA69002302E0012305E05B1C47
:10266000934202D2E05C0028F9D1A869E618C01AAA
:10267000A861286A184428622846AFF3008004E065
:10268000D5E9012114F8010B9047B442F8D328464C
:10269000AFF3008070BD00002DE9F0410646002434
:1026A00010687529314616A510D0AFF300800028B8
:1026B00002DA404213A507E031688A0701D512A566
:1026C00002E0490704D511A5012401E0AFF3008021
:1026D00000210A2206F1240709E0B0FBF2FCB0FB5E
:1026E000F2F302FB1C00303078541846491C0028D5
:1026F000F3D123462A463046BDE8F04100F08DB8BC
:10270000000000002D0000002B0000002000000051
:1027100070B504460D4621461068AFF3008021884D
:10272000090502D50F4A7A4402E00E4A7A440E3275
:10273000002104F1240305E000F00F060009965D76
:102740005E54491C0028F7D120780023000704D5E7
:10275000702D02D009B1022311322046BDE870402D
:1027600000F05BB89E02000040EA0103024630B56B
:102770009B0710D14FF0013400E008C208C91D1BAF
:102780009D4315EAC41FF8D013F0FF0102F8011BA6
:102790000DD01B0AF8E711F8013B002B02F8013BB2
:1027A00005D011F8013B002B02F8013BF3D130BDFD
:1027B00010B5203AC0F00B80B1E81850203AA0E8DC
:1027C0001850B1E81850A0E81850BFF4F5AF5FEA10
:1027D000027C24BFB1E81850A0E8185044BF18C9C3
:1027E00018C0BDE810405FEA827C24BF51F8043B6A
:1027F00040F8043B08BF7047D20728BF31F8023BBE
:1028000048BF11F8012B28BF20F8023B48BF00F851
:10281000012B70477047704770472DE9F0470D4610
:1028200099469246044600F124080168880604D5BA
:10283000E06921F01001216000E00120A84201DDE3
:10284000471B00E00027A1697A1902EB0900081A6A
:10285000A0612078C00602D42046AFF30080002695
:1028600008E0D4E901211AF806009047206A401CCC
:10287000761C20624E45F4DB2078C0060AD520463F
:10288000AFF3008006E0D4E9012130209047206AB0
:10289000401C2062381EA7F10107F4DC07E0D4E9F0
:1028A000012118F805009047206A401C2062281E6C
:1028B000A5F10105F3DC2046AFF300802078000687
:1028C00002D50220BDE8F0870120FBE701694A1C20
:1028D00002610878704700B58FB0CDE90131002161
:1028E000059105497944CDE9031011466846FFF783
:1028F00075FE0FB000BD0000E5FFFFFF0A6802F89B
:10290000010B0A60704710B5436913B1AFF3008043
:1029100001E0FFF797FE012010BD127800F12401BD
:102920000A7000224A700122EDE711684FF0FF3271
:10293000E9E7754600F02CF8AE46050069465346B7
:1029400020F00700854618B020B5FDF72FFCBDE844
:1029500020404FF000064FF000074FF000084FF006
:10296000000B21F00701AC46ACE8C009ACE8C00997
:10297000ACE8C009ACE8C0098D46704710B5044604
:10298000AFF300802046BDE81040FDF7EEBB00002D
:1029900000487047D005002001491820ABBEFEE773
:1029A000260002007047000067452301EFCDAB8988
:1029B000EFBEADDEEDDAEBFEA53CF0A52143658769
:1029C000A90BDCFE080402013031323334353637CE
:1029D0003839414243444546403058003031323363
:1029E0003435363738396162636465664030780063
:1029F0002E2E5C73646B5F776F726B7370616365AF
:102A00005C7374616E64616C6F6E655F6273705F3E
:102A1000305C436F727465785F4D335F305C6C6916
:102A2000627372635C6770696F5F76345F335C7387
:102A300072635C786770696F2E6300002E2E5C7382
:102A4000646B5F776F726B73706163655C737461E5
:102A50006E64616C6F6E655F6273705F305C436F54
:102A6000727465785F4D335F305C6C69627372635A
:102A70005C6770696F5F76345F335C7372635C7838
:102A80006770696F5F696E74722E63002E2E5C73BF
:102A9000646B5F776F726B73706163655C73746195
:102AA0006E64616C6F6E655F6273705F305C436F04
:102AB000727465785F4D335F305C6C69627372630A
:102AC0005C6770696F5F76345F335C7372635C78E8
:102AD0006770696F5F73696E69742E630000000030
:102AE0002E2E5C73646B5F776F726B7370616365BE
:102AF0005C7374616E64616C6F6E655F6273705F4E
:102B0000305C436F727465785F4D335F305C6C6925
:102B1000627372635C7370695F76345F345C737286
:102B2000635C787370692E63000000002E2E5C7366
:102B3000646B5F776F726B73706163655C737461F4
:102B40006E64616C6F6E655F6273705F305C436F63
:102B5000727465785F4D335F305C6C696273726369
:102B60005C7370695F76345F345C7372635C787336
:102B700070695F73696E69742E6300002E2E5C733A
:102B8000646B5F776F726B73706163655C737461A4
:102B90006E64616C6F6E655F6273705F305C436F13
:102BA000727465785F4D335F305C6C696273726319
:102BB0005C756172746C6974655F76335F325C73E7
:102BC00072635C78756172746C6974652E63000061
:102BD0002E2E5C73646B5F776F726B7370616365CD
:102BE0005C7374616E64616C6F6E655F6273705F5D
:102BF000305C436F727465785F4D335F305C6C6935
:102C0000627372635C756172746C6974655F76334C
:102C10005F325C7372635C78756172746C69746541
:102C20005F696E74722E63002E2E5C73646B5F7727
:102C30006F726B73706163655C7374616E64616CF9
:102C40006F6E655F6273705F305C436F727465783E
:102C50005F4D335F305C6C69627372635C75617287
:102C6000746C6974655F76335F325C7372635C7831
:102C7000756172746C6974655F73696E69742E63D3
:102C8000000000002E2E5C73646B5F776F726B73B5
:102C9000706163655C7374616E64616C6F6E655FB7
:102CA0006273705F305C436F727465785F4D335F41
:102CB000305C6C69627372635C756172746C6974A8
:102CC000655F76335F325C7372635C7875617274D2
:102CD0006C6974655F73746174732E630000000027
:102CE000002D000000000020E8000000FC000000B3
:102CF000E82D0000E8000020481500001801000041
:102D000040787D010000000001000000000000008C
:102D1000000000001400000000000000000000009F
:102D20000000000000000000000000000000114052
:102D3000010000000100000001000000000012403E
:102D4000010000000100000002000000000001403E
:102D5000000000000000000003000000000004402C
:102D6000010000000100000000000000000013400E
:102D70000100000000000000010802000000000047
:102D800000000000010000000000024001000000FF
:102D90000000000001080200000000000000000028
:102DA00002000000000003400100000000000000DD
:102DB0000108000000000000000000000300000007
:102DC00000000040010000000000000001080201B6
:102DD00000000000010000000000000000001040A2
:082DE00000C201000000080020
:040000050000019165
:00000001FF
