:020000040000FA
:10000000A0160020D1010000D9010000DB01000092
:10001000DD010000DF010000E10100000000000040
:10002000000000000000000000000000E3010000EC
:10003000E501000000000000E7010000E901000008
:10004000C70C0000D307000003080000EF0B0000FE
:10005000F90B0000030C00000D0C00002D04000043
:1000600093070000190D0000EB010000EB010000F8
:10007000EB010000EB010000EB010000EB010000D0
:10008000EB010000EB010000EB010000EB010000C0
:10009000EB010000EB010000EB010000EB010000B0
:1000A000EB010000EB010000EB010000EB010000A0
:1000B000EB010000EB010000EB010000EB01000090
:1000C00000F002F800F068F80AA090E8000C824402
:1000D0008344AAF10107DA4501D100F05DF8AFF2DF
:1000E000090EBAE80F0013F0010F18BFFB1A43F016
:1000F00001031847E4360000043700000A444FF0BB
:10010000000C10F8013B13F0070408BF10F8014B76
:100110001D1108BF10F8015B641E05D010F8016BBB
:10012000641E01F8016BF9D113F0080F1EBF10F81F
:10013000014BAD1C0C1B09D16D1E58BF01F801CB42
:10014000FAD505E014F8016B01F8016B6D1EF9D5C5
:100150009142D6D3704700000023002400250026DA
:10016000103A28BF78C1FBD8520728BF30C148BF1A
:100170000B607047692902F06187642902F05E878D
:10018000782902F09787732903F0A1800020704737
:100190001FB51FBD10B510BD03F09DF81146FFF748
:1001A000F7FF00F065F803F0BBF803B4FFF7F2FFC8
:1001B00003BC03F0C3F8000003480449086070471B
:1001C000014802490860704740787D010000002026
:1001D0000948804709480047FEE7FEE7FEE7FEE7DB
:1001E000FEE7FEE7FEE7FEE7FEE7FEE70448054917
:1001F000054A064B70470000C1010000C100000025
:10020000A0060020A0160020A0120020A0120020AE
:1002100010B504462146024802F048F910BD00001E
:100220000000104010B5044603E02078FFF7F0FF0F
:10023000641C20780028F8D110BD000070B5044679
:100240000D460948006820B129462046064A126832
:10025000904700BF054800680028FBD170BD0249E7
:1002600008607047704700000C0000200800002064
:10027000D4B04FF0C0467D4813907DA103C9CDE9AD
:100280000B017DA103C9CDE9090120227C4901A808
:1002900002F060FF00F0EAFC00BF4FF0FF30794948
:1002A000086000BF00F0F6F98146B9F1000F02D0F6
:1002B00075A0FFF7B7FF012000F0C4F8022000F09E
:1002C000C1F8082000F0BEF800F03EFA092000F066
:1002D000B9F8002000F0B6F800F0F0FC072000F0BC
:1002E000BCF8072067498039420951F822100122E1
:1002F0008240114009B1012100E000210F4600BFFA
:10030000384600F029FB8146B9F1000F02D069A000
:10031000FFF788FF00F03DFB1398006812901298D9
:10032000C0F3035B1298C0F30B18129800F00F0A89
:10033000A8F6214010B102280AD104E06BA10DA853
:1003400002F0E4FE0AE06CA10DA802F0DFFE05E079
:1003500042466CA10DA802F0FFFD00BF00BF53464E
:100360000DAA6BA114A8CDF800B002F0F5FD71A0A4
:10037000FFF758FF14A8FFF755FF78A0FFF752FFCB
:100380001FB180A0FFF74EFF02E087A0FFF74AFFF2
:100390008DA0FFF747FF9AA0FFF744FF65A0FFF786
:1003A00041FF002404E001A850F8240001C6641CA9
:1003B000082CF8D300254FF0C046002407E002CEF9
:1003C00001A850F82400814200D06D1C641C082C48
:1003D000F5D31DB18EA0FFF725FF02E095A0FFF732
:1003E00021FF00F0DFFA002208210BA800F000FB3B
:1003F0000022082109A800F040FB0025002407E0A6
:1004000009A8005D0BA9095D884200D06D1C641C21
:10041000082CF5D31DB18DA0FFF704FF02E095A0D5
:10042000FFF700FF00F099FC00BFFEE710B50720C2
:1004300001218140134A430942F8231000BF00F014
:100440000CF810BD00F01F020121914042099200FA
:1004500002F1E022C2F80011704700F01F020121F2
:1004600091408B4A430942F82310704700ED00E0A9
:100470000123456789ABCDEFFFFFFFFFFFFFFFFFC4
:100480004C33000080E200E04572726F72202D2034
:1004900058696C696E78204750494F206661696CD5
:1004A000656420746F20696E697469616C69736535
:1004B0000A0000004572726F72202D2058696C6925
:1004C0006E782053504920636F6E74726F6C6C6548
:1004D0007273206661696C656420746F20696E694F
:1004E0007469616C6973650A00000000436F72747F
:1004F00065782D4D31000000436F727465782D4D85
:1005000033000000556E6B6E6F776E20257800000B
:1005100041726D202573205265766973696F6E2074
:1005200025692056617269616E742025690D0A0A79
:10053000000000002A2A2A2A2A2A2A2A2A2A2A2AC3
:100540002A2A2A2A2A2A2A2A2A2A2A2A2A2A2A2A0B
:100550002A2A2A2A2A2A2A2A0D0A00004578616DA9
:10056000706C652064657369676E20666F722044E5
:100570006967696C656E7420413720626F617264CF
:100580000D0A00000A5632432D4441504C696E6BEF
:1005900020626F617264206E6F742064657465639D
:1005A0007465640D0A0000000A5632432D44415020
:1005B0004C696E6B20626F61726420646574656360
:1005C0007465640D0A00000055736520444950208D
:1005D000737769746368657320616E6420707573E6
:1005E0006820627574746F6E7320746F0D0A636F88
:1005F0006E74726F6C204C4544530D0A000000006D
:1006000056657273696F6E20312E34320D0A000008
:100610004552524F52202D204272616D2072656109
:10062000646261636B20636F727275707465642EAF
:100630000D0A00004272616D20726561646261633F
:100640006B20636F72726563740D0A004552524FDE
:1006500052202D20426173652053504920726561FC
:10066000646261636B20636F727275707465642E6F
:100670000D0A000042617365205350492072656184
:10068000646261636B20636F72726563740D0A004C
:1006900080E100E010B500219F4800F080FE044694
:1006A0000CB1012010BD01219C4800F078FE0446E9
:1006B0000CB10120F6E70321994800F070FE0446D2
:1006C0000CB10120EEE70221964800F068FE0446D6
:1006D0000CB10120E6E76FF00F0201218E4800F017
:1006E000A1FB4FF0FF3202218B4800F09BFB8E4AAA
:1006F00001218A4800F096FB4FF0FF320221874823
:1007000000F090FB00220121854800F08BFB0022C5
:100710000121824800F043FC002201217E4800F0C4
:100720003EFC6FF00F0201217E4800F07BFB4FF092
:10073000FF3202217B4800F075FB0022012179483D
:1007400000F02DFC0020ADE710B50221734800F049
:10075000DAFC0221704800F0D6FC0221714800F05A
:10076000D2FC6E4800F062FC6B4800F05FFC6D4804
:1007700000F05CFC10BD10B501221146694800F084
:100780000EFC10BD10B500220121664800F007FCE8
:1007900010BD10B50221634800F0C2FB00F001005B
:1007A00078B1624909684CF2503201FB02F000F066
:1007B000A3FA01205E49087004220121594800F083
:1007C000EEFB0321574800F01AFD082000F09AF8CC
:1007D00010BD08B50221504800F0A2FB0090012195
:1007E0004D48009A00F0DBFB0C2201214D4800F03F
:1007F000D6FB0321484800F002FD012000F082F8FA
:1008000008BD70B588B00221444800F089FB00287B
:1008100051D00221414800F083FB079001213F485D
:1008200000F07EFB0690079800F0010038B1072425
:1008300001253E480068401C3C4908602CE00798B0
:1008400000F0020050B1382408253848006818B379
:1008500036480068401E354908601DE0079800F0E2
:10086000040040B14FF4E0744025304800680A307D
:100870002E49086010E0079800F0080060B14FF4BE
:1008800060644FF40075294800680A2804D9274895
:1008900000680A3825490860069800EA04067019BD
:1008A00000EA04060698A0433043069001211B4845
:1008B000069A00F074FB0321184800F0A0FC022007
:1008C00000F020F819481BA10268684602F044FBBA
:1008D0006846FFF7A7FC08B070BD10B50446224675
:1008E00001210F4800F05BFB10BD08B502210A484A
:1008F00000F016FB0090009A521C0121064800F0FF
:100900004EFB08BD00F01F0201219140114A43092E
:1009100042F82310704700002C0100203C01002009
:100920004C0100205C01002000F0FFFF14000020BB
:100930001000002056616C6F7220657669746172D8
:10094000206578632E20286D73293A2025640D0ACE
:100950000000000080E200E070B505460021B548C7
:1009600001F096FA04460CB1012070BDB14800F0C8
:100970005CFDB04800F051FEAE49896901F11C00F0
:10098000002100F054F90121AA4801F08AF8002062
:10099000EBE710B5A749896901F11C00002100F0BF
:1009A00046F910BD70B5A349896901F1600000F0F6
:1009B0003BF9054645F004019E4A926902F1600048
:1009C00000F035F906209C4908700123002299485F
:1009D00000F0B3FE0446052097490870FF204870D8
:1009E0000223964A934800F0A8FE0446204670BDB4
:1009F0002DE9F04707460D4616468E49896901F1F3
:100A0000600000F011F9804648F00401894A9269BB
:100A100002F1600000F00BF90DB1FC2D02D90120AC
:100A2000BDE8F08706208449087001230022814830
:100A300000F083FE814602207F490870300C487028
:100A4000300A8870CE70002405E017F8011B201DC5
:100A5000794A1154641CAC42F7D32B1D002276490D
:100A6000744800F06AFE8146002400E0641C44F6ED
:100A700020608442FAD34846D2E72DE9F047074682
:100A80000D4616466B49896901F1600000F0CCF80B
:100A9000804648F00401674A926902F1600000F064
:100AA000C6F80DB1FC2D02D90120BDE8F087032066
:100AB00061490870300C4870300A8870CE7000248C
:100AC00004E00021201D5C4A1154641CAC42F8D3A0
:100AD0002B1D5A4A5849574800F02FFE81460024E2
:100AE00005E05649201D085C07F8010B641CAC4268
:100AF000F7D34846D9E72DE9F04F93B0074688462B
:100B0000002012904B4890F82D402046E11704EB4E
:100B10005171CD102346424649A102A8009502F02A
:100B20001BFA02A8FFF77EFB4249896901F16000C8
:100B300000F07AF883464BF004013E4A926902F1D4
:100B4000600000F074F84FF0000A17E03949896935
:100B500001F1640000F068F8064606F0080060B98C
:100B600097F800902F443349896901F1680049469C
:100B700000F05DF8129828441290AA44C245E5D3CB
:100B80002C49896901F17000002100F050F82949D1
:100B9000896901F1600000F047F820F4807B4BF098
:100BA0000201244A926902F1600000F040F800BF9F
:100BB0002049896901F1200000F036F8064606F068
:100BC00004000028F4D01B49896901F1200000F0DD
:100BD0002BF840F0040017490190896901F12000C9
:100BE000019900F024F8129813B0BDE8F08F10B509
:100BF000032000F010F810BD10B5042000F00BF831
:100C000010BD10B5052000F006F810BD10B5062087
:100C100000F001F810BD00F01F02012191400F4AC1
:100C2000430942F82310704701460868704702469E
:100C3000116070476C010020C8010020C80200202C
:100C40006C656E2025692C205769642025692C204D
:100C5000696E63722025690D0A00000080E200E0E1
:100C60001F4A116070471F4A1160704710B500217C
:100C70001D4801F046FC04460CB1012010BD1A4A83
:100C8000AFF21D01104601F03BFB174AAFF22F01F6
:100C9000104601F003FB4FF480721449124801F032
:100CA0003FFA0020EAE70E490968114A1268881ADB
:100CB00018B10B4909680E4A1160704710B50A480F
:100CC00001F0C3FB10BD10B5074801F071FB002017
:100CD00001218140074A430942F8231000BF10BD9B
:100CE000180000201C000020C8030020140500206C
:100CF0002000002080E200E010B5044622460021DA
:100D00002C4801F039FE00212A4801F0B5FE0021EF
:100D1000284801F05CFD10BD70B504460D46002169
:100D2000244801F0A3FD234801F06CFF09200121B4
:100D30008140214A430942F8231000BF1F48007830
:100D400040B1FFF718FD00201C4908701C48FFF750
:100D5000D3FF01E0FFF716FD70BD10B50021154867
:100D600001F00AFD04460CB1012010BD282200212B
:100D7000104801F0A5FF0F4AAFF26301104601F0E1
:100D80000FFF0020F1E710B500210A4802F044F8F7
:100D900004461CB10BA0FFF745FA02E00EA0FFF7D6
:100DA00041FA10BD10B50021024801F0A8FD04462B
:100DB000204610BD1406002080E200E01000002054
:100DC00040787D014E4F20564120454C2054494DDE
:100DD0004552200D0A0000005641204249454E2050
:100DE000454C2054494D4552200D0A0070B504462B
:100DF0000D4616461CB100208A49086008E07D2196
:100E00008948FFF71BFA012086490860002070BD61
:100E10002660A868A060E868E0604FF0113060606C
:100E20000020F4E770B504460D4616461CB10020BC
:100E30007C49086007E0A2217B48FFF7FFF9012009
:100E40007849086070BD6068B0F1113F03D100209F
:100E50007449086007E0A3217348FFF7EFF9012008
:100E600070490860EEE7012D04D0022D06D1E0683C
:100E7000012803D100206B49086007E0A4216A48DB
:100E8000FFF7DCF9012067490860DBE7691E0423EE
:100E900003EBC10122685018314600F0BFF800BFD3
:100EA000D0E770B504460D461CB100205D490860CE
:100EB00008E0C0215C48FFF7C1F9012059490860EA
:100EC000002070BD6068B0F1113F03D1002055498A
:100ED000086008E0C1215448FFF7B0F901205149EA
:100EE00008600020EDE7012D04D0022D06D1E06856
:100EF000012803D100204B49086008E0C2214A487C
:100F0000FFF79CF90120474908600020D9E7691ED6
:100F1000042303EBC1012268501801680846D0E79A
:100F200070B504460D461CB100203E49086008E03B
:100F3000DA213D48FFF782F901203A490860002094
:100F400070BD6068B0F1113F03D1002035490860E1
:100F500008E0DB213448FFF771F9012031490860CE
:100F60000020EDE7012D04D0022D06D1E068012814
:100F700003D100202B49086008E0DC212A48FFF754
:100F80005DF90120274908600020D9E7691E002388
:100F900003EBC1012268501801680846D0E770B51C
:100FA00004460D4616461CB100201E49086007E0A5
:100FB000F6211D48FFF742F901201A49086070BD6B
:100FC0006068B0F1113F03D100201649086007E0C6
:100FD000F7211548FFF732F9012012490860EEE7C2
:100FE000012D04D0022D06D1E068012803D1002094
:100FF0000C49086007E0F8210B48FFF71FF90120B2
:1010000008490860DBE7691E002303EBC101226881
:101010005018314600F002F800BFD0E702461160D8
:1010200070470000040000209433000010B504460F
:101030001CB10020CE49086007E05F21CD48FFF7D2
:10104000FDF80120CA49086010BD6068B0F1113F89
:1010500003D10020C649086007E06021C548FFF7BA
:10106000EDF80120C2490860EEE7A068012803D12D
:101070000020BF49086007E06121BE48FFF7DEF8A5
:101080000120BB490860DFE7216801F58E704FF051
:10109000004100F069F900BFD6E710B504461CB165
:1010A0000020B349086007E07A21B248FFF7C6F88C
:1010B0000120AF49086010BD6068B0F1113F03D155
:1010C0000020AB49086007E07B21AA48FFF7B6F88B
:1010D0000120A7490860EEE7A068012803D100209D
:1010E000A349086007E07C21A248FFF7A7F8012088
:1010F0009F490860DFE7216801F58E70002100F04C
:1011000033F900BFD7E770B504460D461CB1002087
:101110009749086007E098219648FFF78FF801206B
:101120009349086070BD6068B0F1113F03D10020A1
:101130008F49086007E099218E48FFF77FF801206A
:101140008B490860EEE7A068012803D10020884998
:10115000086007E09A218748FFF770F8012084496A
:101160000860DFE7216801F5947000F0FAF80646A0
:1011700046EA0501226802F5947000F0F5F800BF18
:10118000D0E770B504460D461CB1002078490860D0
:1011900007E0BC217748FFF751F801207449086047
:1011A00070BD6068B0F1113F03D100207049086044
:1011B00007E0BD216F48FFF741F801206C49086046
:1011C000EEE7A068012803D100206949086007E024
:1011D000BE216848FFF732F8012065490860DFE763
:1011E000216801F5947000F0BCF8064626EA050176
:1011F000226802F5947000F0B7F800BFD0E770B530
:1012000004460D461CB100205949086007E0DF2163
:101210005848FFF713F801205549086070BD606811
:10122000B0F1113F03D100205149086007E0E021EF
:101230005048FFF703F801204D490860EEE7A06829
:10124000012803D100204A49086007E0E12149480C
:10125000FEF7F4FF012046490860DFE7216801F549
:10126000907000F07EF8064606EA0501226802F555
:10127000907000F079F800BFD0E710B504461CB1BB
:1012800000203B49086009E04FF481713948FEF7BE
:10129000D5FF012036490860002010BD6068B0F11C
:1012A000113F03D100203249086009E040F20311E8
:1012B0003048FEF7C3FF01202D4908600020ECE70D
:1012C000A068012803D100202949086009E04FF4F3
:1012D00082712848FEF7B2FF0120254908600020EE
:1012E000DBE7216801F5947000F03BF8D5E710B515
:1012F00004461CB100201E49086009E040F21F119D
:101300001C48FEF79BFF012019490860002010BD12
:101310006068B0F1113F03D100201549086009E071
:101320004FF490711348FEF789FF012010490860BF
:101330000020ECE7A068012803D100200C490860D8
:1013400009E040F221110B48FEF778FF012008491F
:1013500008600020DBE7216801F5907000F001F8DB
:10136000D5E70146086870470246116070470000E3
:1013700004000020E03300000246002000210AE0C3
:10138000174B03EB01131B88934203D1144B03EB60
:10139000011002E0491C0429F2DB00BF704770B560
:1013A00005460E461DB100200E49086008E08F2159
:1013B0000D48FEF743FF01200A490860002070BD78
:1013C0003046FFF7D9FF04461CB9002068600220B0
:1013D000F5E7214628466268FFF708FDEFE70000C1
:1013E00024000020040000203034000070B50446C2
:1013F000A26902F17000216B00F02DFDA16901F1DD
:10140000600000F025FD85B245F48075606A08B182
:1014100045F06005A16901F16000294600F01BFD5F
:10142000002060642064A06470BD10B504461CB147
:101430000020FE49086008E040F2B711FC48FEF7C2
:10144000FDFE0120F949086010BDE069B0F1113FCF
:1014500003D10020F549086008E04FF4DC71F4483E
:10146000FEF7ECFE0120F1490860EDE72046FFF7AA
:10147000BDFF00202062206B6063A16901F1400084
:101480000A2100F0E8FC00BFDEE770B504460D4617
:10149000164640F21B41E648FEF7D0FE0120E34924
:1014A000086070BD2DE9F84304460D4690461CB116
:1014B0000020DE49086009E0AD21DD48FEF7BEFEF0
:1014C0000120DA4908600020BDE8F883206AB0F105
:1014D000223F01D10520F7E700202062A064D54813
:1014E000E0640020A063E06320646064C4F81880B6
:1014F000A8686062E868A062287C84F82C00687C98
:1015000018B9082084F82D0002E0687C84F82D00CA
:10151000A87C84F82E0068696065287E84F85800ED
:101520004FF01130E06194F82C1001208840401EEB
:101530002063206B6063002020606060A060E0603A
:1015400020616061687E012862D1A16901F16000BB
:1015500000F07EFC064646F06606A16901F16000D7
:10156000314600F078FC9F208DF8000000208DF8B7
:1015700001008DF802009DF80010A26902F16800D8
:1015800000F069FC9DF80110A26902F1680000F00A
:1015900062FC9DF80210A26902F1680000F05BFC99
:1015A000A16901F1600000F053FC064626F4807644
:1015B000A16901F16000314600F04DFCA16901F123
:1015C000600000F045FC064646F48076A16901F112
:1015D0006000314600F03FFCA16901F1640000F0B9
:1015E00037FC074607F0010020B9A16901F16C0042
:1015F00000F02EFCA16901F1640000F029FC07460F
:1016000007F0010020B9A16901F16C0000F020FC95
:101610002046FFF70AFF002056E770B504461CB1CC
:1016200000208249086009E040F239118048FEF745
:1016300005FE01207D490860002070BDE069B0F121
:10164000113F03D100207949086009E04FF49D71F2
:101650007748FEF7F3FD0120744908600020ECE7AD
:10166000206AB0F1223F01D10520E6E7A16901F12E
:10167000280000F0EDFB42F22B0140EA0106A169CF
:1016800001F12800314600F0E6FB4FF022302062E5
:10169000A16901F1600000F0DBFB054645F0620541
:1016A000A16901F16000294600F0D5FBA16901F1B3
:1016B0001C004FF0004100F0CEFB0020BDE770B5EC
:1016C00004461CB100205949086009E040F2871126
:1016D0005748FEF7B3FD012054490860002070BD53
:1016E000E069B0F1113F03D100205049086009E0E2
:1016F0004FF4C4714E48FEF7A1FD01204B4908602C
:101700000020ECE7A06C08B11520E8E7A16901F121
:101710001C00002100F09FFBA16901F1600000F0B6
:1017200097FB054625F00201A26902F1600000F076
:1017300092FB0020206200BFD1E72DE9FC5F044648
:101740008A4693461F464FF000091CB100203749D6
:1017500008600AE040F22A213548FEF76FFD0120BB
:10176000324908600020BDE8FC9FBAF1000F03D0A9
:1017700000202E49086009E040F22B212C48FEF79A
:101780005DFD0120294908600020ECE71FB1002021
:101790002649086009E04FF40B712548FEF74EFD1D
:1017A0000120224908600020DDE7E069B0F1113F27
:1017B00003D100201D49086009E040F22D211C489A
:1017C000FEF73CFD0120194908600020CBE7206AA4
:1017D000B0F1223F01D00620C5E7A06C08B115206A
:1017E000C1E7A16901F11C0000F032FBB0F1004F2C
:1017F00001D1012000E000200190A16901F11C004D
:10180000002100F028FBA16901F1600000F020FB3D
:10181000064606F00400D0B106F00100B8B9D4E9DC
:101820000C10884213D10198012805E00400002023
:10183000843400008B14000006D1A16901F11C0062
:101840004FF0004100F007FB40F283408BE701209E
:10185000A064C4F838A0C4F83CB02764676494F866
:101860002D50A16901F1640000F0F2FA804624E0F5
:10187000082D03D1A06B90F800900AE0102D03D141
:10188000A06BB0F8009004E0202D02D1A06BD0F83E
:101890000090A16901F16800494600F0DCFAA06BF4
:1018A00000EBE500A063606CA0EBE5006064A1695B
:1018B00001F1640000F0CCFA804608F0080010B98D
:1018C000606C0028D4D1A26902F17000616B00F055
:1018D000C2FAA16901F1600000F0BAFA064626F4E6
:1018E0008076A16901F16000314600F0B4FA0198F8
:1018F000012815D1A16901F1280000F0A9FA40F0F2
:1019000004000090A16901F12800009900F0A3FAF9
:10191000A16901F11C004FF0004100F09CFABEE00B
:10192000A5E000BFA16901F1200000F091FA804616
:1019300008F004000028F5D0A16901F1200000F0B2
:1019400087FA40F004000090A16901F1200000999D
:1019500000F081FAA16901F1600000F079FA064611
:1019600046F48071A26902F1600000F074FAA16986
:1019700001F1640000F06CFA804630E0A16901F1E9
:101980006C0000F065FA8146082D07D1E06BD0B1FC
:10199000E26B501CE06382F8009014E0102D08D137
:1019A000E06B80B1E16BA1F80090E06B801CE0631C
:1019B00009E0202D07D1E06B28B1E06BC0F8009062
:1019C000E06B001DE063206900EBE5002061A7EB00
:1019D000E507A16901F1640000F03AFA804608F0D9
:1019E00001000028CAD0606CF0B3A16901F1640065
:1019F00000F02EFA804624E0082D03D1A06B90F869
:101A000000900AE0102D03D1A06BB0F8009004E024
:101A1000202D02D1A06BD0F80090A16901F16800DF
:101A2000494600F018FAA06B00EBE500A063606C7B
:101A3000A0EBE5006064A16901F1640000F008FA20
:101A4000804608F0080010B9606C0028D4D1A16964
:101A500001F1600000F0FCF9064626F48076A169E9
:101A600001F16000314600E001E000F0F4F9002FE0
:101A70007FF457AFA16901F1600000F0E9F9064673
:101A800046F48071A26902F1600000F0E4F9A269F5
:101A900002F17000216B00F0DEF90020A06400204C
:101AA00061E62DE9F04104460E461CB10020EB49E9
:101AB00008600AE04FF46071E948FEF7BFFB0120BF
:101AC000E64908600020BDE8F081E069B0F1113F0F
:101AD00003D10020E149086009E040F28131E0488B
:101AE000FEF7ACFB0120DD4908600020EBE7A06CAD
:101AF00008B11520E7E7002794F82C00451E06E002
:101B000026FA05F000F0010000B17F1C6D1E002DCB
:101B1000F6DA012F02DD40F28440D4E7F04360633F
:101B20000020D0E710B504461CB10020CB49086066
:101B300009E040F2BF31CA48FEF780FB0120C749E7
:101B40000860002010BDE069B0F1113F03D1002012
:101B5000C249086009E04FF47071C148FEF76EFB9E
:101B60000120BE4908600020ECE7606BC043E9E754
:101B700070B504460E4615461CB10020B7490860F2
:101B800008E040F2FD31B648FEF758FB0120B349AA
:101B9000086070BD1DB10020B049086008E040F247
:101BA000FE31AF48FEF74AFB0120AC490860F0E780
:101BB000E069B0F1113F03D10020A849086008E0B6
:101BC00040F2FF31A648FEF739FB0120A349086027
:101BD000DFE7E564266500BFDBE72DE9F84F8146C6
:101BE0004C460027B9F1000F03D000209B49086044
:101BF00009E040F25A419A48FEF720FB012097493C
:101C00000860BDE8F88F6069401C6061A16901F15E
:101C1000200000F01DF90546A16901F1200000F047
:101C200017F928430090A16901F12000009900F004
:101C300012F905F00100A8B1D4E91001A0EB010AE6
:101C40002068401C20602046FFF7D0FBA16901F10D
:101C5000640000F0FDF8524640F27F41D4E91330B1
:101C60009847CEE794F82D6005F0040018B905F008
:101C7000400000287AD0A16901F1600000F0E8F886
:101C800083464BF48071A26902F1600000F0E3F832
:101C9000A16901F1640000F0DBF880462BE0A16946
:101CA00001F16C0000F0D4F80746082E06D1E06B75
:101CB000B8B1E26B501CE063177012E0102E07D130
:101CC000E06B70B1E16B0F80E06B801CE06308E0BB
:101CD000202E06D1E06B20B1E06B0760E06B001DA9
:101CE000E063206900EBE6002061A16901F1640076
:101CF00000F0AEF8804608F001000028CFD0606CFC
:101D0000A8B3A16901F1640000F0A2F8804621E0C7
:101D1000082E02D1A06B077808E0102E02D1A06B2C
:101D2000078803E0202E01D1A06B0768A16901F1AB
:101D30006800394600F08FF8A06B00EBE600A06366
:101D4000606CA0EBE6006064A16901F1640000F042
:101D50007FF8804608F0080010B9606C0028D7D1E1
:101D6000A16901F16000594600F075F81CE0FFE739
:101D7000A26902F17000216B00F06DF8A16901F118
:101D8000280000F065F820F004000090A16901F13E
:101D90002800009900F05FF80020A0644FF49061E3
:101DA000D4E91330226C984705F0800028B1002256
:101DB0004FF49161D4E91330984705F4807028B14D
:101DC000002240F28941D4E91330984705F002001F
:101DD00060B1D4E91001A0EB010AE068401CE060AA
:101DE000524640F28741D4E91330984705F020006D
:101DF00060B1D4E91001A0EB010AA068401CA0600A
:101E0000524640F28241D4E91330984705F0080069
:101E100060B1D4E91001A0EB010A6068401C606069
:101E2000524640F28141D4E91330984705F40050FE
:101E300060B1D4E91001A0EB010A6068401C606049
:101E4000524640F28A41D4E91330984700BFD8E6A1
:101E50000146086870470246116070470400002080
:101E60008434000010B50246002000210CE0C1EBD4
:101E7000C103164C34F82330934204D1C1EBC103A3
:101E800004EB830002E0491C0429F0D300BF10BD1D
:101E900070B505460E461DB100200D49086008E0EA
:101EA0008A210C48FEF7CAF9012009490860002080
:101EB00070BD3046FFF7D6FF04460CB90220F7E7A5
:101EC000214628466268FFF7EDFAF1E7640000203A
:101ED00004000020D034000070B504460D4640F2E6
:101EE000BF11EB48FEF7AAF90120EA49086070BD6E
:101EF00070B504460E4615461CB10020E549086041
:101F000008E08F21E248FEF799F90120E1490860D5
:101F1000002070BD002060620021E162A1622063A8
:101F2000A16361634FF011302062E561DA48E0633C
:101F30006064E16901F10C00002100F0A5F9204680
:101F400000F041FB0020E4E72DE9F04104460025C4
:101F5000E16901F1080000F094F9C6B2E16901F10C
:101F6000080000F08EF9C6B2E16901F10C00002111
:101F700000F08AF937460CE0626A515DE269101D93
:101F800000F082F96D1CE16901F1080000F079F9B7
:101F9000C6B206F0080010B9E06AA842ECD8606A40
:101FA00028446062E06A411BE162A0682844A060A6
:101FB00007F01007E16901F10C00394600F064F9FF
:101FC0002846BDE8F0812DE9F04104460E4615464D
:101FD0001CB10020AF49086009E0DE21AC48FEF7E3
:101FE0002DF90120AB4908600020BDE8F0811EB149
:101FF0000020A849086008E0DF21A548FEF71EF987
:102000000120A44908600020EFE7206AB0F1113FE9
:1020100003D100209F49086008E0E0219C48FEF7BA
:102020000DF901209B4908600020DEE7002D03DB4D
:1020300000209849086008E0E1219548FEF7FEF885
:102040000120944908600020CFE7E16901F1080010
:1020500000F017F90746E16901F10C00002100F0DA
:1020600013F9A562E562666207F01007E16901F104
:102070000C00394600F008F92046FFF765FF80465E
:102080004046B2E72DE9F04104460025E16901F13F
:10209000080000F0F6F8C7B2E16901F10C00002178
:1020A00000F0F2F824E0E16901F1080000F0E9F83D
:1020B000C6B206F00100D0B1E06900F0E2F8C2B2A9
:1020C00028466D1C236B1A5406F0200010B12069BD
:1020D000401C206106F0800010B16069401C606106
:1020E00006F0400020B1A069401CA06100E002E0C1
:1020F000A06BA842D7D800BF206B28442063A06BF8
:10210000411BA163E0682844E06007F01007E16923
:1021100001F10C00394600F0B7F82846BDE8F0811F
:102120002DE9F04104460E4615461CB100205949E0
:1021300008600AE040F231115548FEF77FF80120AF
:10214000544908600020BDE8F0811EB100205149CB
:10215000086009E04FF499714D48FEF76FF80120CF
:102160004C4908600020EEE7206AB0F1113F03D12E
:1021700000204849086009E040F233114448FEF766
:102180005DF80120434908600020DCE7002D03DBF7
:1021900000204049086009E04FF49A713C48FEF77E
:1021A0004DF801203B4908600020CCE7E16901F1CE
:1021B000080000F066F80746E16901F10C00002113
:1021C00000F062F86563A563266307F01007E16914
:1021D00001F10C00394600F057F82046FFF752FF96
:1021E00080464046AFE770B504461CB1002029493F
:1021F000086008E04FF4B7712548FEF71FF801208A
:102200002449086070BD206AB0F1113F03D100205D
:102210002049086008E040F26F111D48FEF70EF8F3
:1022200001201C490860EDE7E16901F1080000F0B8
:1022300028F8054605F0100545F00301E26902F1B2
:102240000C0000F021F800BFDCE770B504461CB1BB
:1022500000201049086009E040F299110C48FDF790
:10226000EDFF01200B490860002070BDE16901F11C
:10227000080000F006F8054600BF012020EA95009E
:10228000F3E7014608687047024611607047000096
:102290002035000004000020D91E000070B504465F
:1022A0000D4616461CB100207E49086007E06821F3
:1022B0007D48FDF7C3FF01207A49086070BD1DB15C
:1022C00000207849086007E069217748FDF7B6FFEC
:1022D000012074490860F1E7206AB0F1113F03D191
:1022E00000207049086007E06A216F48FDF7A6FFEB
:1022F00001206C490860E1E7E563266400BFDDE783
:1023000070B504460D4616461CB1002065490860AC
:1023100007E089216448FDF791FF012061490860C9
:1023200070BD1DB100205F49086007E08A215E484A
:10233000FDF784FF01205B490860F1E7206AB0F1F6
:10234000113F03D100205749086007E08B21564810
:10235000FDF774FF012053490860E1E76564A66456
:1023600000BFDDE770B50446E06A38B9A56A002110
:10237000A1622946D4E91120904702E02046FFF7E8
:10238000E3FD2068401C206070BD70B50446A06B62
:1023900010B12046FFF776FEA06B28B9D4E90D53A3
:1023A000E91AD4E90F2090476068401C606070BD56
:1023B00070B504461CB100203A49086007E0A62128
:1023C0003948FDF73BFF01203649086070BDE169DF
:1023D00001F10800056800BF05F0030010B12046B8
:1023E000FFF7D3FF05F0040020B1A06A10B120462A
:1023F000FFF7B8FF00BFE9E710B504461CB10020A5
:102400002849086008E040F225112748FDF716FF2B
:1024100001202449086010BD206AB0F1113F03D1AA
:1024200000202049086008E04FF493711E48FDF732
:1024300005FF01201B490860EDE7E16901F10C008F
:10244000002100F02BF800BFE5E710B504461CB1F1
:1024500000201449086008E040F243111248FDF7DB
:10246000EDFE01200F49086010BD206AB0F1113F58
:1024700003D100200B49086008E04FF4A2710A481C
:10248000FDF7DCFE012007490860EDE7E16901F195
:102490000C00102100F002F800BFE5E702461160D1
:1024A00070470000040000207435000000BF00BF2A
:1024B000826802F00802082AF9D0021D134619604A
:1024C00000BF7047014600BF00BF886800F00100F0
:1024D0000028F9D000BF0868C0B27047024600204B
:1024E00000210AE0164B03EB01131B88934203D132
:1024F000134B03EB011002E0491C0029F2D000BF8E
:10250000704770B505460E461DB100200D490860A4
:1025100008E085210C48FDF791FE0120094908607B
:10252000002070BD3046FFF7D9FF04460CB90220E9
:10253000F7E7214628466268FFF7DAFCF1E700007A
:10254000D400002004000020CC35000070B5044603
:102550000D461CB100203049086007E060212F487B
:10256000FDF76CFE01202C49086070BD1DB10020F4
:102570002949086007E061212848FDF75FFE012036
:1025800025490860F1E7206AB0F1113F03D100202E
:102590002149086007E062212048FDF74FFE012035
:1025A0001D490860E1E72068286060686860A068ED
:1025B000A860E068E86020692861A069A861606996
:1025C000686100BFD1E710B504461CB10020124974
:1025D000086007E083211148FDF730FE01200E4915
:1025E000086010BD206AB0F1113F03D100200A49F4
:1025F000086007E084210948FDF720FE0120064914
:102600000860EEE7002020606060A060E06020616C
:10261000A061606100BFE4E70400002028360000EC
:1026200070B505460C461DB10020FA49086008E067
:1026300040F21621F848FDF701FE0120F549086037
:1026400070BD022C03DA0020F249086008E040F275
:102650001721F148FDF7F2FD0120EE490860EFE790
:1026600000BFEDE770B504460E4615461CB10020CC
:10267000E849086007E07221E748FDF7DFFD012027
:10268000E449086070BD1EB10020E249086007E01F
:102690007321E148FDF7D2FD0120DE490860F1E732
:1026A0001DB10020DB49086007E07421DA48FDF71E
:1026B000C5FD0120D7490860E4E70020606196E885
:1026C000070084E8070065602561D44820626462E1
:1026D0000020E0604FF01130606100BFD2E77CB5B0
:1026E000044605261CB10020CA49086008E097216D
:1026F000C948FDF7A3FD0120C649086000207CBD44
:102700006069B0F1113F03D10020C249086008E0C0
:102710009821C148FDF792FD0120BE4908600020C4
:10272000EDE7A0690090E0690190002520E05DF8E8
:102730002500B0F1223F00D118E0B94A525D21696D
:102740001144081D002100F021FAB54A525D2169AB
:1027500088184FF4907100F019FAB14A525D21695E
:102760008818002100F012FA002600BF681CC5B2CC
:10277000022DDCDB3046C2E770B505460E461DB1C2
:102780000020A449086008E0CF21A348FDF756FDCA
:102790000120A0490860002070BDA869B0F1223F67
:1027A00005D1E869B0F1223F01D10520F4E73046B8
:1027B00000F0B8FB04460CB90220EDE7214628469C
:1027C0006268FFF74FFF2846FFF789FFE4E770B51F
:1027D00004460D461CB100208E49086007E0FE212A
:1027E0008D48FDF72BFD01208A49086070BD022D40
:1027F00003DA00208749086007E0FF218648FDF7DB
:102800001DFD012083490860F0E76069B0F1113FC8
:1028100003D100207F49086008E04FF480717E48B2
:10282000FDF70CFD01207B490860DFE77C4A525D23
:102830002169881800F0A7F90646794A525D216996
:102840008818202100F0A2F91DB94FF02230A061B4
:1028500002E04FF02230E061714B5B5D2269D018DD
:1028600046F0800100F092F900BFBFE770B5044662
:102870000D461CB100206749086008E040F23F1196
:102880006548FDF7DBFC01206249086070BD022D40
:1028900003DA00205F49086008E04FF4A0715E4849
:1028A000FDF7CCFC01205B490860EFE76069B0F1FF
:1028B000113F03D100205749086008E040F2411160
:1028C0005548FDF7BBFC012052490860DEE7544A39
:1028D000525D2169881800F056F9064626F08006F8
:1028E0004F4A525D21698818314600F04FF915B9F9
:1028F0000020A06101E00020E06100BFC6E770B5E4
:1029000004460D461CB100204249086009E04FF41E
:10291000B9714148FDF792FC01203E490860002052
:1029200070BD022D03DA00203A49086009E040F248
:1029300073113948FDF782FC0120364908600020F8
:10294000EEE76069B0F1113F03D100203149086022
:1029500009E04FF4BA713048FDF770FC01202D49B1
:1029600008600020DCE72E4A525D2169114401F124
:10297000080000F008F9D3E770B504460D46164686
:102980001CB100202349086008E04FF4C9712248B7
:10299000FDF754FC01201F49086070BD022D03DAC9
:1029A00000201C49086008E040F293111A48FDF726
:1029B00045FC012017490860EFE76069B0F1113F5D
:1029C00003D100201349086008E04FF4CA7112488F
:1029D000FDF734FC01200F490860DEE7104A525D24
:1029E00021691144081D314600F0D0F800BFD4E73A
:1029F00070B504460D461CB100200649086011E080
:102A00004FF4D7710448FDF719FC01200149086013
:102A1000002070BD04000020843600002126000044
:102A2000F0000020022D03DA00205A49086009E076
:102A300040F2AF115848FDF701FC012055490860EC
:102A40000020E6E76069B0F1113F03D10020514951
:102A5000086009E04FF4D8714F48FDF7EFFB012003
:102A60004C4908600020D4E74C4A525D216911446A
:102A7000081D00F088F8CCE770B504460D461CB17F
:102A800000204449086008E040F2CB114248FDF7BD
:102A9000D5FB01203F49086070BD022D03DA0020FC
:102AA0003C49086008E04FF4E6713B48FDF7C6FB7F
:102AB000012038490860EFE76069B0F1113F03D1A8
:102AC00000203449086008E040F2CD113248FDF79B
:102AD000B5FB01202F490860DEE7304A525D2169CD
:102AE000881800F050F806462C4B5B5D2269D01820
:102AF00046F0200100F04AF8284A525D2169881802
:102B0000314600F043F800BFC6E770B504460D46F5
:102B10001CB100201F49086009E04FF4FC711E48F9
:102B2000FDF78CFB01201B490860002070BD022DC1
:102B300003DA00201749086009E040F2F91116484D
:102B4000FDF77CFB0120134908600020EEE7606977
:102B5000B0F1113F03D100200E49086009E04FF4A5
:102B6000FD710D48FDF76AFB01200A49086000204D
:102B7000DCE70A4A525D2169881800F004F806462D
:102B8000C6F30020D2E7014608687047024611608C
:102B9000704700000400002084360000F000002090
:102BA00070B504460D4616461CB100204149086028
:102BB00007E064214048FDF741FB01203D490860E2
:102BC00070BD1DB100203B49086007E065213A480F
:102BD000FDF734FB012037490860F1E76069B0F187
:102BE000113F03D100203349086007E066213248D5
:102BF000FDF724FB01202F490860E1E725626662AA
:102C000000BFDDE72DE9F041074600241FB1002099
:102C10002849086008E083212748FDF70FFB0120C1
:102C200024490860BDE8F0813C4600253AE0234A8B
:102C3000525D2169881801680E4606F0400070B3A5
:102C400006F4807058B3E068401CE0602946D4E97F
:102C500008209047194A525D2169881801680E467C
:102C600006F0100098B906F0010080B926F0800641
:102C7000124B5B5D2269D01846F0200100F016F877
:102C80000E4A525D21698818314600F00FF80B4B4F
:102C90005B5D2269D01846F4807100F007F8681C6B
:102CA000C0B20546022DC2DB00BFBBE70246116081
:102CB0007047000004000020D4360000F00000201F
:102CC0002DE9F04106460F46904600251EB1002032
:102CD0004D49086008E085214C48FDF7AFFA012016
:102CE00049490860BDE8F081022F03DA0020464917
:102CF000086007E086214548FDF7A0FA0120424917
:102D00000860EFE77069B0F1113F03D100203E4940
:102D1000086007E087213D48FDF790FA01203A4915
:102D20000860DFE7002411E0394850F8340000EA79
:102D3000080028B1364800EBC4004068054304E0B1
:102D4000334800EBC40040688543641C072CEBD378
:102D5000304AD25D3169881801460D6000BF00BF5E
:102D6000C0E72DE9F04105460E4600271DB10020C1
:102D70002549086009E0C0212448FDF75FFA0120D9
:102D8000214908600020BDE8F081022E03DA00200E
:102D90001D49086008E0C1211C48FDF74FFA0120D9
:102DA000194908600020EEE76869B0F1113F03D1CE
:102DB00000201549086008E0C2211448FDF73EFADA
:102DC0000120114908600020DDE7124A925D29695F
:102DD0008818D0F8008000BF002410E00C4800EBF9
:102DE000C400406800EA080020B1094850F83400E7
:102DF000074303E0064850F834008743641C072C5F
:102E0000ECD33846BFE7000004000020283700005C
:102E1000F4000020F00000202DE9F04104460D46AA
:102E200000260027B0461CB100203B49086009E09D
:102E300068213A48FDF702FA01203749086000206E
:102E4000BDE8F081022D03DA00203349086008E074
:102E500069213248FDF7F2F901202F49086000206E
:102E6000EEE76069B0F1113F03D100202A49086004
:102E700008E06A212948FDF7E1F9012026490860A8
:102E80000020DDE7264A525D21691144081D00211A
:102E900000F03EF8224A525D216988184FF4907183
:102EA00000F036F81E4A525D21698818802100F032
:102EB0002FF81B4A525D2169114401F10800016895
:102EC0000E4600BF164A525D2169114401F1080007
:102ED00001680F4608F1010080B28046BE4202D16F
:102EE000B8F1000FEED10E4A525D216988184FF4F7
:102EF000907100F00DF80A4A525D2169881800218E
:102F000000F006F8BE4201D1012099E7002097E7C2
:102F10000246116070470000040000208037000066
:102F2000F000002010B50246002000210DE001EB6A
:102F30004103084C34F82330934204D101EB4103A0
:102F400004EB830003E04B1C99B20029EFD000BFD3
:102F500010BD0000E40000200FB41CB5074B06AA0A
:102F60007B4469460090059800F087F90020694687
:102F700000F096F91CBC5DF814FB00003D03000056
:102F80002DE9F0410E460446002020622046E1680B
:102F9000884730B3252805D0D4E901219047206A1D
:102FA000401CF2E7E168204600278847050018D05A
:102FB000A5F14100192802D820354FF400673246A8
:102FC000294620462760FDF7D5F840B1012804D0F6
:102FD000F61D26F007060836D8E7361DD6E7284640
:102FE000DAE7206ABDE8F08170B50C460546012A93
:102FF00005D02878800600D5EA69002302E0012385
:1030000005E05B1C934202D2E05C0028F9D1A8697C
:10301000E618C01AA861286A184428622846AFF347
:10302000008004E0D5E9012114F8010B9047B44277
:10303000F8D32846AFF3008070BD00002DE9F041C1
:103040000646002410687529314616A510D0AFF346
:103050000080002802DA404213A507E031688A07A1
:1030600001D512A502E0490704D511A5012401E00C
:10307000AFF3008000210A2206F1240709E0B0FB2B
:10308000F2FCB0FBF2F302FB1C003030785418461F
:10309000491C0028F3D123462A463046BDE8F041BA
:1030A00000F08DB8000000002D0000002B00000093
:1030B0002000000070B504460D4621461068AFF3AD
:1030C00000802188090502D50F4A7A4402E00E4AA1
:1030D0007A440E32002104F1240305E000F00F06CB
:1030E0000009965D5E54491C0028F7D12078002322
:1030F000000704D5702D02D009B1022311322046F9
:10310000BDE8704000F05BB89E02000040EA010399
:10311000024630B59B0710D14FF0013400E008C2E1
:1031200008C91D1B9D4315EAC41FF8D013F0FF0109
:1031300002F8011B0DD01B0AF8E711F8013B002B28
:1031400002F8013B05D011F8013B002B02F8013BCE
:10315000F3D130BD10B5203AC0F00B80B1E8185063
:10316000203AA0E81850B1E81850A0E81850BFF471
:10317000F5AF5FEA027C24BFB1E81850A0E8185010
:1031800044BF18C918C0BDE810405FEA827C24BF64
:1031900051F8043B40F8043B08BF7047D20728BFF2
:1031A00031F8023B48BF11F8012B28BF20F8023B41
:1031B00048BF00F8012B70477047704770472DE9F2
:1031C000F0470D4699469246044600F124080168EE
:1031D000880604D5E06921F01001216000E001209B
:1031E000A84201DD471B00E00027A1697A1902EB24
:1031F0000900081AA0612078C00602D42046AFF367
:103200000080002608E0D4E901211AF80600904762
:10321000206A401C761C20624E45F4DB2078C006F4
:103220000AD52046AFF3008006E0D4E90121302022
:103230009047206A401C2062381EA7F10107F4DC89
:1032400007E0D4E9012118F805009047206A401CE6
:103250002062281EA5F10105F3DC2046AFF30080B3
:103260002078000602D50220BDE8F0870120FBE7A8
:1032700001694A1C02610878704700B58FB0CDE93A
:1032800001310021059105497944CDE9031011462A
:103290006846FFF775FE0FB000BD0000E5FFFFFFB9
:1032A0000A6802F8010B0A60704710B5436913B150
:1032B000AFF3008001E0FFF797FE012010BD127808
:1032C00000F124010A7000224A700122EDE7116822
:1032D0004FF0FF32E9E7754600F02CF8AE460500E6
:1032E0006946534620F00700854618B020B5FCF724
:1032F0007DFFBDE820404FF000064FF000074FF083
:1033000000084FF0000B21F00701AC46ACE8C00903
:10331000ACE8C009ACE8C009ACE8C0098D4670470C
:1033200010B50446AFF300802046BDE81040FCF71E
:103330003CBF0000004870473C06002001491820AF
:10334000ABBEFEE726000200704700006745230180
:10335000EFCDAB89EFBEADDEEDDAEBFEA53CF0A51F
:1033600021436587A90BDCFE0804020130313233AA
:1033700034353637383941424344454640305800A9
:1033800030313233343536373839616263646566DB
:10339000403078002E2E5C73646B5F776F726B73B6
:1033A000706163655C7374616E64616C6F6E655FA0
:1033B0006273705F305C436F727465785F4D335F2A
:1033C000305C6C69627372635C6770696F5F7634DE
:1033D0005F335C7372635C786770696F2E630000A3
:1033E0002E2E5C73646B5F776F726B7370616365B5
:1033F0005C7374616E64616C6F6E655F6273705F45
:10340000305C436F727465785F4D335F305C6C691C
:10341000627372635C6770696F5F76345F335C738D
:1034200072635C786770696F5F696E74722E630097
:103430002E2E5C73646B5F776F726B737061636564
:103440005C7374616E64616C6F6E655F6273705FF4
:10345000305C436F727465785F4D335F305C6C69CC
:10346000627372635C6770696F5F76345F335C733D
:1034700072635C786770696F5F73696E69742E63DD
:10348000000000002E2E5C73646B5F776F726B73AD
:10349000706163655C7374616E64616C6F6E655FAF
:1034A0006273705F305C436F727465785F4D335F39
:1034B000305C6C69627372635C7370695F76345FF1
:1034C000345C7372635C787370692E630000000073
:1034D0002E2E5C73646B5F776F726B7370616365C4
:1034E0005C7374616E64616C6F6E655F6273705F54
:1034F000305C436F727465785F4D335F305C6C692C
:10350000627372635C7370695F76345F345C73728C
:10351000635C787370695F73696E69742E63000011
:103520002E2E5C73646B5F776F726B737061636573
:103530005C7374616E64616C6F6E655F6273705F03
:10354000305C436F727465785F4D335F305C6C69DB
:10355000627372635C756172746C6974655F7633F3
:103560005F325C7372635C78756172746C697465E8
:103570002E6300002E2E5C73646B5F776F726B732B
:10358000706163655C7374616E64616C6F6E655FBE
:103590006273705F305C436F727465785F4D335F48
:1035A000305C6C69627372635C756172746C6974AF
:1035B000655F76335F325C7372635C7875617274D9
:1035C0006C6974655F696E74722E63002E2E5C7375
:1035D000646B5F776F726B73706163655C7374614A
:1035E0006E64616C6F6E655F6273705F305C436FB9
:1035F000727465785F4D335F305C6C6962737263BF
:103600005C756172746C6974655F76335F325C738C
:1036100072635C78756172746C6974655F73696EEE
:1036200069742E63000000002E2E5C73646B5F775C
:103630006F726B73706163655C7374616E64616CEF
:103640006F6E655F6273705F305C436F7274657834
:103650005F4D335F305C6C69627372635C7561727D
:10366000746C6974655F76335F325C7372635C7827
:10367000756172746C6974655F73746174732E63C1
:10368000000000002E2E5C73646B5F776F726B73AB
:10369000706163655C7374616E64616C6F6E655FAD
:1036A0006273705F305C436F727465785F4D335F37
:1036B000305C6C69627372635C746D726374725FA8
:1036C00076345F345C7372635C78746D72637472A9
:1036D0002E6300002E2E5C73646B5F776F726B73CA
:1036E000706163655C7374616E64616C6F6E655F5D
:1036F0006273705F305C436F727465785F4D335FE7
:10370000305C6C69627372635C746D726374725F57
:1037100076345F345C7372635C78746D7263747258
:103720005F696E74722E63002E2E5C73646B5F771C
:103730006F726B73706163655C7374616E64616CEE
:103740006F6E655F6273705F305C436F7274657833
:103750005F4D335F305C6C69627372635C746D7271
:103760006374725F76345F345C7372635C78746D1B
:10377000726374725F6F7074696F6E732E63000092
:103780002E2E5C73646B5F776F726B737061636511
:103790005C7374616E64616C6F6E655F6273705FA1
:1037A000305C436F727465785F4D335F305C6C6979
:1037B000627372635C746D726374725F76345F34CB
:1037C0005C7372635C78746D726374725F73656C42
:1037D00066746573742E6300F837000000000020E3
:1037E0002C010000FC000000603800002C010020CB
:1037F00074150000580100004540787D01390571BD
:103800000215142B1140246904217A121052027AF5
:1038100004105203E301403A1320391A4A0832894E
:10382000780A13021C490A9A031CA1496411A93899
:10383000D9C81310402AC20E693517C04180F0FA6A
:103840000222104280191739A122045A206C191B38
:10385000115A0932291C191B3914291C290C000082
:04000005000001D125
:00000001FF
