:020000040000FA
:1000000018190020E1010000E9010000EB010000E7
:10001000ED010000EF010000F10100000000000010
:10002000000000000000000000000000F3010000DC
:10003000F501000000000000F7010000F9010000D8
:10004000270E00004F0800007F080000470D000049
:10005000510D00005B0D0000650D00008B040000D9
:100060000F080000790E0000FB010000FB010000FA
:10007000FB010000FB010000FB010000FB01000090
:10008000FB010000FB010000FB010000FB01000080
:10009000FB010000FB010000FB010000FB01000070
:1000A000FB010000FB010000FB010000FB01000060
:1000B000FB010000FB010000FB010000FB01000050
:1000C00000F002F800F070F80AA090E8000C8244FA
:1000D0008344AAF10107DA4501D100F065F8AFF2D7
:1000E000090EBAE80F0013F0010F18BFFB1A43F016
:1000F00001031847A44D0000C44D00000A444FF00E
:10010000000C10F8013B13F0070408BF10F8014B76
:100110001D1108BF10F8015B641E05D010F8016BBB
:10012000641E01F8016BF9D113F0080F1EBF10F81F
:10013000014BAD1C0C1B09D16D1E58BF01F801CB42
:10014000FAD505E014F8016B01F8016B6D1EF9D5C5
:100150009142D6D3704700000023002400250026DA
:10016000103A28BF78C1FBD8520728BF30C148BF1A
:100170000B607047662904F0D383692903F02C8152
:10018000782903F06581732903F005850020704705
:100190001FB503F005FD04000020002104F058FA0B
:1001A000E0601FBD10B510BD03F0FAFD1146FFF76A
:1001B000EFFF00F065F803F018FE03B4FFF7F2FF5D
:1001C00003BC03F05BFE000003480449086070476D
:1001D000014802490860704740787D010000002016
:1001E0000948804709480047FEE7FEE7FEE7FEE7CB
:1001F000FEE7FEE7FEE7FEE7FEE7FEE70448054907
:10020000054A064B70470000D1010000C100000004
:1002100018090020181900201815002018150020B2
:1002200010B504462146024802F042FB10BD000012
:100230000000104010B5044603E02078FFF7F0FFFF
:10024000641C20780028F8D110BD000070B5044669
:100250000D460948006820B129462046064A126822
:10026000904700BF054800680028FBD170BD0249D7
:1002700008607047704700000C0000200800002054
:10028000DAB04FF0C0469148199091A103C9CDE969
:10029000110191A103C9CDE90F012022904907A8BE
:1002A00003F0ADF900F092FD00BF4FF0FF308D4933
:1002B000086000BF00F02CFA8146B9F1000F02D0AF
:1002C00089A0FFF7B7FF012000F0EBF8022000F053
:1002D000E8F8082000F0E5F800F074FA092000F0D2
:1002E000E0F8002000F0DDF800F098FD072000F0B5
:1002F000E3F807207B498039420951F82210012296
:100300008240114009B1012100E000210F4600BFE9
:10031000384600F06DFB8146B9F1000F02D07DA098
:10032000FFF788FF00F0A1FB199800681890189853
:10033000C0F3035B1898C0F30B18189800F00F0A6D
:10034000A8F6214010B102280AD104E07FA113A829
:1003500003F031F90AE080A113A803F02CF905E0BD
:10036000424680A113A802F0F9FF00BF00BF534628
:1003700013AA7FA11AA8CDF800B002F0EFFF85A064
:10038000FFF758FF1AA8FFF755FF8CA0FFF752FFA1
:100390001FB194A0FFF74EFF02E09BA0FFF74AFFBA
:1003A000A1A0FFF747FFAEA0FFF744FF79A0FFF73A
:1003B00041FF002404E007A850F8240001C6641C93
:1003C000082CF8D300254FF0C046002407E002CEE9
:1003D00007A850F82400814200D06D1C641C082C32
:1003E000F5D31DB1A2A0FFF725FF02E0A9A0FFF7FA
:1003F00021FF00F083FB0022082111A800F0A4FBDC
:10040000002208210FA800F0E4FB0022082111A817
:1004100000F046FB9DF843009DF842109DF84120F6
:100420009DF84030CDE90232CDE904109DF83F003F
:100430009DF83E10CDE900109DF83D309DF83C2020
:100440009AA11AA802F08AFF1AA8FFF7F3FE002566
:10045000002407E00FA8005D11A9095D884200D0C3
:100460006D1C641C082CF5D31DB197A0FFF7E2FEAC
:1004700002E09FA0FFF7DEFE00F01FFD0022082132
:1004800011A800F00DFB00BFFEE710B50720012109
:100490008140144A430942F8231000BF00F00CF8D1
:1004A00010BD00F01F02012191404209920002F1AB
:1004B000E022C2F80011704700F01F0201219140B4
:1004C000924A430942F823107047000000ED00E013
:1004D0000123456789ABCDEFFFFFFFFFFFFFFFFF64
:1004E0002449000080E200E04572726F72202D20E6
:1004F00058696C696E78204750494F206661696C75
:10050000656420746F20696E697469616C697365D4
:100510000A0000004572726F72202D2058696C69C4
:100520006E782053504920636F6E74726F6C6C65E7
:100530007273206661696C656420746F20696E69EE
:100540007469616C6973650A00000000436F72741E
:1005500065782D4D31000000436F727465782D4D24
:1005600033000000556E6B6E6F776E2025780000AB
:1005700041726D202573205265766973696F6E2014
:1005800025692056617269616E742025690D0A0A19
:10059000000000002A2A2A2A2A2A2A2A2A2A2A2A63
:1005A0002A2A2A2A2A2A2A2A2A2A2A2A2A2A2A2AAB
:1005B0002A2A2A2A2A2A2A2A0D0A00004578616D49
:1005C000706C652064657369676E20666F72204485
:1005D0006967696C656E7420413720626F6172646F
:1005E0000D0A00000A5632432D4441504C696E6B8F
:1005F00020626F617264206E6F742064657465633D
:100600007465640D0A0000000A5632432D444150BF
:100610004C696E6B20626F617264206465746563FF
:100620007465640D0A00000055736520444950202C
:10063000737769746368657320616E642070757385
:100640006820627574746F6E7320746F0D0A636F27
:100650006E74726F6C204C4544530D0A000000000C
:1006600056657273696F6E20312E34330D0A0000A7
:100670004552524F52202D204272616D20726561A9
:10068000646261636B20636F727275707465642E4F
:100690000D0A00004272616D2072656164626163DF
:1006A0006B20636F72726563740D0A0025782025D4
:1006B0007820257820257820257820257820257811
:1006C0002025780D0A0000004552524F52202D205F
:1006D00042617365205350492072656164626163B1
:1006E0006B20636F727275707465642E0D0A000062
:1006F0004261736520535049207265616462616391
:100700006B20636F72726563740D0A0080E100E014
:1007100010B50021A64800F0F2FE04460CB10120FD
:1007200010BD0121A34800F0EAFE04460CB10120EF
:10073000F6E70321A04800F0E2FE04460CB10120D8
:10074000EEE702219D4800F0DAFE04460CB10120DC
:10075000E6E76FF00F020121954800F013FC4FF01F
:10076000FF320221924800F00DFC954A0121914888
:1007700000F008FC4FF0FF3202218E4800F002FC2E
:10078000002201218C4800F0FDFB00220121894854
:1007900000F0B5FC00220121854800F0B0FC6FF0AC
:1007A0000F020121854800F0EDFB4FF0FF320221DE
:1007B000824800F0E7FB00220121804800F09FFC06
:1007C0000020ADE710B502217A4800F04CFD02216F
:1007D000774800F048FD0221784800F044FD754854
:1007E00000F0D4FC724800F0D1FC744800F0CEFC5C
:1007F00010BD10B501221146704800F080FC10BDFC
:1008000010B5002201216D4800F079FC10BD10B533
:1008100002216A4800F034FC00F0010078B1694917
:10082000096846F2A81201FB02F000F015FB012056
:100830006549087004220121604800F060FC032132
:100840005E4800F08CFD082000F0A9F810BD08B546
:100850000221574800F014FC009001215448009AEE
:1008600000F04DFC0C220121544800F048FC03210B
:100870004F4800F074FD012000F091F808BD2DE90B
:10088000F04788B002214B4800F0FAFB002851D015
:100890000221484800F0F4FB07900121454800F090
:1008A000EFFB0690079800F0010038B107240125FE
:1008B00044480068401C434908602CE0079800F059
:1008C000020050B1382408253E48006818B33D485E
:1008D0000068401E3B4908601DE0079800F00400D6
:1008E00040B14FF4E0744025364800680A3035497D
:1008F000086010E0079800F0080060B14FF46064F1
:100900004FF400752F4800680A2804D92D48006864
:100910000A382C490860069800EA0406701900EAB3
:1009200004060698A0433043069001212148069A08
:1009300000F0E5FB03211F4800F011FD022000F04C
:100940002EF82048006803F08DFF82464FF080416A
:1009500003F0C6FE814603F097FE07463A460B4673
:100960001AA1684602F0FAFC6846FFF763FC08B07B
:10097000BDE8F08710B50446224601210E4800F07C
:10098000BEFB10BD08B50221094800F079FB0090BC
:10099000009A521C0121064800F0B1FB08BD00F08E
:1009A0001F0201219140114A430942F82310704768
:1009B0004801002058010020680100207801002033
:1009C00000F0FFFF140000201000002056616C6F43
:1009D0007220657669746172206578632E20286DB7
:1009E00073293A20252E31660D0A000080E200E0CE
:1009F00070B505460021E54801F04CFC04460CB1F9
:100A0000012070BDE14800F0C0FDE04800F0B5FEF7
:100A1000DE49896901F11C00002100F0B4F90121CF
:100A2000DA4801F0EEF80421D94801F033FC04461D
:100A30000CB10120E5E7D64800F09FFED449896952
:100A400001F11C00002100F09EF90121D04801F0C5
:100A5000D8F80020D5E710B5CD4801F06EFB04466C
:100A60000CB1012010BD0020FCE710B5C749896911
:100A700001F11C00002100F086F910BD10B5C44939
:100A8000896901F1600000F07BF9044644F004013B
:100A9000BF4A926902F1600000F075F9284610BD66
:100AA0002DE9F04705460E469146B949896901F19D
:100AB000600000F065F9074647F00401B44A926906
:100AC00002F1600000F05FF9002404E015F8010B6A
:100AD000B0490855641CB442F8D333460022AD49EE
:100AE000AB4800F0DAFE8046002400E0641C44F6C7
:100AF00020608442FAD34046BDE8F08770B5A34930
:100B0000896901F1600000F03BF9054645F00401F8
:100B10009E4A926902F1600000F035F906209E4974
:100B2000087001230022994800F0B7FE0446052012
:100B300099490870FF2048700223984A934800F0B2
:100B4000ACFE0446204670BD2DE9F04707460D4631
:100B500016468E49896901F1600000F011F980465E
:100B600048F00401894A926902F1600000F00BF933
:100B70000DB1FC2D02D90120BDE8F0870620864981
:100B8000087001230022814800F087FE8146022080
:100B900081490870300C4870300A8870CE7000248B
:100BA00005E017F8011B201D7B4A1154641CAC4260
:100BB000F7D32B1D00227849744800F06EFE814661
:100BC000002400E0641C44F620608442FAD34846C6
:100BD000D2E72DE9F04707460D4616466B4989696D
:100BE00001F1600000F0CCF8804648F00401674A4B
:100BF000926902F1600000F0C6F80DB1FC2D02D937
:100C00000120BDE8F087032063490870300C48706C
:100C1000300A8870CE70002404E00021201D5E4A56
:100C20001154641CAC42F8D32B1D5C4A5A495748F6
:100C300000F033FE8146002405E05849201D085C81
:100C400007F8010B641CAC42F7D34846D9E72DE9FD
:100C5000F04F93B007468846002012904B4890F81A
:100C60002D402046E11704EB5171CD10234642463A
:100C70004BA102A8009502F071FB02A8FFF7DAFA77
:100C80004249896901F1600000F07AF883464BF02F
:100C900004013E4A926902F1600000F074F84FF0DE
:100CA000000A17E03949896901F1640000F068F829
:100CB000064606F0080060B997F800902F443349C3
:100CC000896901F16800494600F05DF812982844EE
:100CD0001290AA44C245E5D32C49896901F17000FC
:100CE000002100F050F82949896901F1600000F005
:100CF00047F820F4807B4BF00201244A926902F10C
:100D0000600000F040F800BF2049896901F120002F
:100D100000F036F8064606F004000028F4D01B491F
:100D2000896901F1200000F02BF840F00400174918
:100D30000190896901F12000019900F024F81298CE
:100D400013B0BDE8F08F10B5032000F010F810BD0F
:100D500010B5042000F00BF810BD10B5052000F010
:100D600006F810BD10B5062000F001F810BD00F027
:100D70001F0201219140114A430942F82310704794
:100D800001460868704702461160704788010020DC
:100D9000E401002040040020400200204003002025
:100DA0006C656E2025692C205769642025692C20EC
:100DB000696E63722025690D0A00000080E200E080
:100DC0001F4A116070471F4A1160704710B500211B
:100DD0001D4801F098FD04460CB1012010BD1A4ACF
:100DE000AFF21D01104601F08DFC174AAFF22F0142
:100DF000104601F055FC4FF480721449124801F07E
:100E000091FB0020EAE70E490968114A1268881A26
:100E100018B10B4909680E4A1160704710B50A48AD
:100E200001F015FD10BD10B5074801F0C3FC00200E
:100E300001218140074A430942F8231000BF10BD39
:100E4000180000201C000020400600208C07002015
:100E50002000002080E200E010B504462246002178
:100E60002C4801F08BFF00212A4802F007F80021EE
:100E7000284801F0AEFE10BD70B504460D460021B5
:100E8000244801F0F5FE234802F0BEF809200121B4
:100E90008140214A430942F8231000BF1F480078CF
:100EA00040B1FFF7A6FC00201C4908701C48FFF762
:100EB000D3FF01E0FFF7A4FC70BD10B50021154879
:100EC00001F05CFE04460CB1012010BD2822002177
:100ED000104802F0F7F80F4AAFF26301104602F033
:100EE00061F80020F1E710B500210A4802F096F9F8
:100EF00004461CB10BA0FFF79DF902E00EA0FFF71E
:100F000099F910BD10B50021024801F0FAFE04461F
:100F1000204610BD8C08002080E200E01000002078
:100F200040787D014E4F20564120454C2054494D7C
:100F30004552200D0A0000005641204249454E20EE
:100F4000454C2054494D4552200D0A0070B50446C9
:100F50000D4616461CB100208A49086008E07D2134
:100F60008948FFF773F9012086490860002070BDA9
:100F70002660A868A060E868E0604FF0113060600B
:100F80000020F4E770B504460D4616461CB100205B
:100F90007C49086007E0A2217B48FFF757F9012050
:100FA0007849086070BD6068B0F1113F03D100203E
:100FB0007449086007E0A3217348FFF747F901204F
:100FC00070490860EEE7012D04D0022D06D1E068DB
:100FD000012803D100206B49086007E0A4216A487A
:100FE000FFF734F9012067490860DBE7691E042335
:100FF00003EBC10122685018314600F0BFF800BF72
:10100000D0E770B504460D461CB100205D4908606C
:1010100008E0C0215C48FFF719F901205949086030
:10102000002070BD6068B0F1113F03D10020554928
:10103000086008E0C1215448FFF708F90120514930
:1010400008600020EDE7012D04D0022D06D1E068F4
:10105000012803D100204B49086008E0C2214A481A
:10106000FFF7F4F80120474908600020D9E7691E1E
:10107000042303EBC1012268501801680846D0E739
:1010800070B504460D461CB100203E49086008E0DA
:10109000DA213D48FFF7DAF801203A4908600020DC
:1010A00070BD6068B0F1113F03D100203549086080
:1010B00008E0DB213448FFF7C9F801203149086016
:1010C0000020EDE7012D04D0022D06D1E0680128B3
:1010D00003D100202B49086008E0DC212A48FFF7F3
:1010E000B5F80120274908600020D9E7691E0023D0
:1010F00003EBC1012268501801680846D0E770B5BB
:1011000004460D4616461CB100201E49086007E043
:10111000F6211D48FFF79AF801201A49086070BDB2
:101120006068B0F1113F03D100201649086007E064
:10113000F7211548FFF78AF8012012490860EEE709
:10114000012D04D0022D06D1E068012803D1002032
:101150000C49086007E0F8210B48FFF777F80120F9
:1011600008490860DBE7691E002303EBC101226820
:101170005018314600F002F800BFD0E70246116077
:101180007047000004000020004A000010B504462B
:101190001CB10020CE49086007E05F21CD48FFF771
:1011A00055F80120CA49086010BD6068B0F1113FD0
:1011B00003D10020C649086007E06021C548FFF759
:1011C00045F80120C2490860EEE7A068012803D174
:1011D0000020BF49086007E06121BE48FFF736F8EC
:1011E0000120BB490860DFE7216801F58E704FF0F0
:1011F000004100F069F900BFD6E710B504461CB104
:101200000020B349086007E07A21B248FFF71EF8D2
:101210000120AF49086010BD6068B0F1113F03D1F3
:101220000020AB49086007E07B21AA48FFF70EF8D1
:101230000120A7490860EEE7A068012803D100203B
:10124000A349086007E07C21A248FEF7FFFF0120C8
:101250009F490860DFE7216801F58E70002100F0EA
:1012600033F900BFD7E770B504460D461CB1002026
:101270009749086007E098219648FEF7E7FF0120AC
:101280009349086070BD6068B0F1113F03D1002040
:101290008F49086007E099218E48FEF7D7FF0120AB
:1012A0008B490860EEE7A068012803D10020884937
:1012B000086007E09A218748FEF7C8FF01208449AB
:1012C0000860DFE7216801F5947000F0FAF806463F
:1012D00046EA0501226802F5947000F0F5F800BFB7
:1012E000D0E770B504460D461CB10020784908606F
:1012F00007E0BC217748FEF7A9FF01207449086088
:1013000070BD6068B0F1113F03D1002070490860E2
:1013100007E0BD216F48FEF799FF01206C49086086
:10132000EEE7A068012803D100206949086007E0C2
:10133000BE216848FEF78AFF012065490860DFE7A3
:10134000216801F5947000F0BCF8064626EA050114
:10135000226802F5947000F0B7F800BFD0E770B5CE
:1013600004460D461CB100205949086007E0DF2102
:101370005848FEF76BFF01205549086070BD606852
:10138000B0F1113F03D100205149086007E0E0218E
:101390005048FEF75BFF01204D490860EEE7A0686A
:1013A000012803D100204A49086007E0E1214948AB
:1013B000FEF74CFF012046490860DFE7216801F590
:1013C000907000F07EF8064606EA0501226802F5F4
:1013D000907000F079F800BFD0E710B504461CB15A
:1013E00000203B49086009E04FF481713948FEF75D
:1013F0002DFF012036490860002010BD6068B0F163
:10140000113F03D100203249086009E040F2031186
:101410003048FEF71BFF01202D4908600020ECE753
:10142000A068012803D100202949086009E04FF491
:1014300082712848FEF70AFF012025490860002034
:10144000DBE7216801F5947000F03BF8D5E710B5B3
:1014500004461CB100201E49086009E040F21F113B
:101460001C48FEF7F3FE012019490860002010BD5A
:101470006068B0F1113F03D100201549086009E010
:101480004FF490711348FEF7E1FE01201049086007
:101490000020ECE7A068012803D100200C49086077
:1014A00009E040F221110B48FEF7D0FE0120084967
:1014B00008600020DBE7216801F5907000F001F87A
:1014C000D5E7014608687047024611607047000082
:1014D000040000204C4A00000246002000210AE0DF
:1014E000174B03EB01131B88934203D1144B03EBFF
:1014F000011002E0491C0429F2DB00BF704770B5FF
:1015000005460E461DB100200E49086008E08F21F7
:101510000D48FEF79BFE01200A490860002070BDBF
:101520003046FFF7D9FF04461CB90020686002204E
:10153000F5E7214628466268FFF708FDEFE700005F
:1015400024000020040000209C4A000070B50446DE
:10155000A26902F17000216B00F02DFDA16901F17B
:10156000600000F025FD85B245F48075606A08B121
:1015700045F06005A16901F16000294600F01BFDFE
:10158000002060642064A06470BD10B504461CB1E6
:101590000020FE49086008E040F2B711FC48FEF761
:1015A00055FE0120F949086010BDE069B0F1113F16
:1015B00003D10020F549086008E04FF4DC71F448DD
:1015C000FEF744FE0120F1490860EDE72046FFF7F1
:1015D000BDFF00202062206B6063A16901F1400023
:1015E0000A2100F0E8FC00BFDEE770B504460D46B6
:1015F000164640F21B41E648FEF728FE0120E3496B
:10160000086070BD2DE9F84304460D4690461CB1B4
:101610000020DE49086009E0AD21DD48FEF716FE36
:101620000120DA4908600020BDE8F883206AB0F1A3
:10163000223F01D10520F7E700202062A064D548B1
:10164000E0640020A063E06320646064C4F8188054
:10165000A8686062E868A062287C84F82C00687C36
:1016600018B9082084F82D0002E0687C84F82D0069
:10167000A87C84F82E0068696065287E84F858008C
:101680004FF01130E06194F82C1001208840401E8A
:101690002063206B6063002020606060A060E060D9
:1016A00020616061687E012862D1A16901F160005A
:1016B00000F07EFC064646F06606A16901F1600076
:1016C000314600F078FC9F208DF8000000208DF856
:1016D00001008DF802009DF80010A26902F1680077
:1016E00000F069FC9DF80110A26902F1680000F0A9
:1016F00062FC9DF80210A26902F1680000F05BFC38
:10170000A16901F1600000F053FC064626F48076E2
:10171000A16901F16000314600F04DFCA16901F1C1
:10172000600000F045FC064646F48076A16901F1B0
:101730006000314600F03FFCA16901F1640000F057
:1017400037FC074607F0010020B9A16901F16C00E0
:1017500000F02EFCA16901F1640000F029FC0746AD
:1017600007F0010020B9A16901F16C0000F020FC34
:101770002046FFF70AFF002056E770B504461CB16B
:1017800000208249086009E040F239118048FEF7E4
:101790005DFD01207D490860002070BDE069B0F169
:1017A000113F03D100207949086009E04FF49D7191
:1017B0007748FEF74BFD0120744908600020ECE7F4
:1017C000206AB0F1223F01D10520E6E7A16901F1CD
:1017D000280000F0EDFB42F22B0140EA0106A1696E
:1017E00001F12800314600F0E6FB4FF02230206284
:1017F000A16901F1600000F0DBFB054645F06205E0
:10180000A16901F16000294600F0D5FBA16901F151
:101810001C004FF0004100F0CEFB0020BDE770B58A
:1018200004461CB100205949086009E040F28711C4
:101830005748FEF70BFD012054490860002070BD99
:10184000E069B0F1113F03D100205049086009E080
:101850004FF4C4714E48FEF7F9FC01204B49086073
:101860000020ECE7A06C08B11520E8E7A16901F1C0
:101870001C00002100F09FFBA16901F1600000F055
:1018800097FB054625F00201A26902F1600000F015
:1018900092FB0020206200BFD1E72DE9FC5F0446E7
:1018A0008A4693461F464FF000091CB10020374975
:1018B00008600AE040F22A213548FEF7C7FC012003
:1018C000324908600020BDE8FC9FBAF1000F03D048
:1018D00000202E49086009E040F22B212C48FEF739
:1018E000B5FC0120294908600020ECE71FB1002069
:1018F0002649086009E04FF40B712548FEF7A6FC65
:101900000120224908600020DDE7E069B0F1113FC5
:1019100003D100201D49086009E040F22D211C4838
:10192000FEF794FC0120194908600020CBE7206AEB
:10193000B0F1223F01D00620C5E7A06C08B1152008
:10194000C1E7A16901F11C0000F032FBB0F1004FCA
:1019500001D1012000E000200190A16901F11C00EB
:10196000002100F028FBA16901F1600000F020FBDC
:10197000064606F00400D0B106F00100B8B9D4E97B
:101980000C10884213D10198012805E004000020C2
:10199000F04A0000EB15000006D1A16901F11C001E
:1019A0004FF0004100F007FB40F283408BE701203D
:1019B000A064C4F838A0C4F83CB02764676494F805
:1019C0002D50A16901F1640000F0F2FA804624E094
:1019D000082D03D1A06B90F800900AE0102D03D1E0
:1019E000A06BB0F8009004E0202D02D1A06BD0F8DD
:1019F0000090A16901F16800494600F0DCFAA06B93
:101A000000EBE500A063606CA0EBE5006064A169F9
:101A100001F1640000F0CCFA804608F0080010B92B
:101A2000606C0028D4D1A26902F17000616B00F0F3
:101A3000C2FAA16901F1600000F0BAFA064626F484
:101A40008076A16901F16000314600F0B4FA019896
:101A5000012815D1A16901F1280000F0A9FA40F090
:101A600004000090A16901F12800009900F0A3FA98
:101A7000A16901F11C004FF0004100F09CFABEE0AA
:101A8000A5E000BFA16901F1200000F091FA8046B5
:101A900008F004000028F5D0A16901F1200000F051
:101AA00087FA40F004000090A16901F1200000993C
:101AB00000F081FAA16901F1600000F079FA0646B0
:101AC00046F48071A26902F1600000F074FAA16925
:101AD00001F1640000F06CFA804630E0A16901F188
:101AE0006C0000F065FA8146082D07D1E06BD0B19B
:101AF000E26B501CE06382F8009014E0102D08D1D6
:101B0000E06B80B1E16BA1F80090E06B801CE063BA
:101B100009E0202D07D1E06B28B1E06BC0F8009000
:101B2000E06B001DE063206900EBE5002061A7EB9E
:101B3000E507A16901F1640000F03AFA804608F077
:101B400001000028CAD0606CF0B3A16901F1640003
:101B500000F02EFA804624E0082D03D1A06B90F807
:101B600000900AE0102D03D1A06BB0F8009004E0C3
:101B7000202D02D1A06BD0F80090A16901F168007E
:101B8000494600F018FAA06B00EBE500A063606C1A
:101B9000A0EBE5006064A16901F1640000F008FABF
:101BA000804608F0080010B9606C0028D4D1A16903
:101BB00001F1600000F0FCF9064626F48076A16988
:101BC00001F16000314600E001E000F0F4F9002F7F
:101BD0007FF457AFA16901F1600000F0E9F9064612
:101BE00046F48071A26902F1600000F0E4F9A26994
:101BF00002F17000216B00F0DEF90020A0640020EB
:101C000061E62DE9F04104460E461CB10020EB4987
:101C100008600AE04FF46071E948FEF717FB012005
:101C2000E64908600020BDE8F081E069B0F1113FAD
:101C300003D10020E149086009E040F28131E04829
:101C4000FEF704FB0120DD4908600020EBE7A06CF3
:101C500008B11520E7E7002794F82C00451E06E0A0
:101C600026FA05F000F0010000B17F1C6D1E002D6A
:101C7000F6DA012F02DD40F28440D4E7F0436063DE
:101C80000020D0E710B504461CB10020CB49086005
:101C900009E040F2BF31CA48FEF7D8FA0120C7492F
:101CA0000860002010BDE069B0F1113F03D10020B1
:101CB000C249086009E04FF47071C148FEF7C6FAE6
:101CC0000120BE4908600020ECE7606BC043E9E7F3
:101CD00070B504460E4615461CB10020B749086091
:101CE00008E040F2FD31B648FEF7B0FA0120B349F2
:101CF000086070BD1DB10020B049086008E040F2E6
:101D0000FE31AF48FEF7A2FA0120AC490860F0E7C7
:101D1000E069B0F1113F03D10020A849086008E054
:101D200040F2FF31A648FEF791FA0120A34908606E
:101D3000DFE7E564266500BFDBE72DE9F84F814664
:101D40004C460027B9F1000F03D000209B490860E2
:101D500009E040F25A419A48FEF778FA0120974983
:101D60000860BDE8F88F6069401C6061A16901F1FD
:101D7000200000F01DF90546A16901F1200000F0E6
:101D800017F928430090A16901F12000009900F0A3
:101D900012F905F00100A8B1D4E91001A0EB010A85
:101DA0002068401C20602046FFF7D0FBA16901F1AC
:101DB000640000F0FDF8524640F27F41D4E9133050
:101DC0009847CEE794F82D6005F0040018B905F0A7
:101DD000400000287AD0A16901F1600000F0E8F825
:101DE00083464BF48071A26902F1600000F0E3F8D1
:101DF000A16901F1640000F0DBF880462BE0A169E5
:101E000001F16C0000F0D4F80746082E06D1E06B13
:101E1000B8B1E26B501CE063177012E0102E07D1CE
:101E2000E06B70B1E16B0F80E06B801CE06308E059
:101E3000202E06D1E06B20B1E06B0760E06B001D47
:101E4000E063206900EBE6002061A16901F1640014
:101E500000F0AEF8804608F001000028CFD0606C9A
:101E6000A8B3A16901F1640000F0A2F8804621E066
:101E7000082E02D1A06B077808E0102E02D1A06BCB
:101E8000078803E0202E01D1A06B0768A16901F14A
:101E90006800394600F08FF8A06B00EBE600A06305
:101EA000606CA0EBE6006064A16901F1640000F0E1
:101EB0007FF8804608F0080010B9606C0028D7D180
:101EC000A16901F16000594600F075F81CE0FFE7D8
:101ED000A26902F17000216B00F06DF8A16901F1B7
:101EE000280000F065F820F004000090A16901F1DD
:101EF0002800009900F05FF80020A0644FF4906182
:101F0000D4E91330226C984705F0800028B10022F4
:101F10004FF49161D4E91330984705F4807028B1EB
:101F2000002240F28941D4E91330984705F00200BD
:101F300060B1D4E91001A0EB010AE068401CE06048
:101F4000524640F28741D4E91330984705F020000B
:101F500060B1D4E91001A0EB010AA068401CA060A8
:101F6000524640F28241D4E91330984705F0080008
:101F700060B1D4E91001A0EB010A6068401C606008
:101F8000524640F28141D4E91330984705F400509D
:101F900060B1D4E91001A0EB010A6068401C6060E8
:101FA000524640F28A41D4E91330984700BFD8E640
:101FB000014608687047024611607047040000201F
:101FC000F04A00002DE9FC5F04464FF0000AD346BA
:101FD000A06A10B10020BDE8FC9FA16901F160007A
:101FE00000F036F9074647F00501A26902F16000EA
:101FF00000F031F9A16901F11C00002100F02BF97A
:1020000094F82D5000268FE000200190A16901F185
:10201000640000F01DF981461DE0082D02D100206A
:10202000019009E0102D03D14FF40850019003E016
:10203000202D01D189480190019A9119A26902F1DC
:10204000680000F008F90AEBE50AA16901F16400F3
:1020500000F0FEF8814609F008000028DDD0A169F3
:1020600001F1600000F0F4F820F4807747F00201FD
:10207000A26902F1600000F0EEF800BFA16901F171
:10208000200000F0E5F8814609F004000028F5D0B2
:10209000A16901F1200000F0DBF840F0040000909D
:1020A000A16901F12000009900F0D5F8A16901F1C2
:1020B000640000F0CDF8814628E0A16901F16C00D0
:1020C00000F0C6F88046082D05D108F0FF00B042A8
:1020D00014D011207FE7102D08D11FFA88F106F5E2
:1020E000085080B2814209D0112074E7202D05D11B
:1020F0005A483044804501D011206CE70BEBE50BCA
:10210000A16901F1640000F0A3F8814609F0010023
:102110000028D2D047F4807727F00201A26902F1AB
:10212000600000F098F8761C042EFFF46DAFDA45DD
:1021300001D011204FE700204DE770B504461CB1D7
:1021400000204749086008E075214648FEF77EF800
:10215000012043490860002070BDE069B0F1113FE3
:1021600003D100203E49086008E076213D48FEF793
:102170006DF801203A4908600020EDE794F8580016
:10218000012801D10020E7E72046FFF7FEF994F887
:102190005800B0B1A16901F1600000F059F805469E
:1021A000B5F5C07F01D00E20D6E7A16901F164002A
:1021B00000F04EF8054605F00500052801D00E2078
:1021C000CAE7A16901F1600000F042F80546B5F5E3
:1021D000C07F01D00E20BFE7A16901F1640000F0CB
:1021E00037F8054605F00500052801D00E20B3E7B5
:1021F000A16901F1700000F02BF80546206BA842A0
:1022000001D00E20A8E7606A88B1A16901F17400CD
:1022100000F01EF805460DB10E209DE7A16901F101
:10222000780000F015F805460DB10E2094E794F8FB
:102230002E0008B100208FE72046FFF7C3FE0646B8
:102240000EB1304688E72046FFF79FF9002083E76C
:10225000014608687047024611607047005500AAA1
:10226000040000203C4B000010B502460020002175
:102270000CE0C1EBC103164C34F82330934204D177
:10228000C1EBC10304EB830002E0491C0529F0D334
:1022900000BF10BD70B505460E461DB100200D49AA
:1022A000086008E08A210C48FDF7D0FF01200949A9
:1022B0000860002070BD3046FFF7D6FF04460CB919
:1022C0000220F7E7214628466268FFF79BF9F1E70D
:1022D0006400002004000020904B000070B504460C
:1022E0000D4640F2BF11EB48FDF7B0FF0120EA496F
:1022F000086070BD70B504460E4615461CB100203E
:10230000E549086008E08F21E248FDF79FFF0120C2
:10231000E1490860002070BD002060620021E16298
:10232000A1622063A16361634FF011302062E56117
:10233000DA48E0636064E16901F10C00002100F01B
:10234000A5F9204600F041FB0020E4E72DE9F0412B
:1023500004460025E16901F1080000F094F9C6B2D5
:10236000E16901F1080000F08EF9C6B2E16901F1FE
:102370000C00002100F08AF937460CE0626A515DDA
:10238000E269101D00F082F96D1CE16901F108009D
:1023900000F079F9C6B206F0080010B9E06AA84268
:1023A000ECD8606A28446062E06A411BE162A06880
:1023B0002844A06007F01007E16901F10C003946DC
:1023C00000F064F92846BDE8F0812DE9F0410446AB
:1023D0000E4615461CB10020AF49086009E0DE2119
:1023E000AC48FDF733FF0120AB4908600020BDE891
:1023F000F0811EB10020A849086008E0DF21A5484F
:10240000FDF724FF0120A44908600020EFE7206ABF
:10241000B0F1113F03D100209F49086008E0E0219E
:102420009C48FDF713FF01209B4908600020DEE770
:10243000002D03DB00209849086008E0E121954861
:10244000FDF704FF0120944908600020CFE7E1690F
:1024500001F1080000F017F90746E16901F10C00ED
:10246000002100F013F9A562E562666207F010072B
:10247000E16901F10C00394600F008F92046FFF748
:1024800065FF80464046B2E72DE9F041044600254D
:10249000E16901F1080000F0F6F8C7B2E16901F165
:1024A0000C00002100F0F2F824E0E16901F10800DD
:1024B00000F0E9F8C6B206F00100D0B1E06900F022
:1024C000E2F8C2B228466D1C236B1A5406F02000B5
:1024D00010B12069401C206106F0800010B16069D5
:1024E000401C606106F0400020B1A069401CA06162
:1024F00000E002E0A06BA842D7D800BF206B2844C0
:102500002063A06B411BA163E0682844E06007F0F2
:102510001007E16901F10C00394600F0B7F82846D0
:10252000BDE8F0812DE9F04104460E4615461CB188
:102530000020594908600AE040F231115548FDF782
:1025400085FE0120544908600020BDE8F0811EB1DD
:1025500000205149086009E04FF499714D48FDF79A
:1025600075FE01204C4908600020EEE7206AB0F1BA
:10257000113F03D100204849086009E040F23311BF
:102580004448FDF763FE0120434908600020DCE772
:10259000002D03DB00204049086009E04FF49A71E8
:1025A0003C48FDF753FE01203B4908600020CCE782
:1025B000E16901F1080000F066F80746E16901F100
:1025C0000C00002100F062F86563A563266307F044
:1025D0001007E16901F10C00394600F057F8204678
:1025E000FFF752FF80464046AFE770B504461CB186
:1025F00000202949086008E04FF4B7712548FDF72D
:1026000025FE01202449086070BD206AB0F1113F09
:1026100003D100202049086008E040F26F111D48F6
:10262000FDF714FE01201C490860EDE7E16901F1A6
:10263000080000F028F8054605F0100545F00301F4
:10264000E26902F10C0000F021F800BFDCE770B590
:1026500004461CB100201049086009E040F29911BD
:102660000C48FDF7F3FD01200B490860002070BD08
:10267000E16901F1080000F006F8054600BF0120FD
:1026800020EA9500F3E701460868704702461160AA
:1026900070470000E04B000004000020DD22000035
:1026A00070B504460D4616461CB100207E490860F0
:1026B00007E068217D48FDF7C9FD01207A490860DF
:1026C00070BD1DB100207849086007E06921774896
:1026D000FDF7BCFD012074490860F1E7206AB0F104
:1026E000113F03D100207049086007E06A216F485C
:1026F000FDF7ACFD01206C490860E1E7E563266465
:1027000000BFDDE770B504460D4616461CB100203B
:102710006549086007E089216448FDF797FD0120BD
:102720006149086070BD1DB100205F49086007E085
:102730008A215E48FDF78AFD01205B490860F1E7C8
:10274000206AB0F1113F03D100205749086007E02B
:102750008B215648FDF77AFD012053490860E1E7D7
:102760006564A66400BFDDE770B50446E06A38B969
:10277000A56A0021A1622946D4E91120904702E010
:102780002046FFF7E3FD2068401C206070BD70B557
:102790000446A06B10B12046FFF776FEA06B28B967
:1027A000D4E90D53E91AD4E90F2090476068401C22
:1027B000606070BD70B504461CB100203A490860E5
:1027C00007E0A6213948FDF741FD012036490860A0
:1027D00070BDE16901F10800056800BF05F0030064
:1027E00010B12046FFF7D3FF05F0040020B1A06A26
:1027F00010B12046FFF7B8FF00BFE9E710B5044667
:102800001CB100202849086008E040F22511274843
:10281000FDF71CFD01202449086010BD206AB0F1BD
:10282000113F03D100202049086008E04FF4937164
:102830001E48FDF70BFD01201B490860EDE7E1692B
:1028400001F10C00002100F02BF800BFE5E710B506
:1028500004461CB100201449086008E040F243110E
:102860001248FDF7F3FC01200F49086010BD206AF3
:10287000B0F1113F03D100200B49086008E04FF48C
:10288000A2710A48FDF7E2FC012007490860EDE764
:10289000E16901F10C00102100F002F800BFE5E74A
:1028A000024611607047000004000020344C000014
:1028B00000BF00BF826802F00802082AF9D0021D9A
:1028C0001346196000BF7047014600BF00BF88680B
:1028D00000F001000028F9D000BF0868C0B27047BE
:1028E0000246002000210AE0164B03EB01131B886F
:1028F000934203D1134B03EB011002E0491C002962
:10290000F2D000BF704770B505460E461DB10020DD
:102910000D49086008E085210C48FDF797FC01206F
:1029200009490860002070BD3046FFF7D9FF044612
:102930000CB90220F7E7214628466268FFF7DAFC67
:10294000F1E70000F0000020040000208C4C0000A3
:1029500070B504460D461CB100203049086007E000
:1029600060212F48FDF772FC01202C49086070BDE2
:102970001DB100202949086007E061212848FDF7C2
:1029800065FC012025490860F1E7206AB0F1113F9C
:1029900003D100202149086007E062212048FDF7AB
:1029A00055FC01201D490860E1E720682860606847
:1029B0006860A068A860E068E86020692861A06994
:1029C000A8616069686100BFD1E710B504461CB119
:1029D00000201249086007E083211148FDF736FC0A
:1029E00001200E49086010BD206AB0F1113F03D1EB
:1029F00000200A49086007E084210948FDF726FC09
:102A0000012006490860EEE7002020606060A060B9
:102A1000E0602061A061606100BFE4E70400002085
:102A2000E84C000070B505460C461DB10020FA497F
:102A3000086008E040F21621F848FDF707FC012085
:102A4000F549086070BD022C03DA0020F2490860E5
:102A500008E040F21721F148FDF7F8FB0120EE49AC
:102A60000860EFE700BFEDE770B504460E46154677
:102A70001CB10020E849086007E07221E748FDF733
:102A8000E5FB0120E449086070BD1EB10020E24969
:102A9000086007E07321E148FDF7D8FB0120DE491B
:102AA0000860F1E71DB10020DB49086007E07421F0
:102AB000DA48FDF7CBFB0120D7490860E4E70020A6
:102AC000606196E8070084E8070065602561D448E6
:102AD000206264620020E0604FF01130606100BF4E
:102AE000D2E77CB5044605261CB10020CA4908601F
:102AF00008E09721C948FDF7A9FB0120C6490860F5
:102B000000207CBD6069B0F1113F03D10020C249B3
:102B1000086008E09821C148FDF798FB0120BE49F4
:102B200008600020EDE7A0690090E06901900025B1
:102B300020E05DF82500B0F1223F00D118E0B94A4D
:102B4000525D21691144081D002100F021FAB54AA7
:102B5000525D216988184FF4907100F019FAB14A5A
:102B6000525D21698818002100F012FA002600BF8A
:102B7000681CC5B2022DDCDB3046C2E770B50546E5
:102B80000E461DB10020A449086008E0CF21A348EB
:102B9000FDF75CFB0120A0490860002070BDA8691A
:102BA000B0F1223F05D1E869B0F1223F01D1052003
:102BB000F4E7304600F0B8FB04460CB90220EDE71C
:102BC000214628466268FFF74FFF2846FFF789FF36
:102BD000E4E770B504460D461CB100208E4908603C
:102BE00007E0FE218D48FDF731FB01208A4908608E
:102BF00070BD022D03DA00208749086007E0FF213D
:102C00008648FDF723FB012083490860F0E76069EF
:102C1000B0F1113F03D100207F49086008E04FF474
:102C200080717E48FDF712FB01207B490860DFE7D9
:102C30007C4A525D2169881800F0A7F90646794A56
:102C4000525D21698818202100F0A2F91DB94FF0CA
:102C50002230A06102E04FF02230E061714B5B5DF9
:102C60002269D01846F0800100F092F900BFBFE75A
:102C700070B504460D461CB100206749086008E0A5
:102C800040F23F116548FDF7E1FA01206249086012
:102C900070BD022D03DA00205F49086008E04FF4A0
:102CA000A0715E48FDF7D2FA01205B490860EFE7AA
:102CB0006069B0F1113F03D100205749086008E076
:102CC00040F241115548FDF7C1FA01205249086010
:102CD000DEE7544A525D2169881800F056F906462D
:102CE00026F080064F4A525D21698818314600F06F
:102CF0004FF915B90020A06101E00020E06100BF9C
:102D0000C6E770B504460D461CB100204249086074
:102D100009E04FF4B9714148FDF798FA01203E49A6
:102D20000860002070BD022D03DA00203A490860D7
:102D300009E040F273113948FDF788FA012036495D
:102D400008600020EEE76069B0F1113F03D1002078
:102D50003149086009E04FF4BA713048FDF776FA5E
:102D600001202D4908600020DCE72E4A525D2169D0
:102D7000114401F1080000F008F9D3E770B50446EA
:102D80000D4616461CB100202349086008E04FF4A8
:102D9000C9712248FDF75AFA01201F49086070BD29
:102DA000022D03DA00201C49086008E040F293116C
:102DB0001A48FDF74BFA012017490860EFE76069F0
:102DC000B0F1113F03D100201349086008E04FF42F
:102DD000CA711248FDF73AFA01200F490860DEE790
:102DE000104A525D21691144081D314600F0D0F8A7
:102DF00000BFD4E770B504460D461CB1002006495B
:102E0000086011E04FF4D7710448FDF71FFA012064
:102E100001490860002070BD04000020444D0000FE
:102E2000252A00000C010020022D03DA00205A4957
:102E3000086009E040F2AF115848FDF707FA012099
:102E4000554908600020E6E76069B0F1113F03D101
:102E500000205149086009E04FF4D8714F48FDF750
:102E6000F5F901204C4908600020D4E74C4A525D36
:102E700021691144081D00F088F8CCE770B50446BC
:102E80000D461CB100204449086008E040F2CB1117
:102E90004248FDF7DBF901203F49086070BD022D73
:102EA00003DA00203C49086008E04FF4E6713B4833
:102EB000FDF7CCF9012038490860EFE76069B0F10F
:102EC000113F03D100203449086008E040F2CD11E1
:102ED0003248FDF7BBF901202F490860DEE7304A90
:102EE000525D2169881800F050F806462C4B5B5D56
:102EF0002269D01846F0200100F04AF8284A525DB5
:102F000021698818314600F043F800BFC6E770B564
:102F100004460D461CB100201F49086009E04FF42B
:102F2000FC711E48FDF792F901201B490860002042
:102F300070BD022D03DA00201749086009E040F255
:102F4000F9111648FDF782F90120134908600020A5
:102F5000EEE76069B0F1113F03D100200E4908602F
:102F600009E04FF4FD710D48FDF770F901200A49A1
:102F700008600020DCE70A4A525D2169881800F0E9
:102F800004F80646C6F30020D2E7014608687047F9
:102F9000024611607047000004000020444D00000C
:102FA0000C01002070B504460D4616461CB10020E9
:102FB0004149086007E064214048FDF747F90120D6
:102FC0003D49086070BD1DB100203B49086007E025
:102FD00065213A48FDF73AF9012037490860F1E7E1
:102FE0006069B0F1113F03D100203349086007E068
:102FF00066213248FDF72AF901202F490860E1E7F0
:103000002562666200BFDDE72DE9F0410746002436
:103010001FB100202849086008E083212748FDF7F8
:1030200015F9012024490860BDE8F0813C460025DF
:103030003AE0234A525D2169881801680E4606F07D
:10304000400070B306F4807058B3E068401CE06044
:103050002946D4E908209047194A525D2169881809
:1030600001680E4606F0100098B906F0010080B91C
:1030700026F08006124B5B5D2269D01846F02001D5
:1030800000F016F80E4A525D21698818314600F0AA
:103090000FF80B4B5B5D2269D01846F4807100F08D
:1030A00007F8681CC0B20546022DC2DB00BFBBE7B3
:1030B000024611607047000004000020944D00009B
:1030C0000C0100202DE9F04106460F4690460025F0
:1030D0001EB100204D49086008E085214C48FDF7ED
:1030E000B5F8012049490860BDE8F081022F03DAF4
:1030F00000204649086007E086214548FDF7A6F80C
:10310000012042490860EFE77069B0F1113F03D137
:1031100000203E49086007E087213D48FDF796F80A
:1031200001203A490860DFE7002411E0394850F8EF
:10313000340000EA080028B1364800EBC4004068BB
:10314000054304E0334800EBC40040688543641C39
:10315000072CEBD3304AD25D3169881801460D60E7
:1031600000BF00BFC0E72DE9F04105460E4600272D
:103170001DB100202549086009E0C0212448FDF761
:1031800065F80120214908600020BDE8F081022E89
:1031900003DA00201D49086008E0C1211C48FDF742
:1031A00055F80120194908600020EEE76869B0F180
:1031B000113F03D100201549086008E0C2211448DE
:1031C000FDF744F80120114908600020DDE7124AAC
:1031D000925D29698818D0F8008000BF002410E0B3
:1031E0000C4800EBC400406800EA080020B1094820
:1031F00050F83400074303E0064850F83400874392
:10320000641C072CECD33846BFE700000400002004
:10321000E84D0000100100200C0100202DE9F041D4
:1032200004460D4600260027B0461CB100203B494D
:10323000086009E068213A48FDF708F8012037499D
:1032400008600020BDE8F081022D03DA0020334938
:10325000086008E069213248FCF7F8FF01202F4997
:1032600008600020EEE76069B0F1113F03D1002053
:103270002A49086008E06A212948FCF7E7FF012095
:10328000264908600020DDE7264A525D2169114485
:10329000081D002100F03EF8224A525D216988187D
:1032A0004FF4907100F036F81E4A525D216988187B
:1032B000802100F02FF81B4A525D2169114401F171
:1032C000080001680E4600BF164A525D216911448C
:1032D00001F1080001680F4608F1010080B2804644
:1032E000BE4202D1B8F1000FEED10E4A525D216903
:1032F00088184FF4907100F00DF80A4A525D216968
:103300008818002100F006F8BE4201D1012099E79B
:10331000002097E70246116070470000040000207B
:10332000404E00000C01002010B502460020002194
:103330000DE001EB4103084C34F82330934204D1F3
:1033400001EB410304EB830003E04B1C99B200291D
:10335000EFD000BF10BD0000000100200FB41CB56D
:10336000074B06AA7B4469460090059800F0E9FBEC
:103370000020694600F0F8FB1CBC5DF814FB00005F
:103380000108000070B50C460546012A05D02878D2
:10339000800600D5EA69002302E0012305E05B1CFA
:1033A000934202D2E05C0028F9D1A869E618C01A5D
:1033B000A861286A184428622846AFF3008004E018
:1033C000D5E9012114F8010B9047B442F8D32846FF
:1033D000AFF3008070BD00002DE9F04106460024E7
:1033E00010687529314616A510D0AFF3008000286B
:1033F00002DA404213A507E031688A0701D512A519
:1034000002E0490704D511A5012401E0AFF30080D3
:1034100000210A2206F1240709E0B0FBF2FCB0FB10
:10342000F2F302FB1C00303078541846491C002887
:10343000F3D123462A463046BDE8F04100F014B9E6
:10344000000000002D0000002B0000002000000004
:1034500070B504460D4621461068AFF30080218800
:10346000090502D50F4A7A4402E00E4A7A440E3228
:10347000002104F1240305E000F00F060009965D29
:103480005E54491C0028F7D120780023000704D59A
:10349000702D02D009B1022311322046BDE87040E0
:1034A00000F0E2B8DA1400002DE9F0474FF0000A0E
:1034B00089460446C0F820A02046E16888470028D5
:1034C00076D0252806D0D4E901219047206A401CF7
:1034D0002062F1E7E168204600258847C4F81CA077
:1034E00006460027C4F818A02A2E09D0304601F05D
:1034F000A8F838B304EB8708303EC8F8186019E024
:1035000059F8041B204604EB87029161E168884763
:10351000012F064618D1E069002820DA25F02005A1
:103520001DE0D8F8180000EB800006EB40003038B2
:10353000C8F818002046E1688847064601F081F87F
:103540000028EED1012F0AD02E2E08D12046E168A6
:1035500088477F1C0646022F45F02005C4DBA06982
:10356000002803DA404245F00105A061E80701D0D8
:1035700025F01005B6B1A6F14100192802D8203671
:1035800045F400654A463146204625604D46FCF725
:10359000F1FD58B1012806D0ED1D25F0070000F11E
:1035A000080989E704E005F1040985E730468AE760
:1035B000206ABDE8F08740EA0103024630B59B0768
:1035C00010D14FF0013400E008C208C91D1B9D4313
:1035D00015EAC41FF8D013F0FF0102F8011B0DD04B
:1035E0001B0AF8E711F8013B002B02F8013B05D05C
:1035F00011F8013B002B02F8013BF3D130BD10B5AF
:10360000203AC0F00B80B1E81850203AA0E81850DA
:10361000B1E81850A0E81850BFF4F5AF5FEA027C9B
:1036200024BFB1E81850A0E8185044BF18C918C00A
:10363000BDE810405FEA827C24BF51F8043B40F8AB
:10364000043B08BF7047D20728BF31F8023B48BF90
:1036500011F8012B28BF20F8023B48BF00F8012BCE
:1036600070477047704770472DE9F0470D469946FF
:103670009246044600F124080168880604D5E069F2
:1036800021F01001216000E00120A84201DD471B6C
:1036900000E00027A1697A1902EB0900081AA0616D
:1036A0002078C00602D42046AFF30080002608E050
:1036B000D4E901211AF806009047206A401C761CC4
:1036C00020624E45F4DB2078C0060AD52046AFF3D1
:1036D000008006E0D4E9012130209047206A401C98
:1036E0002062381EA7F10107F4DC07E0D4E90121CC
:1036F00018F805009047206A401C2062281EA5F19A
:103700000105F3DC2046AFF300802078000602D5E7
:103710000220BDE8F0870120FBE770472DE9FF4F4D
:103720000C461E464FF0FF378BB0D2E90001DDF8A2
:1037300060800A908A46C1F30A5505B93D460021CA
:1037400008464FF00000BAF1000F00F4400005DA1F
:1037500000EB80004FF4400101EA50004FEA90591D
:10376000B9F1010F00DDB9460A9850EA4A000ED0BF
:1037700044F61050A5F2FF3545432F14B8F1000F61
:103780001ED07542291E1EDDC9F100021CE0B8F1F1
:10379000010F4FF0000001D0302103E0F24305E0BB
:1037A0002154401CB042FBDB304600220021215452
:1037B0000B99C1F80880C1E900200FB0BDE8F08F77
:1037C000BD1B6D1CDEE74A4600DA694206A800F020
:1037D00071FA06AB93E8070003AB83E80700504695
:1037E0000A9900F052FB8DE80700A0F500501F3841
:1037F00000900398002D0ADD42F21F014A4608445A
:10380000002303A90390684600F0BBFD09E0A0F582
:1038100000504A461F38002303A90390684600F071
:10382000C5FD8DE807000004000C03D04FF0FF3009
:10383000410800E01046B8F1000F03D000220092CA
:1038400015461EE0751E05D400F0AEF93032625503
:103850006D1EF9D5B3460122084302D000227F1C19
:1038600004E02078302801D100227F1E002A099729
:1038700084D01DE0112D07DA00F096F93032625540
:103880006D1C50EA0102F5D1084302D00098C8B17E
:103890000EE00021681E05E0235C625C6354225444
:1038A000401E491C8142F7DBAB46A81B401E099015
:1038B000002004F80B000B98099AC0F80880C0E9B2
:1038C000002B7AE711264FF0000857E72DE9F04F5B
:1038D00088460446D21D22F0070191B0D1E90001CB
:1038E000CDE90A0100F099FE02460B98C00F01D005
:1038F0002D2007E02068810701D52B2002E0202140
:1039000001EAC000032A099001D0072A05DB03461B
:103910004146204600F08EF90BE12078800601D563
:10392000E06900E00620B8F1650F814606D0B8F1E5
:10393000660F18D0B8F1670F70D131E00020B9F1EF
:10394000110F009001DB112301E009F101030AAA24
:1039500001A90CA8FFF7E2FEDDE90C70002609F1D1
:103960000105834647E001204B4600904FF0004799
:103970000AAA01A90CA8FFF7D1FEDDE90DB00C9948
:103980005D46002610B909F101000D18B9EB0500DC
:1039900003D4C0F1FF3609F10105A5EB09002BE0C6
:1039A000B9F1010F01DA4FF001090020B9F1110F4F
:1039B0000090484601DD112300E003460AAA01A950
:1039C0000CA8FFF7ABFEDDE90C704D4600268346E0
:1039D000207800070AD4AB4500DA5D4601A8012D26
:1039E00004DD411911F8011C302907D04F4502DAD6
:1039F00017F1040F04DA012082460FE06D1EEEE796
:103A0000002F02DCED1B3E4403E0781CA84200DDE1
:103A10007D1CB81B00F1010A4FF000472078000719
:103A200003D4AA4501DB4FF0FF3A0021B7F1004F64
:103A30000DF143088DF8431024D002202B23002FD2
:103A400001DA7F422D230A21021EA0F1010000DCD1
:103A50005FB197FBF1FC97FBF1F201FB1C7C174671
:103A60000CF1300C08F801CDEEE7A8F1010003706D
:103A70002188090501D5452100E06521A0F1010853
:103A800000F8011C09980FA9A1EB0807FF1D00B160
:103A90000120411901EBEA70A1693844081A401E5F
:103AA000A0612078C00602D42046AFF300800998B8
:103AB00028B1D4E901219047206A401C2062207877
:103AC000C00622D52046AFF300801EE0002E04DBA6
:103AD000B34502DD01A8805D00E03020D4E901217A
:103AE0009047206A401C2062761CAAF101005FEA20
:103AF000000A0AD100F054F8C0680168405CD4E9BB
:103B000001219047206A401C2062281EA5F1010572
:103B1000DCDC07E0D4E9012118F8010B9047206AAA
:103B2000401C2062381EA7F10107F3DC2046AFF3EA
:103B30000080032011B041E601694A1C0261087847
:103B4000704700B58FB0CDE90131002105910549DD
:103B50007944CDE9031011466846FFF7A5FC0FB084
:103B600000BD0000E5FFFFFF0A6802F8010B0A60D4
:103B7000704710B5436913B1AFF3008001E0FFF760
:103B800001FC012010BD127800F124010A7000220E
:103B90004A700122EDE711684FF0FF32E9E70000BB
:103BA00000487047D408002030B5B0F10A024FEA4F
:103BB000900E71F100034EEA817EB0EB0E0061EBD6
:103BC00091014FEA101E4EEA017E10EB0E0041EB10
:103BD00011114FEA102E4EEA016E10EB0E0041EB70
:103BE00011214FEA104E4EEA014E10EB0E0041EB50
:103BF0001141401841F100014FEAD00040EA417004
:103C00004FEAD10110EB80054FEA810444EA907439
:103C100044EB01046D1944EB0404521BA3414FF023
:103C2000000348BF0A3200D530BD401C41F10001FD
:103C300030BD00002DE9F0411F460446032601680F
:103C4000072A01F4006004DB08B116A505E016A5FB
:103C500003E008B115A500E015A521F010002060D3
:103C6000A069C01EA0610FB1401EA0612046AFF345
:103C700000804FB1D4E9012138469047206A401CAA
:103C80002062C01C206206E0206AFAE7D4E9012124
:103C900015F8010B9047761EF8D22046AFF300804E
:103CA000BDE8F0814E414E006E616E00494E460007
:103CB000696E66002DE9F047814616468AB03548A0
:103CC00078440DC88DE80D0032487844801C03AC60
:103CD0000DC884E80D0041F69B300844372190FB65
:103CE000F1F290FBF1F5A5F1800501FB12041B3CFC
:103CF00002D56442012000E00020DFF898A0804651
:103D00000027FA44AAF1BE0A0EE0E0070AD03246C4
:103D1000684607EB470101230AEB810100F046FBEF
:103D20008DE8070064107F1C002CEED1194F7F44F2
:103D3000AE3F19E0E80715D007EB04100DF1180AA3
:103D400090E80E008AE80E00C068F04201D1981990
:103D500008903246012306A903A800F027FB03AB15
:103D600083E807006D10641C002DE3D14FF00103C0
:103D700032466946B8F1000F03A802D000F001FBFB
:103D800001E000F013FBC9E90001C9F808200AB0FE
:103D9000BDE8F087240D000000487047B4080020FB
:103DA0007546FFF7F9FFAE4605006946534620F019
:103DB0000700854618B020B5FCF720FABDE8204082
:103DC0004FF000064FF000074FF000084FF0000BD7
:103DD00021F00701AC46ACE8C009ACE8C009ACE88A
:103DE000C009ACE8C0098D46704710B50446AFF372
:103DF00000802046BDE81040FCF7DFB94FF0013CE1
:103E000050F8042B51F8043B9A4221D1A2EB0C0349
:103E1000934313EACC1317D150F8042B51F8043B09
:103E20009A4215D1A2EB0C03934313EACC130BD1A6
:103E300050F8042B51F8043B9A4209D1A2EB0C0331
:103E4000934313EACC13DBD04FF00000704700BF60
:103E5000D01A01BAB1FA81F101F0180122FA01F089
:103E6000CB40C1F12001DBB2C0B2C01A2CFA01F381
:103E7000D11A914311EAC311E6D1704701491820C4
:103E8000ABBEFEE72600020070475FEA400C08BFA9
:103E900091F0000F4FEA8C234FEAC12243EA5151BF
:103EA0004FEA1C5018BF00F5F0404FEA300018BF31
:103EB00041F000415FEA6C5C00F02980BCF1FF3FFB
:103EC00008BF40F080407047130C06BF12044FF04B
:103ED000100C4FF0000C130E04BF12020CF1080C72
:103EE000130F04BF12010CF1040C930F04BF9200D6
:103EF0000CF1020CD30F04BF52000CF1010C11465F
:103F00004FF00002A0F11F00A0EB0C00704711F071
:103F1000004F08BF704731F000413FF4D5AF0B0CA4
:103F200006BF09044FF0100C4FF0000C0B0E04BF3D
:103F300009020CF1080C0B0F04BF09010CF1040C71
:103F40008B0F04BF89000CF1020CCB0F04BF49009A
:103F50000CF1010CCCF12003A0EB0C0022FA03F3CE
:103F600002FA0CF241EA030100F10100704720F06F
:103F70007F4C80EA030023F07F47ACEB070303F597
:103F80007C5300F0004003F1FF032DE980494FEA24
:103F9000154B09B44FEA144325EA0B4E24EA0348B3
:103FA0000FF2042606EB132749083E785FEA320237
:103FB00003FB0667C7F5000707FB06F64FEA543711
:103FC0004FEAD64606F1020607FB066CCCF1005C10
:103FD0004FEA1C472CEA074C07FB06F40CFB06F5DE
:103FE00004EB15464FEA961634BF00204FF0004010
:103FF0004FEAD13706FB07FC4FEA1C4C0CFB0BF7D2
:10400000D21B03FB0CF761EB07010CFB0EF7B0EBC7
:10401000074072EB17420CFB08F734BFA2EB0742D4
:10402000B2EB074261EB17414FEA0C444FEA9107AC
:1040300006FB07FC4FEA1C4C0CFB0BF7B0EBC74030
:1040400072EB573203FB0CF734BFA2EBC742B2EB63
:10405000C74261EB57310CFB0EF7B0EBC70072EBB8
:1040600057720CFB08F734BFA2EBC702B2EBC702D2
:1040700061EB5771039F4FEA816141EA921104EBB2
:10408000CC044FEAD1374FEA826206FB07FC42EAD2
:1040900090124FEA80604FEA1C4C0CFB0BF7D21BCE
:1040A00003FB0CF761EB07010CFB0EF7B0EB0740CD
:1040B00072EB17420CFB08F734BFA2EB0742B2EBDE
:1040C000074261EB17414FEA8C554FEA910704EB29
:1040D0009C2406FB07FC4FEA1C4C0CFB0BF7B0EBD7
:1040E000C74072EB573203FB0CF734BFA2EBC74259
:1040F000B2EBC74261EB57310CFB0EF7B0EBC700D8
:1041000072EB57720CFB08F734BFA2EBC702B2EB9D
:10411000C70261EB577115EB4C254FEA816141EA0B
:1041200092114FEA82624FEAD13742EA901206FBBF
:1041300007FC44F100044FEA80604FEA1C4C0CFB82
:104140000BF7D21B03FB0CF761EB07010CFB0EF71F
:10415000B0EB074072EB17420CFB08F734BFA2EB41
:104160000742B2EB074261EB174115EB1C154FEA12
:10417000813141EA92414FEA823242EA90424FEA6B
:1041800080304FEA0C7644F1000448EA03434EEADB
:104190000B484FF0000EB2EB080C71EB030724BF85
:1041A000624639464EEB0E0E4FF0000B001852419E
:1041B00049414BEB0B0BB2EB080C71EB03077BF1A6
:1041C000000B24BF624639464EEB0E0E4FF0000B3B
:1041D0000018524149414BEB0B0BB2EB080C71EB51
:1041E00003077BF1000B24BF624639464EEB0E0EEF
:1041F00051EA020718BF46F0010616EB0E7655F19C
:10420000000254F1000103D5BDE88901BDE8008832
:10421000BDE88901BDE80048B619524141EB0101F2
:10422000A3F10103704780807F7E7D7C7B7A797863
:10423000777676757473727171706F6E6E6D6C6C6B
:104240006B6A6A696868676666656464636362610D
:104250006160605F5F5E5E5D5D5C5C5B5B5A5A598E
:1042600059585857575656555555545453535252FA
:104270005251515050504F4F4F4E4E4D4D4D4C4C52
:104280004C4B4B4B4A4A4A4949494848484747479B
:1042900047464646454545444444444343434342D8
:1042A000424242414141002B9C4630D477002BD002
:1042B0001CB54FEA370703B44FF010004FF0100160
:1042C000BAF1000F06D0BCF1000FDCBF40F00800CF
:1042D00040F008014FF000000FBCBDE810400BF1AA
:1042E000010BBBF1010F08BF5FEA170722BF12F1F4
:1042F000010211F101014FF0004143F1000300F010
:10430000004043EA00007047F9D35708D0E746EA77
:10431000064613F1400F4FEA16461FDD13F1200F3A
:10432000DFBF16430A46002120335B42BED0C3F1F3
:10433000200746EA064602FA07F74FEA164646EA1B
:104340000706C3F1200722FA03F201FA07F721FA60
:1043500003F14FF0000342EA0702A7E746EA02062C
:1043600046EA06464FEA164646EA0106BCBF46EA5A
:104370000646360C4FF000034FF000024FF00001EC
:1043800094E72DE9804C9A46934670B491E8380042
:1043900007C831EA400C48BF34EA430C03D5FFF7A5
:1043A000E6FDFFF780FFF0BCBDE8008C2DE9804CF6
:1043B0009A46934670B491E8380007C810F0804FD1
:1043C00008BF13F0804F03D100F005F8FFF76BFF33
:1043D000F0BCBDE8008C20F07F4780EA030023F0AA
:1043E0007F4C07EB0C03A3F57C5300F00040A3F1D6
:1043F000FE0392F0000F00F0B38095F0000F00F084
:1044000077802DE901494FEA11404FEA144621EA2D
:10441000004800FB06FC24EA064708FB06F607FBFB
:1044200008F800FB07F718EB06484CEB164C4FEA70
:10443000124B18EB07484FEA15464CEB174022EA9F
:104440000B4E0BFB06FC25EA06470EFB06F607FBA8
:104450000EFE0BFB07F71EEB064E4CEB164C4FF017
:1044600000061EEB074E4CEB174B18EB0B0840F108
:10447000000018EB0E0B58EB000840F100008F1AFB
:104480004FF000013CBFC943661B14BFB5EB040CE1
:1044900000213CBFC943F61B4FEA17444EEA8E0E7B
:1044A00027EA04454FEA1C4704FB07622CEA074C45
:1044B00005FB07F70CFB05F604FB0CFC16EB0746A7
:1044C00042EB174216EB0C4642EB1C421BEB060676
:1044D00058EB0202414146EA9E0601D5BDE801893A
:1044E000B619524141EB0101A3F10103BDE8018975
:1044F0004FEA14454FEA114724EA054621EA074CE2
:1045000005FB07F406FB07F70CFB06F105FB0CFCAB
:1045100011EB074144EB17444FEA124711EB0C41F2
:1045200044EB1C4422EA074C05FB07F206FB07F7A5
:104530000CFB06F605FB0CFC16EB074642EB17429C
:1045400016EB0C4642EB1C456A1854F1000148BFBB
:104550007047B619524141EB0101A3F101037047C5
:1045600095F0000F37D04FEA11424FEA144721EA85
:10457000024624EA074C02FB07F106FB07F70CFB97
:1045800006F402FB0CFC14EB074441EB17414FEA25
:10459000154714EB0C4441EB1C4125EA074C02FB88
:1045A00007F506FB07F70CFB06F602FB0CFC16EB07
:1045B000074645EB174516EB0C4645EB1C42121916
:1045C00051F1000148BF7047B619524141EB01015A
:1045D000A3F1010370474FEA14454FEA114724EA5B
:1045E000054621EA074C05FB07F106FB07F70CFB24
:1045F00006F24FF0000605FB0CFC12EB074241EB04
:10460000174112EB0C4251EB1C4148BF7047921806
:1046100041EB0101A3F101037047490050EAC120B9
:1046200018BF04204A0D18BF40F0010040F2FF728D
:10463000B2EB515F08BF40F00200012808BF05201F
:10464000704730380A2801D2012070470020704797
:1046500010B500290AD00878002807D0054878440A
:10466000FFF7CCFB002801D0002010BD02487844A1
:1046700010BD00005A080000520800000808A0F50C
:1046800000114FEA3101704743004FEAD30C4FEA63
:104690003C0C43401FBF40070CF1605113F0FE4F2C
:1046A00070471CF0006F03D100200CF000417047F0
:1046B0000CF0004343EA507010B540EACC0000F023
:1046C000E4F800BF000000924FEA0001FFF7D6BFF8
:1046D0004FF000414FF00000A1F5002170470000AD
:1046E0004FF47F0C1CEAD0121EBF1CEAD11392EAD1
:1046F0000C0F93EA0C0F00F0858090EA010F48BF81
:1047000042F4807240F4000C41F400002CF07F4130
:1047100020F07F4000B58142A2EB03020FF2081C9B
:10472000ACEB504EC0F100009EF800E04FEA4E0E98
:1047300000FB0EFC38BF49004FEA2C1C02F5FA02C0
:104740000CFB0EF34FEACE1E4FEA112C4FEAC121AB
:104750000EEB635E42EB22420EFB0CFC4FEA1C5355
:1047600000FB03114FEA112C4FEA01310EFB0CFC48
:104770004FEADC4C00FB0C11C14228BF09184CEB7E
:1047800003335DF804EB10EB410143EBC250B2F58B
:104790007C0F38BF704729D512F0F00F1CBF00F115
:1047A000C04000F000407047008182838485868786
:1047B00088898B8C8D8E8F919293959697999A9CE0
:1047C0009D9FA0A2A3A5A7A8AAACAEB0B2B3B5B74F
:1047D000B9BCBEC0C2C5C7C9CCCED1D4D7D9DCDF25
:1047E000E2E6E9ECF0F3F7FAFE0000004FEA400CD5
:1047F0000CF1807CBCF17E4F28BF7047B0F1C04007
:1048000000F089B890EA010F0CEAD11348BF42F4D6
:104810008072624538BF634507D213F47F0F16D00C
:1048200080EA010000F00040704710B500F02DF85C
:10483000097EFC3E00F005B880EA010000F000406F
:10484000704780EA010000F0004000F064B812F404
:104850007F0F04BF0248704780EA010000F05BB898
:104860000000C07FB0FA80F310FA03F2C3F19D0399
:104870000AD0D90501EB1220530638BF704700F16A
:10488000010008BF20F0010070470EF1020E2EF06B
:10489000030E5EF8044B244204D44FEA4102B2F105
:1048A0007F4F11D84FEA4003B3F17F4F0CD80ED1A0
:1048B0004FEAD07CB2F17F4F0CEB4C0C0CF1020CA8
:1048C00008BF4CEBD17C04E04FF0080C01E04FEA4C
:1048D000D17C0CEB4C0324FA03F404F00704B4F18C
:1048E000040C06D20EEB840CBDE810404CF0010C19
:1048F0006047DFE80CF0070802024FF00040A0F527
:10490000800010BD0846420018BFD2F1807288BFF7
:1049100000F0004010BDFF2141EAD050C0057047B3
:10492000FEF7D4BF67452301EFCDAB89EFBEADDE07
:10493000EDDAEBFEA53CF0A521436587A90BDCFE73
:1049400008040201303132333435363738394142C8
:1049500043444546403058003031323334353637E1
:104960003839616263646566403078000240000057
:10497000000000A00000000005400000000000C88A
:10498000000000000C4000000000409C00000000FF
:10499000194000000020BCBE0000000034400000B0
:1049A000BFC91B8E00000004B5400000504BCFD0A3
:1049B0006607E2CF010000006C4100003E8251AA70
:1049C000DFEEA73401000000D9420000DCB5A0E210
:1049D0003A301F97FFFFFFFFB4450000FD25A0C838
:1049E000E9A3C14FFFFFFFFFFF3F00000000008071
:1049F00000000000FF3F00000000008000000000F9
:104A00002E2E5C73646B5F776F726B73706163657E
:104A10005C7374616E64616C6F6E655F6273705F0E
:104A2000305C436F727465785F4D335F305C6C69E6
:104A3000627372635C6770696F5F76345F335C7357
:104A400072635C786770696F2E6300002E2E5C7352
:104A5000646B5F776F726B73706163655C737461B5
:104A60006E64616C6F6E655F6273705F305C436F24
:104A7000727465785F4D335F305C6C69627372632A
:104A80005C6770696F5F76345F335C7372635C7808
:104A90006770696F5F696E74722E63002E2E5C738F
:104AA000646B5F776F726B73706163655C73746165
:104AB0006E64616C6F6E655F6273705F305C436FD4
:104AC000727465785F4D335F305C6C6962737263DA
:104AD0005C6770696F5F76345F335C7372635C78B8
:104AE0006770696F5F73696E69742E630000000000
:104AF0002E2E5C73646B5F776F726B73706163658E
:104B00005C7374616E64616C6F6E655F6273705F1D
:104B1000305C436F727465785F4D335F305C6C69F5
:104B2000627372635C7370695F76345F345C737256
:104B3000635C787370692E63000000002E2E5C7336
:104B4000646B5F776F726B73706163655C737461C4
:104B50006E64616C6F6E655F6273705F305C436F33
:104B6000727465785F4D335F305C6C696273726339
:104B70005C7370695F76345F345C7372635C787306
:104B800070695F73656C66746573742E63000000F2
:104B90002E2E5C73646B5F776F726B7370616365ED
:104BA0005C7374616E64616C6F6E655F6273705F7D
:104BB000305C436F727465785F4D335F305C6C6955
:104BC000627372635C7370695F76345F345C7372B6
:104BD000635C787370695F73696E69742E6300003B
:104BE0002E2E5C73646B5F776F726B73706163659D
:104BF0005C7374616E64616C6F6E655F6273705F2D
:104C0000305C436F727465785F4D335F305C6C6904
:104C1000627372635C756172746C6974655F76331C
:104C20005F325C7372635C78756172746C69746511
:104C30002E6300002E2E5C73646B5F776F726B7354
:104C4000706163655C7374616E64616C6F6E655FE7
:104C50006273705F305C436F727465785F4D335F71
:104C6000305C6C69627372635C756172746C6974D8
:104C7000655F76335F325C7372635C787561727402
:104C80006C6974655F696E74722E63002E2E5C739E
:104C9000646B5F776F726B73706163655C73746173
:104CA0006E64616C6F6E655F6273705F305C436FE2
:104CB000727465785F4D335F305C6C6962737263E8
:104CC0005C756172746C6974655F76335F325C73B6
:104CD00072635C78756172746C6974655F73696E18
:104CE00069742E63000000002E2E5C73646B5F7786
:104CF0006F726B73706163655C7374616E64616C19
:104D00006F6E655F6273705F305C436F727465785D
:104D10005F4D335F305C6C69627372635C756172A6
:104D2000746C6974655F76335F325C7372635C7850
:104D3000756172746C6974655F73746174732E63EA
:104D4000000000002E2E5C73646B5F776F726B73D4
:104D5000706163655C7374616E64616C6F6E655FD6
:104D60006273705F305C436F727465785F4D335F60
:104D7000305C6C69627372635C746D726374725FD1
:104D800076345F345C7372635C78746D72637472D2
:104D90002E6300002E2E5C73646B5F776F726B73F3
:104DA000706163655C7374616E64616C6F6E655F86
:104DB0006273705F305C436F727465785F4D335F10
:104DC000305C6C69627372635C746D726374725F81
:104DD00076345F345C7372635C78746D7263747282
:104DE0005F696E74722E63002E2E5C73646B5F7746
:104DF0006F726B73706163655C7374616E64616C18
:104E00006F6E655F6273705F305C436F727465785C
:104E10005F4D335F305C6C69627372635C746D729A
:104E20006374725F76345F345C7372635C78746D44
:104E3000726374725F6F7074696F6E732E630000BB
:104E40002E2E5C73646B5F776F726B73706163653A
:104E50005C7374616E64616C6F6E655F6273705FCA
:104E6000305C436F727465785F4D335F305C6C69A2
:104E7000627372635C746D726374725F76345F34F4
:104E80005C7372635C78746D726374725F73656C6B
:104E900066746573742E6300D44E00000000002019
:104EA00048010000FC000000444F000048010020C1
:104EB000D0170000580100001C0000004300000053
:104EC000F8FFFFFF0C0000000E0000000F000000C4
:104ED0002E0000004540787D013905710215142B24
:104EE0001140246904217A121052027A04105203EC
:104EF000E301403A1320391A4A083289780A13022A
:104F00001C490A9A031CA1496411A93879C85204A2
:104F10007BA0441C0210101310402AC21E695117B6
:104F2000C04180F0FA0219284280191739BD194989
:104F30005A208829435A0932291C29642914291C1A
:044F4000290C000038
:04000005000001E115
:00000001FF
