:020000040000FA
:1000000030160020890100009101000093010000DA
:100010009501000097010000990100000000000018
:100020000000000000000000000000009B01000034
:100030009D010000000000009F0100002902000057
:100040007B0C0000070800002D080000A30B000037
:10005000AD0B0000B70B0000C10B00008F040000C7
:10006000A3010000A3010000A3010000A301000000
:10007000A3010000A3010000A3010000A3010000F0
:10008000A3010000A3010000A3010000A3010000E0
:10009000A3010000A3010000A3010000A3010000D0
:1000A000A3010000A3010000A3010000A3010000C0
:1000B000A3010000A3010000A3010000A3010000B0
:1000C00000F002F800F045F80AA090E8000C824425
:1000D0008344AAF10107DA4501D100F03AF8AFF202
:1000E000090EBAE80F0013F0010F18BFFB1A43F016
:1000F00001031847182B0000382B0000103A24BFCA
:1001000078C878C1FAD8520724BF30C830C144BF7C
:1001100004680C60704700000023002400250026BE
:10012000103A28BF78C1FBD8520728BF30C148BF5A
:100130000B607047692902F04582782902F07E82BF
:10014000732902F08883002070471FB51FBD10B5CA
:1001500010BD02F084FB1146FFF7F7FF00F06AF8CC
:1001600002F0A2FB03B4FFF7F2FF03BC02F0AAFB0C
:100170000348044908607047014802490860704715
:1001800040787D0100000020094880470948004769
:10019000FEE7FEE7FEE7FEE7FEE7FEE7FEE7FEE737
:1001A000FEE7FEE704480549054A064B7047000094
:1001B00079010000C1000000300600203016002048
:1001C000301200203012002010B5044621460248AB
:1001D00002F0CCF810BD00000000104010B504463D
:1001E00003E02078FFF7F0FF641C20780028F8D1A6
:1001F00010BD000070B504460D460948006820B1E6
:1002000029462046064A1268904700BF0548006804
:100210000028FBD170BD024908607047704700009C
:100220000C00002008000020A9480068401CA849D4
:1002300008607047D4B04FF0C046A6481390A6A1FE
:1002400003C9CDE90B01A6A103C9CDE9090120220B
:10025000A54901A802F042FA00F0E2FC00BF4FF00D
:10026000FF30A249086000BF00F06AFA8146B9F188
:10027000000F02D09EA0FFF7B1FF012000F013F99C
:10028000022000F010F900F0AEFA002000F00BF9A7
:1002900000F0EEFC072000F011F9072093498039A7
:1002A000420951F8221001228240114009B1012176
:1002B00000E000210F4600BF384600F027FB8146D2
:1002C000B9F1000F02D095A0FFF788FF00F03BFBCB
:1002D0001398006812901298C0F3035B1298C0F351
:1002E0000B18129800F00F0AA8F6214010B102284E
:1002F0000AD104E097A10DA802F0CCF90AE098A178
:100300000DA802F0C7F905E0424698A10DA802F039
:10031000E7F800BF00BF53460DAA97A114A8CDF877
:1003200000B002F0DDF89DA0FFF758FF14A8FFF71A
:1003300055FFA4A0FFF752FF1FB1ACA0FFF74EFF7F
:1003400002E0B3A0FFF74AFFB9A0FFF747FFC6A03E
:10035000FFF744FF91A0FFF741FF002404E001A84C
:1003600050F8240001C6641C082CF8D300254FF077
:10037000C046002407E002CE01A850F824008142C4
:1003800000D06D1C641C082CF5D31DB1BAA0FFF77A
:1003900025FF02E0C1A0FFF721FF00F0DDFA0022F7
:1003A00008210BA800F0FEFA0022082109A800F09D
:1003B0003EFB0025002407E009A8005D0BA9095DAC
:1003C000884200D06D1C641C082CF5D31DB1B9A067
:1003D000FFF704FF02E0C1A0FFF700FFC648006876
:1003E0004FF4FA72B0FBF2F1481EB0F1807F01D3F6
:1003F000012021E0481E4FF0E022506150170322F7
:1004000000280BDA93074FEA136E324B183300F0D3
:100410000F0CACF1040C03F80CE005E093074FEA75
:10042000136CB64B03F800C000BF00204FF0E02271
:100430009061072010610020B149086008460068FB
:1004400010B1B0A0FFF7CAFE20E021480068B0F567
:100450007A7F0BD1B4A0FFF7C1FE40F2E9301C490E
:1004600008600F220121B24800F0F9FC184800682A
:10047000B0F5FA6F0AD1AFA0FFF7B0FE0020144923
:10048000086000220121AA4800F0E9FCDDE710B570
:10049000072001218140154A430942F8231000BF7B
:1004A00000F00CF810BD00F01F020121914042093C
:1004B000920002F1E022C2F80011704700F01F0222
:1004C000012191409D4A430942F8231070470000E2
:1004D0001000002000ED00E00123456789ABCDEF5F
:1004E000FFFFFFFFFFFFFFFFD428000080E200E0D6
:1004F0004572726F72202D2058696C696E782047A2
:1005000050494F206661696C656420746F20696E84
:10051000697469616C6973650A0000004572726FE5
:1005200072202D2058696C696E78205350492063E1
:100530006F6E74726F6C6C657273206661696C6546
:100540006420746F20696E697469616C6973650AEF
:1005500000000000436F727465782D4D310000007B
:10056000436F727465782D4D33000000556E6B6ECD
:100570006F776E202578000041726D202573205220
:1005800065766973696F6E202569205661726961AD
:100590006E742025690D0A0A000000002A2A2A2A02
:1005A0002A2A2A2A2A2A2A2A2A2A2A2A2A2A2A2AAB
:1005B0002A2A2A2A2A2A2A2A2A2A2A2A2A2A2A2A9B
:1005C0000D0A00004578616D706C65206465736983
:1005D000676E20666F7220446967696C656E74206F
:1005E000413720626F6172640D0A00000A5632437F
:1005F0002D4441504C696E6B20626F617264206EB5
:100600006F742064657465637465640D0A0000008E
:100610000A5632432D4441504C696E6B20626F6123
:1006200072642064657465637465640D0A0000007B
:100630005573652044495020737769746368657306
:1006400020616E64207075736820627574746F6EBB
:100650007320746F0D0A636F6E74726F6C204C455B
:1006600044530D0A000000002056657273696F6ED6
:1006700020312E320D0A00004552524F52202D20BB
:100680004272616D20726561646261636B20636FA9
:10069000727275707465642E0D0A00004272616D8D
:1006A00020726561646261636B20636F727265635F
:1006B000740D0A004552524F52202D20426173653D
:1006C0002053504920726561646261636B20636FDF
:1006D000727275707465642E0D0A00004261736554
:1006E0002053504920726561646261636B20636FBF
:1006F00072726563740D0A000000002000E400E0DF
:10070000140000204572726F7220616C20636F6E5E
:100710006669677572617220656C205379735469DC
:10072000636B200D0A0000004120460D0A00000006
:10073000E40000204120300D0A00000080E100E0CC
:1007400010B500216B4800F08AFD04460CB1012071
:1007500010BD0121684800F082FD04460CB1012063
:10076000F6E70221654800F07AFD04460CB101204D
:10077000EEE70321624800F072FD04460CB101204F
:10078000E6E76FF00F0201215A4800F0ABFA4FF094
:10079000FF320221574800F0A5FA5A4A0121564873
:1007A00000F0A0FA4FF0FF320221534800F09AFA0D
:1007B00000220121514800F095FA002201214E4803
:1007C00000F04DFB002201214A4800F048FB0022C6
:1007D00001214B4800F086FA00220121484800F030
:1007E0003EFB0020B4E710B50221434800F0EBFBCC
:1007F0000221404800F0E7FB3F4800F077FB3D480E
:1008000000F074FB10BD08B502213A4800F0E8FA88
:10081000009001213748009A00F021FB0321354860
:1008200000F04DFC012000F05CF808BD7CB5022111
:10083000314800F0D5FA002836D002212E4800F0C9
:10084000CFFA019001212C4800F0CAFA00900198DB
:1008500000F0010010B10724012516E0019800F016
:10086000020010B1382408250FE0019800F00400C0
:1008700018B14FF4E074402507E0019800F008003B
:1008800018B14FF460644FF40075009800EA040654
:10089000701900EA04060098A0433043009001213B
:1008A0001548009A00F0DBFA0321134800F007FC1A
:1008B000022000F016F87CBD10B504462246012146
:1008C0000E4800F0CCFA10BD08B50221094800F02E
:1008D00087FA0090009A521C0121064800F0BFFAE6
:1008E00008BD00F01F0201219140074A430942F868
:1008F00023107047F40000200401002014010020A0
:10090000E400002000F0FFFF80E200E070B5054643
:100910000021B54801F01CFA04460CB1012070BD5D
:10092000B14800F0E2FCB04800F0D7FDAE4989695B
:1009300001F11C00002100F054F90121AA4801F046
:1009400010F80020EBE710B5A749896901F11C00F8
:10095000002100F046F910BD70B5A349896901F185
:10096000600000F03BF9054645F004019E4A92699B
:1009700002F1600000F035F906209C49087001235F
:100980000022994800F039FE044605209749087076
:10099000FF2048700223964A934800F02EFE04463A
:1009A000204670BD2DE9F04707460D4616468E4994
:1009B000896901F1600000F011F9804648F00401F6
:1009C000894A926902F1600000F00BF90DB1FC2D2B
:1009D00002D90120BDE8F087062084490870012370
:1009E0000022814800F009FE814602207F490870FC
:1009F000300C4870300A8870CE70002405E017F87B
:100A0000011B201D794A1154641CAC42F7D32B1DE5
:100A100000227649744800F0F0FD8146002400E091
:100A2000641C44F620608442FAD34846D2E72DE99C
:100A3000F04707460D4616466B49896901F160008B
:100A400000F0CCF8804648F00401674A926902F150
:100A5000600000F0C6F80DB1FC2D02D90120BDE800
:100A6000F087032061490870300C4870300A8870A4
:100A7000CE70002404E00021201D5C4A1154641C47
:100A8000AC42F8D32B1D5A4A5849574800F0B5FDDF
:100A90008146002405E05649201D085C07F8010B3B
:100AA000641CAC42F7D34846D9E72DE9F04F93B028
:100AB00007468846002012904B4890F82D4020466B
:100AC000E11704EB5171CD102346424649A102A81B
:100AD000009501F005FD02A8FFF780FB42498969F6
:100AE00001F1600000F07AF883464BF004013E4AC1
:100AF000926902F1600000F074F84FF0000A17E00C
:100B00003949896901F1640000F068F8064606F089
:100B1000080060B997F800902F443349896901F1C2
:100B20006800494600F05DF8129828441290AA44E3
:100B3000C245E5D32C49896901F17000002100F01C
:100B400050F82949896901F1600000F047F820F464
:100B5000807B4BF00201244A926902F1600000F0B0
:100B600040F800BF2049896901F1200000F036F803
:100B7000064606F004000028F4D01B49896901F1FB
:100B8000200000F02BF840F004001749019089691B
:100B900001F12000019900F024F8129813B0BDE88B
:100BA000F08F10B5032000F010F810BD10B5042030
:100BB00000F00BF810BD10B5052000F006F810BDD0
:100BC00010B5062000F001F810BD00F01F02012151
:100BD00091400F4A430942F82310704701460868C4
:100BE00070470246116070472401002080010020F8
:100BF000800200206C656E2025692C2057696420D6
:100C000025692C20696E63722025690D0A00000099
:100C100080E200E01F4A116070471F4A1160704770
:100C200010B500211D4801F0CCFB04460CB1012099
:100C300010BD1A4AAFF21D01104601F0C1FA174A61
:100C4000AFF22F01104601F089FA4FF48072144977
:100C5000124801F0C5F90020EAE70E490968114A77
:100C60001268881A18B10B4909680E4A116070475A
:100C700010B50A4801F049FB10BD10B5074801F056
:100C8000F7FA002001218140074A430942F8231066
:100C900000BF10BD180000201C00002080030020B1
:100CA000CC0400202000002080E200E070B5044663
:100CB0000D4616461CB100208A49086008E07D21D7
:100CC0008948FFF797FA012086490860002070BD27
:100CD0002660A868A060E868E0604FF011306060AE
:100CE0000020F4E770B504460D4616461CB10020FE
:100CF0007C49086007E0A2217B48FFF77BFA0120CE
:100D00007849086070BD6068B0F1113F03D10020E0
:100D10007449086007E0A3217348FFF76BFA0120CC
:100D200070490860EEE7012D04D0022D06D1E0687D
:100D3000012803D100206B49086007E0A4216A481C
:100D4000FFF758FA012067490860DBE7691E0423B2
:100D500003EBC10122685018314600F0BFF800BF14
:100D6000D0E770B504460D461CB100205D4908600F
:100D700008E0C0215C48FFF73DFA012059490860AE
:100D8000002070BD6068B0F1113F03D100205549CB
:100D9000086008E0C1215448FFF72CFA01205149AE
:100DA00008600020EDE7012D04D0022D06D1E06897
:100DB000012803D100204B49086008E0C2214A48BD
:100DC000FFF718FA0120474908600020D9E7691E9B
:100DD000042303EBC1012268501801680846D0E7DC
:100DE00070B504460D461CB100203E49086008E07D
:100DF000DA213D48FFF7FEF901203A49086000205A
:100E000070BD6068B0F1113F03D100203549086022
:100E100008E0DB213448FFF7EDF901203149086093
:100E20000020EDE7012D04D0022D06D1E068012855
:100E300003D100202B49086008E0DC212A48FFF795
:100E4000D9F90120274908600020D9E7691E00234D
:100E500003EBC1012268501801680846D0E770B55D
:100E600004460D4616461CB100201E49086007E0E6
:100E7000F6211D48FFF7BEF901201A49086070BD30
:100E80006068B0F1113F03D100201649086007E007
:100E9000F7211548FFF7AEF9012012490860EEE787
:100EA000012D04D0022D06D1E068012803D10020D5
:100EB0000C49086007E0F8210B48FFF79BF9012077
:100EC00008490860DBE7691E002303EBC1012268C3
:100ED0005018314600F002F800BFD0E7024611601A
:100EE00070470000040000201C29000010B50446D3
:100EF0001CB10020CE49086007E05F21CD48FFF714
:100F000079F90120CA49086010BD6068B0F1113F4D
:100F100003D10020C649086007E06021C548FFF7FB
:100F200069F90120C2490860EEE7A068012803D1F1
:100F30000020BF49086007E06121BE48FFF75AF969
:100F40000120BB490860DFE7216801F58E704FF092
:100F5000004100F069F900BFD6E710B504461CB1A6
:100F60000020B349086007E07A21B248FFF742F950
:100F70000120AF49086010BD6068B0F1113F03D196
:100F80000020AB49086007E07B21AA48FFF732F94F
:100F90000120A7490860EEE7A068012803D10020DE
:100FA000A349086007E07C21A248FFF723F901204C
:100FB0009F490860DFE7216801F58E70002100F08D
:100FC00033F900BFD7E770B504460D461CB10020C9
:100FD0009749086007E098219648FFF70BF9012030
:100FE0009349086070BD6068B0F1113F03D10020E3
:100FF0008F49086007E099218E48FFF7FBF8012030
:101000008B490860EEE7A068012803D100208849D9
:10101000086007E09A218748FFF7ECF8012084492F
:101020000860DFE7216801F5947000F0FAF80646E1
:1010300046EA0501226802F5947000F0F5F800BF59
:10104000D0E770B504460D461CB100207849086011
:1010500007E0BC217748FFF7CDF80120744908600C
:1010600070BD6068B0F1113F03D100207049086085
:1010700007E0BD216F48FFF7BDF801206C4908600B
:10108000EEE7A068012803D100206949086007E065
:10109000BE216848FFF7AEF8012065490860DFE728
:1010A000216801F5947000F0BCF8064626EA0501B7
:1010B000226802F5947000F0B7F800BFD0E770B571
:1010C00004460D461CB100205949086007E0DF21A5
:1010D0005848FFF78FF801205549086070BD6068D7
:1010E000B0F1113F03D100205149086007E0E02131
:1010F0005048FFF77FF801204D490860EEE7A068EF
:10110000012803D100204A49086007E0E12149484D
:10111000FFF770F8012046490860DFE7216801F514
:10112000907000F07EF8064606EA0501226802F596
:10113000907000F079F800BFD0E710B504461CB1FC
:1011400000203B49086009E04FF481713948FFF7FE
:1011500051F8012036490860002010BD6068B0F1E8
:10116000113F03D100203249086009E040F2031129
:101170003048FFF73FF801202D4908600020ECE7D8
:10118000A068012803D100202949086009E04FF434
:1011900082712848FFF72EF80120254908600020B9
:1011A000DBE7216801F5947000F03BF8D5E710B556
:1011B00004461CB100201E49086009E040F21F11DE
:1011C0001C48FFF717F8012019490860002010BDDE
:1011D0006068B0F1113F03D100201549086009E0B3
:1011E0004FF490711348FFF705F80120104908608B
:1011F0000020ECE7A068012803D100200C4908601A
:1012000009E040F221110B48FEF7F4FF01200849E4
:1012100008600020DBE7216801F5907000F001F81C
:10122000D5E7014608687047024611607047000024
:1012300004000020682900000246002000210AE086
:10124000174B03EB01131B88934203D1144B03EBA1
:10125000011002E0491C0429F2DB00BF704770B5A1
:1012600005460E461DB100200E49086008E08F219A
:101270000D48FEF7BFFF01200A490860002070BD3D
:101280003046FFF7D9FF04461CB9002068600220F1
:10129000F5E7214628466268FFF708FDEFE7000002
:1012A0002400002004000020B829000070B5044686
:1012B000A26902F17000216B00F02DFDA16901F11E
:1012C000600000F025FD85B245F48075606A08B1C4
:1012D00045F06005A16901F16000294600F01BFDA1
:1012E000002060642064A06470BD10B504461CB189
:1012F0000020FE49086008E040F2B711FC48FEF704
:1013000079FF0120F949086010BDE069B0F1113F93
:1013100003D10020F549086008E04FF4DC71F4487F
:10132000FEF768FF0120F1490860EDE72046FFF76E
:10133000BDFF00202062206B6063A16901F14000C5
:101340000A2100F0E8FC00BFDEE770B504460D4658
:10135000164640F21B41E648FEF74CFF0120E349E8
:10136000086070BD2DE9F84304460D4690461CB157
:101370000020DE49086009E0AD21DD48FEF73AFFB4
:101380000120DA4908600020BDE8F883206AB0F146
:10139000223F01D10520F7E700202062A064D54854
:1013A000E0640020A063E06320646064C4F81880F7
:1013B000A8686062E868A062287C84F82C00687CD9
:1013C00018B9082084F82D0002E0687C84F82D000C
:1013D000A87C84F82E0068696065287E84F858002F
:1013E0004FF01130E06194F82C1001208840401E2D
:1013F0002063206B6063002020606060A060E0607C
:1014000020616061687E012862D1A16901F16000FC
:1014100000F07EFC064646F06606A16901F1600018
:10142000314600F078FC9F208DF8000000208DF8F8
:1014300001008DF802009DF80010A26902F1680019
:1014400000F069FC9DF80110A26902F1680000F04B
:1014500062FC9DF80210A26902F1680000F05BFCDA
:10146000A16901F1600000F053FC064626F4807685
:10147000A16901F16000314600F04DFCA16901F164
:10148000600000F045FC064646F48076A16901F153
:101490006000314600F03FFCA16901F1640000F0FA
:1014A00037FC074607F0010020B9A16901F16C0083
:1014B00000F02EFCA16901F1640000F029FC074650
:1014C00007F0010020B9A16901F16C0000F020FCD7
:1014D0002046FFF70AFF002056E770B504461CB10E
:1014E00000208249086009E040F239118048FEF787
:1014F00081FE01207D490860002070BDE069B0F1E7
:10150000113F03D100207949086009E04FF49D7133
:101510007748FEF76FFE0120744908600020ECE771
:10152000206AB0F1223F01D10520E6E7A16901F16F
:10153000280000F0EDFB42F22B0140EA0106A16910
:1015400001F12800314600F0E6FB4FF02230206226
:10155000A16901F1600000F0DBFB054645F0620582
:10156000A16901F16000294600F0D5FBA16901F1F4
:101570001C004FF0004100F0CEFB0020BDE770B52D
:1015800004461CB100205949086009E040F2871167
:101590005748FEF72FFE012054490860002070BD17
:1015A000E069B0F1113F03D100205049086009E023
:1015B0004FF4C4714E48FEF71DFE01204B490860F0
:1015C0000020ECE7A06C08B11520E8E7A16901F163
:1015D0001C00002100F09FFBA16901F1600000F0F8
:1015E00097FB054625F00201A26902F1600000F0B8
:1015F00092FB0020206200BFD1E72DE9FC5F04468A
:101600008A4693461F464FF000091CB10020374917
:1016100008600AE040F22A213548FEF7EBFD012080
:10162000324908600020BDE8FC9FBAF1000F03D0EA
:1016300000202E49086009E040F22B212C48FEF7DB
:10164000D9FD0120294908600020ECE71FB10020E6
:101650002649086009E04FF40B712548FEF7CAFDE2
:101660000120224908600020DDE7E069B0F1113F68
:1016700003D100201D49086009E040F22D211C48DB
:10168000FEF7B8FD0120194908600020CBE7206A69
:10169000B0F1223F01D00620C5E7A06C08B11520AB
:1016A000C1E7A16901F11C0000F032FBB0F1004F6D
:1016B00001D1012000E000200190A16901F11C008E
:1016C000002100F028FBA16901F1600000F020FB7F
:1016D000064606F00400D0B106F00100B8B9D4E91E
:1016E0000C10884213D10198012805E00400002065
:1016F0000C2A00004B13000006D1A16901F11C0067
:101700004FF0004100F007FB40F283408BE70120DF
:10171000A064C4F838A0C4F83CB02764676494F8A7
:101720002D50A16901F1640000F0F2FA804624E036
:10173000082D03D1A06B90F800900AE0102D03D182
:10174000A06BB0F8009004E0202D02D1A06BD0F87F
:101750000090A16901F16800494600F0DCFAA06B35
:1017600000EBE500A063606CA0EBE5006064A1699C
:1017700001F1640000F0CCFA804608F0080010B9CE
:10178000606C0028D4D1A26902F17000616B00F096
:10179000C2FAA16901F1600000F0BAFA064626F427
:1017A0008076A16901F16000314600F0B4FA019839
:1017B000012815D1A16901F1280000F0A9FA40F033
:1017C00004000090A16901F12800009900F0A3FA3B
:1017D000A16901F11C004FF0004100F09CFABEE04D
:1017E000A5E000BFA16901F1200000F091FA804658
:1017F00008F004000028F5D0A16901F1200000F0F4
:1018000087FA40F004000090A16901F120000099DE
:1018100000F081FAA16901F1600000F079FA064652
:1018200046F48071A26902F1600000F074FAA169C7
:1018300001F1640000F06CFA804630E0A16901F12A
:101840006C0000F065FA8146082D07D1E06BD0B13D
:10185000E26B501CE06382F8009014E0102D08D178
:10186000E06B80B1E16BA1F80090E06B801CE0635D
:1018700009E0202D07D1E06B28B1E06BC0F80090A3
:10188000E06B001DE063206900EBE5002061A7EB41
:10189000E507A16901F1640000F03AFA804608F01A
:1018A00001000028CAD0606CF0B3A16901F16400A6
:1018B00000F02EFA804624E0082D03D1A06B90F8AA
:1018C00000900AE0102D03D1A06BB0F8009004E066
:1018D000202D02D1A06BD0F80090A16901F1680021
:1018E000494600F018FAA06B00EBE500A063606CBD
:1018F000A0EBE5006064A16901F1640000F008FA62
:10190000804608F0080010B9606C0028D4D1A169A5
:1019100001F1600000F0FCF9064626F48076A1692A
:1019200001F16000314600E001E000F0F4F9002F21
:101930007FF457AFA16901F1600000F0E9F90646B4
:1019400046F48071A26902F1600000F0E4F9A26936
:1019500002F17000216B00F0DEF90020A06400208D
:1019600061E62DE9F04104460E461CB10020EB492A
:1019700008600AE04FF46071E948FEF73BFC012083
:10198000E64908600020BDE8F081E069B0F1113F50
:1019900003D10020E149086009E040F28131E048CC
:1019A000FEF728FC0120DD4908600020EBE7A06C71
:1019B00008B11520E7E7002794F82C00451E06E043
:1019C00026FA05F000F0010000B17F1C6D1E002D0D
:1019D000F6DA012F02DD40F28440D4E7F043606381
:1019E0000020D0E710B504461CB10020CB490860A8
:1019F00009E040F2BF31CA48FEF7FCFB0120C749AD
:101A00000860002010BDE069B0F1113F03D1002053
:101A1000C249086009E04FF47071C148FEF7EAFB63
:101A20000120BE4908600020ECE7606BC043E9E795
:101A300070B504460E4615461CB10020B749086033
:101A400008E040F2FD31B648FEF7D4FB0120B3496F
:101A5000086070BD1DB10020B049086008E040F288
:101A6000FE31AF48FEF7C6FB0120AC490860F0E745
:101A7000E069B0F1113F03D10020A849086008E0F7
:101A800040F2FF31A648FEF7B5FB0120A3490860EC
:101A9000DFE7E564266500BFDBE72DE9F84F814607
:101AA0004C460027B9F1000F03D000209B49086085
:101AB00009E040F25A419A48FEF79CFB0120974901
:101AC0000860BDE8F88F6069401C6061A16901F1A0
:101AD000200000F01DF90546A16901F1200000F089
:101AE00017F928430090A16901F12000009900F046
:101AF00012F905F00100A8B1D4E91001A0EB010A28
:101B00002068401C20602046FFF7D0FBA16901F14E
:101B1000640000F0FDF8524640F27F41D4E91330F2
:101B20009847CEE794F82D6005F0040018B905F049
:101B3000400000287AD0A16901F1600000F0E8F8C7
:101B400083464BF48071A26902F1600000F0E3F873
:101B5000A16901F1640000F0DBF880462BE0A16987
:101B600001F16C0000F0D4F80746082E06D1E06BB6
:101B7000B8B1E26B501CE063177012E0102E07D171
:101B8000E06B70B1E16B0F80E06B801CE06308E0FC
:101B9000202E06D1E06B20B1E06B0760E06B001DEA
:101BA000E063206900EBE6002061A16901F16400B7
:101BB00000F0AEF8804608F001000028CFD0606C3D
:101BC000A8B3A16901F1640000F0A2F8804621E009
:101BD000082E02D1A06B077808E0102E02D1A06B6E
:101BE000078803E0202E01D1A06B0768A16901F1ED
:101BF0006800394600F08FF8A06B00EBE600A063A8
:101C0000606CA0EBE6006064A16901F1640000F083
:101C10007FF8804608F0080010B9606C0028D7D122
:101C2000A16901F16000594600F075F81CE0FFE77A
:101C3000A26902F17000216B00F06DF8A16901F159
:101C4000280000F065F820F004000090A16901F17F
:101C50002800009900F05FF80020A0644FF4906124
:101C6000D4E91330226C984705F0800028B1002297
:101C70004FF49161D4E91330984705F4807028B18E
:101C8000002240F28941D4E91330984705F0020060
:101C900060B1D4E91001A0EB010AE068401CE060EB
:101CA000524640F28741D4E91330984705F02000AE
:101CB00060B1D4E91001A0EB010AA068401CA0604B
:101CC000524640F28241D4E91330984705F00800AB
:101CD00060B1D4E91001A0EB010A6068401C6060AB
:101CE000524640F28141D4E91330984705F4005040
:101CF00060B1D4E91001A0EB010A6068401C60608B
:101D0000524640F28A41D4E91330984700BFD8E6E2
:101D100001460868704702461160704704000020C1
:101D20000C2A000010B50246002000210CE0C1EB97
:101D3000C103164C34F82330934204D1C1EBC103E4
:101D400004EB830002E0491C0429F0D300BF10BD5E
:101D500070B505460E461DB100200D49086008E02B
:101D60008A210C48FEF746FA012009490860002044
:101D700070BD3046FFF7D6FF04460CB90220F7E7E6
:101D8000214628466268FFF7EDFAF1E7640000207B
:101D900004000020582A000070B504460D4640F2A9
:101DA000BF11EB48FEF726FA0120EA49086070BD32
:101DB00070B504460E4615461CB10020E549086082
:101DC00008E08F21E248FEF715FA0120E14908609A
:101DD000002070BD002060620021E162A1622063EA
:101DE000A16361634FF011302062E561DA48E0637E
:101DF0006064E16901F10C00002100F0A5F92046C2
:101E000000F041FB0020E4E72DE9F0410446002505
:101E1000E16901F1080000F094F9C6B2E16901F14D
:101E2000080000F08EF9C6B2E16901F10C00002152
:101E300000F08AF937460CE0626A515DE269101DD4
:101E400000F082F96D1CE16901F1080000F079F9F8
:101E5000C6B206F0080010B9E06AA842ECD8606A81
:101E600028446062E06A411BE162A0682844A060E7
:101E700007F01007E16901F10C00394600F064F940
:101E80002846BDE8F0812DE9F04104460E4615468E
:101E90001CB10020AF49086009E0DE21AC48FEF724
:101EA000A9F90120AB4908600020BDE8F0811EB10E
:101EB0000020A849086008E0DF21A548FEF79AF94C
:101EC0000120A44908600020EFE7206AB0F1113F2B
:101ED00003D100209F49086008E0E0219C48FEF7FC
:101EE00089F901209B4908600020DEE7002D03DB13
:101EF00000209849086008E0E1219548FEF77AF94A
:101F00000120944908600020CFE7E16901F1080051
:101F100000F017F90746E16901F10C00002100F01B
:101F200013F9A562E562666207F01007E16901F145
:101F30000C00394600F008F92046FFF765FF80469F
:101F40004046B2E72DE9F04104460025E16901F180
:101F5000080000F0F6F8C7B2E16901F10C000021B9
:101F600000F0F2F824E0E16901F1080000F0E9F87E
:101F7000C6B206F00100D0B1E06900F0E2F8C2B2EA
:101F800028466D1C236B1A5406F0200010B12069FE
:101F9000401C206106F0800010B16069401C606147
:101FA00006F0400020B1A069401CA06100E002E002
:101FB000A06BA842D7D800BF206B28442063A06B39
:101FC000411BA163E0682844E06007F01007E16965
:101FD00001F10C00394600F0B7F82846BDE8F08161
:101FE0002DE9F04104460E4615461CB10020594922
:101FF00008600AE040F231115548FEF7FBF8012075
:10200000544908600020BDE8F0811EB1002051490C
:10201000086009E04FF499714D48FEF7EBF8012094
:102020004C4908600020EEE7206AB0F1113F03D16F
:1020300000204849086009E040F233114448FEF7A7
:10204000D9F80120434908600020DCE7002D03DBBC
:1020500000204049086009E04FF49A713C48FEF7BF
:10206000C9F801203B4908600020CCE7E16901F193
:10207000080000F066F80746E16901F10C00002154
:1020800000F062F86563A563266307F01007E16955
:1020900001F10C00394600F057F82046FFF752FFD7
:1020A00080464046AFE770B504461CB10020294980
:1020B000086008E04FF4B7712548FEF79BF801204F
:1020C0002449086070BD206AB0F1113F03D100209F
:1020D0002049086008E040F26F111D48FEF78AF8B9
:1020E00001201C490860EDE7E16901F1080000F0FA
:1020F00028F8054605F0100545F00301E26902F1F4
:102100000C0000F021F800BFDCE770B504461CB1FC
:1021100000201049086009E040F299110C48FEF7D0
:1021200069F801200B490860002070BDE16901F1E8
:10213000080000F006F8054600BF012020EA9500DF
:10214000F3E70146086870470246116070470000D7
:10215000A82A000004000020991D000070B5044664
:102160000D4616461CB100207E49086007E0682134
:102170007D48FEF73FF801207A49086070BD1DB127
:1021800000207849086007E069217748FEF732F8B7
:10219000012074490860F1E7206AB0F1113F03D1D2
:1021A00000207049086007E06A216F48FEF722F8B6
:1021B00001206C490860E1E7E563266400BFDDE7C4
:1021C00070B504460D4616461CB1002065490860EE
:1021D00007E089216448FEF70DF801206149086095
:1021E00070BD1DB100205F49086007E08A215E488C
:1021F000FEF700F801205B490860F1E7206AB0F1C2
:10220000113F03D100205749086007E08B21564851
:10221000FDF7F0FF012053490860E1E76564A6641B
:1022200000BFDDE770B50446E06A38B9A56A002151
:10223000A1622946D4E91120904702E02046FFF729
:10224000E3FD2068401C206070BD70B50446A06BA3
:1022500010B12046FFF776FEA06B28B9D4E90D53E4
:10226000E91AD4E90F2090476068401C606070BD97
:1022700070B504461CB100203A49086007E0A62169
:102280003948FDF7B7FF01203649086070BDE169A4
:1022900001F10800056800BF05F0030010B12046F9
:1022A000FFF7D3FF05F0040020B1A06A10B120466B
:1022B000FFF7B8FF00BFE9E710B504461CB10020E6
:1022C0002849086008E040F225112748FDF792FFF1
:1022D00001202449086010BD206AB0F1113F03D1EC
:1022E00000202049086008E04FF493711E48FDF774
:1022F00081FF01201B490860EDE7E16901F10C0055
:10230000002100F02BF800BFE5E710B504461CB132
:1023100000201449086008E040F243111248FDF71C
:1023200069FF01200F49086010BD206AB0F1113F1C
:1023300003D100200B49086008E04FF4A2710A485D
:10234000FDF758FF012007490860EDE7E16901F159
:102350000C00102100F002F800BFE5E70246116012
:102360007047000004000020FC2A000000BF00BFEE
:10237000826802F00802082AF9D0021D134619608B
:1023800000BF7047014600BF00BF886800F0010031
:102390000028F9D000BF0868C0B27047024600208C
:1023A00000210AE0164B03EB01131B88934203D173
:1023B000134B03EB011002E0491C0029F2D000BFCF
:1023C000704770B505460E461DB100200D490860E6
:1023D00008E085210C48FDF70DFF01200949086040
:1023E000002070BD3046FFF7D9FF04460CB902202B
:1023F000F7E7214628466268FFF7DAFCF1E70000BC
:10240000D400002004000020542B000070B50446C6
:102410000D461CB100203049086007E060212F48BC
:10242000FDF7E8FE01202C49086070BD1DB10020B9
:102430002949086007E061212848FDF7DBFE0120FB
:1024400025490860F1E7206AB0F1113F03D100206F
:102450002149086007E062212048FDF7CBFE0120FA
:102460001D490860E1E72068286060686860A0682E
:10247000A860E068E86020692861A069A8616069D7
:10248000686100BFD1E710B504461CB100201249B5
:10249000086007E083211148FDF7ACFE01200E49DA
:1024A000086010BD206AB0F1113F03D100200A4935
:1024B000086007E084210948FDF79CFE01200649D9
:1024C0000860EEE7002020606060A060E0602061AE
:1024D000A061606100BFE4E704000020B02B0000B1
:1024E0000FB41CB5074B06AA7B44694600900598BB
:1024F00000F087F90020694600F096F91CBC5DF8F1
:1025000014FB00003D0300002DE9F0410E46044697
:10251000002020622046E168884730B3252805D096
:10252000D4E901219047206A401CF2E7E168204687
:1025300000278847050018D0A5F14100192802D8C6
:1025400020354FF400673246294620462760FDF7C4
:10255000F1FD40B1012804D0F61D26F0070608362B
:10256000D8E7361DD6E72846DAE7206ABDE8F081CD
:1025700070B50C460546012A05D02878800600D59E
:10258000EA69002302E0012305E05B1C934202D2CA
:10259000E05C0028F9D1A869E618C01AA861286A89
:1025A000184428622846AFF3008004E0D5E90121F1
:1025B00014F8010B9047B442F8D32846AFF30080DB
:1025C00070BD00002DE9F041064600241068752911
:1025D000314616A510D0AFF30080002802DA404241
:1025E00013A507E031688A0701D512A502E0490763
:1025F00004D511A5012401E0AFF3008000210A22D7
:1026000006F1240709E0B0FBF2FCB0FBF2F302FB99
:102610001C00303078541846491C0028F3D123465A
:102620002A463046BDE8F04100F08DB800000000B9
:102630002D0000002B0000002000000070B50446B3
:102640000D4621461068AFF300802188090502D5A8
:102650000F4A7A4402E00E4A7A440E32002104F115
:10266000240305E000F00F060009965D5E54491C46
:102670000028F7D120780023000704D5702D02D060
:1026800009B1022311322046BDE8704000F05BB86A
:102690009E02000040EA0103024630B59B0710D1BC
:1026A0004FF0013400E008C208C91D1B9D4315EA24
:1026B000C41FF8D013F0FF0102F8011B0DD01B0A54
:1026C000F8E711F8013B002B02F8013B05D011F8A7
:1026D000013B002B02F8013BF3D130BD10B5203A8D
:1026E000C0F00B80B1E81850203AA0E81850B1E8CB
:1026F0001850A0E81850BFF4F5AF5FEA027C24BF81
:10270000B1E81850A0E8185044BF18C918C0BDE877
:1027100010405FEA827C24BF51F8043B40F8043B40
:1027200008BF7047D20728BF31F8023B48BF11F8F5
:10273000012B28BF20F8023B48BF00F8012B70474F
:102740007047704770472DE9F0470D46994692460D
:10275000044600F124080168880604D5E06921F0E8
:102760001001216000E00120A84201DD471B00E0CC
:102770000027A1697A1902EB0900081AA0612078E4
:10278000C00602D42046AFF30080002608E0D4E95A
:1027900001211AF806009047206A401C761C20622E
:1027A0004E45F4DB2078C0060AD52046AFF3008002
:1027B00006E0D4E9012130209047206A401C2062C5
:1027C000381EA7F10107F4DC07E0D4E9012118F86D
:1027D00005009047206A401C2062281EA5F10105D3
:1027E000F3DC2046AFF300802078000602D50220FB
:1027F000BDE8F0870120FBE701694A1C0261087807
:10280000704700B58FB0CDE9013100210591054930
:102810007944CDE9031011466846FFF775FE0FB005
:1028200000BD0000E5FFFFFF0A6802F8010B0A6027
:10283000704710B5436913B1AFF3008001E0FFF7B3
:1028400097FE012010BD127800F124010A700022C9
:102850004A700122EDE711684FF0FF32E9E7754653
:1028600000F02CF8AE4605006946534620F00700FC
:10287000854618B020B5FDF795FCBDE820404FF027
:1028800000064FF000074FF000084FF0000B21F05A
:102890000701AC46ACE8C009ACE8C009ACE8C00927
:1028A000ACE8C0098D46704710B50446AFF3008010
:1028B0002046BDE81040FDF755BC000000487047B9
:1028C000CC05002001491820ABBEFEE7260002001F
:1028D0007047000067452301EFCDAB89EFBEADDE49
:1028E000EDDAEBFEA53CF0A521436587A90BDCFEE4
:1028F0000804020130313233343536373839414239
:102900004344454640305800303132333435363751
:102910003839616263646566403078002E2E5C73DE
:10292000646B5F776F726B73706163655C73746106
:102930006E64616C6F6E655F6273705F305C436F75
:10294000727465785F4D335F305C6C69627372637B
:102950005C6770696F5F76345F335C7372635C7859
:102960006770696F2E6300002E2E5C73646B5F7757
:102970006F726B73706163655C7374616E64616CBC
:102980006F6E655F6273705F305C436F7274657801
:102990005F4D335F305C6C69627372635C67706952
:1029A0006F5F76345F335C7372635C786770696FF6
:1029B0005F696E74722E63002E2E5C73646B5F779A
:1029C0006F726B73706163655C7374616E64616C6C
:1029D0006F6E655F6273705F305C436F72746578B1
:1029E0005F4D335F305C6C69627372635C67706902
:1029F0006F5F76345F335C7372635C786770696FA6
:102A00005F73696E69742E63000000002E2E5C7384
:102A1000646B5F776F726B73706163655C73746115
:102A20006E64616C6F6E655F6273705F305C436F84
:102A3000727465785F4D335F305C6C69627372638A
:102A40005C7370695F76345F345C7372635C787357
:102A500070692E63000000002E2E5C73646B5F773C
:102A60006F726B73706163655C7374616E64616CCB
:102A70006F6E655F6273705F305C436F7274657810
:102A80005F4D335F305C6C69627372635C73706955
:102A90005F76345F345C7372635C787370695F7304
:102AA000696E69742E6300002E2E5C73646B5F7711
:102AB0006F726B73706163655C7374616E64616C7B
:102AC0006F6E655F6273705F305C436F72746578C0
:102AD0005F4D335F305C6C69627372635C75617209
:102AE000746C6974655F76335F325C7372635C78B3
:102AF000756172746C6974652E6300002E2E5C73B0
:102B0000646B5F776F726B73706163655C73746124
:102B10006E64616C6F6E655F6273705F305C436F93
:102B2000727465785F4D335F305C6C696273726399
:102B30005C756172746C6974655F76335F325C7367
:102B400072635C78756172746C6974655F696E74C8
:102B5000722E63002E2E5C73646B5F776F726B73E3
:102B6000706163655C7374616E64616C6F6E655FE8
:102B70006273705F305C436F727465785F4D335F72
:102B8000305C6C69627372635C756172746C6974D9
:102B9000655F76335F325C7372635C787561727403
:102BA0006C6974655F73696E69742E630000000060
:102BB0002E2E5C73646B5F776F726B7370616365ED
:102BC0005C7374616E64616C6F6E655F6273705F7D
:102BD000305C436F727465785F4D335F305C6C6955
:102BE000627372635C756172746C6974655F76336D
:102BF0005F325C7372635C78756172746C69746562
:102C00005F73746174732E63000000002C2C00004D
:102C100000000020E4000000FC000000102D000077
:102C2000E40000204C1500001801000040787D01F0
:102C30000000000001000000000000000000000093
:102C40000000000000000000000000000000000084
:102C50000000000000001140010000000100000021
:102C6000010000000000124001000000010000000F
:102C70000200000000000140000000000000000011
:102C800003000000000004400000000000000000FD
:102C900000000000000013400100000000000000E0
:102CA0000108020000000000000000000100000018
:102CB00000000240010000000000000001080200C6
:102CC00000000000000000000200000000000340BF
:102CD00001000000000000000108000000000000EA
:102CE00000000000030000000000004001000000A0
:102CF00000000000010802010000000001000000C7
:102D0000000000000000104000C2010000000800A8
:04000005000001896D
:00000001FF
