:020000040000FA
:10000000A8160020D1010000D9010000DB0100008A
:10001000DD010000DF010000E10100000000000040
:10002000000000000000000000000000E3010000EC
:10003000E501000000000000E7010000710200007F
:10004000F70D0000EB080000110900001F0D000073
:10005000290D0000330D00003D0D0000C904000013
:1000600059080000290E0000EB010000EB01000020
:10007000EB010000EB010000EB010000EB010000D0
:10008000EB010000EB010000EB010000EB010000C0
:10009000EB010000EB010000EB010000EB010000B0
:1000A000EB010000EB010000EB010000EB010000A0
:1000B000EB010000EB010000EB010000EB01000090
:1000C00000F002F800F068F80AA090E8000C824402
:1000D0008344AAF10107DA4501D100F05DF8AFF2DF
:1000E000090EBAE80F0013F0010F18BFFB1A43F016
:1000F00001031847FC3700001C3800000A444FF089
:10010000000C10F8013B13F0070408BF10F8014B76
:100110001D1108BF10F8015B641E05D010F8016BBB
:10012000641E01F8016BF9D113F0080F1EBF10F81F
:10013000014BAD1C0C1B09D16D1E58BF01F801CB42
:10014000FAD505E014F8016B01F8016B6D1EF9D5C5
:100150009142D6D3704700000023002400250026DA
:10016000103A28BF78C1FBD8520728BF30C148BF1A
:100170000B607047692902F0ED87642902F0EA8775
:10018000782903F02380732903F02D810020704724
:100190001FB51FBD10B510BD03F029F91146FFF7BB
:1001A000F7FF00F076F803F047F903B4FFF7F2FF2A
:1001B00003BC03F04FF9000003480449086070478E
:1001C000014802490860704740787D010000002026
:1001D0000948804709480047FEE7FEE7FEE7FEE7DB
:1001E000FEE7FEE7FEE7FEE7FEE7FEE70448054917
:1001F000054A064B70470000C1010000C100000025
:10020000A8060020A8160020A8120020A81200208E
:1002100010B504462146024802F0D4F910BD000092
:100220000000104010B5044603E02078FFF7F0FF0F
:10023000641C20780028F8D110BD000070B5044679
:100240000D460948006820B129462046064A126832
:10025000904700BF054800680028FBD170BD0249E7
:1002600008607047704700000C0000200800002064
:1002700000B587B000F01DFEA34908600846A3A1A1
:10028000026801A802F0F4FE01A8FFF7CBFF07B057
:1002900000BDD6B04FF0C046A1481590A1A103C93A
:1002A000CDE90D01A1A103C9CDE90B012022A1498E
:1002B00003A802F0DBFF00F071FD00BF4FF0FF303C
:1002C0009D49086000BF00F05DFA8146B9F1000F5A
:1002D00002D09AA0FFF7A6FFA3A0FFF7A3FF02207A
:1002E00000F0FEF8A1A0FFF79DFF082000F0F8F84D
:1002F0009FA0FFF797FF00F09FFA9CA0FFF792FFE7
:10030000092000F0EDF8002000F0EAF800F06EFDA2
:10031000072000F0F0F8072087498039420951F89A
:10032000221001228240114009B1012100E0002188
:100330000F4600BF384600F0A7FB8146B9F1000F19
:1003400002D08CA0FFF76EFF00F0BBFB1598006891
:1003500014901498C0F3035B1498C0F30B1814980E
:1003600000F00F0AA8F6214010B102280AD104E0DB
:100370008EA10FA802F056FF0AE08FA10FA802F08D
:1003800051FF05E042468FA10FA802F071FE00BFA9
:1003900000BF53460FAA8EA116A8CDF800B002F0F8
:1003A00067FE94A0FFF73EFF16A8FFF73BFF9BA058
:1003B000FFF738FF1FB1A3A0FFF734FF02E0AAA0A8
:1003C000FFF730FFB0A0FFF72DFFBDA0FFF72AFF1A
:1003D00088A0FFF727FF002404E003A850F82400BA
:1003E00001C6641C082CF8D300254FF0C046002439
:1003F00007E002CE03A850F82400814200D06D1C13
:10040000641C082CF5D31DB1B1A0FFF70BFF02E06F
:10041000B8A0FFF707FF00F05DFB002208210DA840
:1004200000F07EFB002208210BA800F0BEFB002597
:10043000002407E00BA8005D0DA9095D884200D0EB
:100440006D1C641C082CF5D31DB1B0A0FFF7EAFEAB
:1004500002E0B8A0FFF7E6FE00F0F8FCBC4800F0B0
:1004600015FD00F01BFDBB49481EB0F1807F01D394
:10047000012021E0481E4FF0E02250615017032276
:1004800000280BDA93074FEA136E254B183300F060
:100490000F0CACF1040C03F80CE005E093074FEAF5
:1004A000136CAD4B03F800C000BF00204FF0E022FA
:1004B00090610720106100200290029810B1A7A05F
:1004C000FFF7B0FE00BFFEE710B507200121814015
:1004D000194A430942F8231000BF00F00CF810BD80
:1004E00000F01F02012191404209920002F1E02236
:1004F000C2F80011704700F01F0201219140A04A8C
:10050000430942F8231070471800002056616C6FB1
:10051000722054696D65723A2025640D0A0000004E
:1005200000ED00E00123456789ABCDEFFFFFFFFF42
:10053000FFFFFFFF6434000080E200E04572726F4D
:1005400072202D2058696C696E78204750494F20E1
:100550006661696C656420746F20696E6974696195
:100560006C6973650A000000310000003200000071
:10057000330000004572726F72202D2058696C693B
:100580006E782053504920636F6E74726F6C6C6587
:100590007273206661696C656420746F20696E698E
:1005A0007469616C6973650A00000000436F7274BE
:1005B00065782D4D31000000436F727465782D4DC4
:1005C00033000000556E6B6E6F776E20257800004B
:1005D00041726D202573205265766973696F6E20B4
:1005E00025692056617269616E742025690D0A0AB9
:1005F000000000002A2A2A2A2A2A2A2A2A2A2A2A03
:100600002A2A2A2A2A2A2A2A2A2A2A2A2A2A2A2A4A
:100610002A2A2A2A2A2A2A2A0D0A00004578616DE8
:10062000706C652064657369676E20666F72204424
:100630006967696C656E7420413720626F6172640E
:100640000D0A00000A5632432D4441504C696E6B2E
:1006500020626F617264206E6F74206465746563DC
:100660007465640D0A0000000A5632432D4441505F
:100670004C696E6B20626F6172642064657465639F
:100680007465640D0A0000005573652044495020CC
:10069000737769746368657320616E642070757325
:1006A0006820627574746F6E7320746F0D0A636FC7
:1006B0006E74726F6C204C4544530D0A00000000AC
:1006C0002056657273696F6E20312E33330D0A0028
:1006D0004552524F52202D204272616D2072656149
:1006E000646261636B20636F727275707465642EEF
:1006F0000D0A00004272616D20726561646261637F
:100700006B20636F72726563740D0A004552524F1D
:1007100052202D204261736520535049207265613B
:10072000646261636B20636F727275707465642EAE
:100730000D0A0000426173652053504920726561C3
:10074000646261636B20636F72726563740D0A008B
:1007500080F0FA02404B4C0000E400E04572726FFA
:100760007220616C20636F6E6669677572617220BA
:10077000656C205379735469636B200D0A00000087
:1007800080E100E010B50021AE4800F094FE044680
:100790000CB1012010BD0121AB4800F08CFE0446D5
:1007A0000CB10120F6E70221A84800F084FE0446BF
:1007B0000CB10120EEE70321A54800F07CFE0446C1
:1007C0000CB10120E6E76FF00F0201219D4800F017
:1007D000B5FB4FF0FF3202219A4800F0AFFB9D4A73
:1007E0000121994800F0AAFB4FF0FF320221964800
:1007F00000F0A4FB00220121944800F09FFB00229E
:100800000121914800F057FC002201218D4800F0A1
:1008100052FC6FF00F0201218D4800F08FFB4FF06A
:10082000FF3202218A4800F089FB0022012188481A
:1008300000F041FC0020ADE710B50221824800F035
:10084000EEFC0221824800F0EAFC7F4800F07AFCCE
:100850007F4800F077FC10BD70B502217C4800F0A5
:10086000EBFB00F00100002837D07BA0FFF7DAFC9B
:1008700004220121764800F01EFC01204FF0E02107
:1008800008617A4800684CF2503200FB02F1481EC1
:10089000B0F1807F00D31BE0481E4FF0E022506192
:1008A00050170322002807DA93071D0E704B00F043
:1008B0000F04241F1D5503E093071C0E6D4B1C54A1
:1008C00000BF00204FF0E02290610720106100BFC0
:1008D0000C2201215E4800F0EEFB03215C4800F091
:1008E0001AFD082000F0A4F870BD08B50221554893
:1008F00000F0A2FB009001215248009A00F0DBFBBF
:100900000321504800F007FD012000F091F808BDD8
:1009100070B588B002214C4800F08EFB00285BD0F7
:100920000221494800F088FB07900121464800F069
:1009300083FB0690079800F0010060B107240125B1
:100940004A480068B0F5A77F37D848480068401C7F
:100950004649086031E0079800F0020050B13824A1
:1009600008254248006840B340480068401E3F499F
:10097000086022E0079800F0040068B14FF4E074CA
:1009800040253A480068B0F5A37F16D23748006882
:100990000A303649086010E0079800F0080060B19E
:1009A0004FF460644FF40075304800680A2804D999
:1009B0002E4800680A382D490860069800EA0406A7
:1009C000701900EA04060698A043304306900121FE
:1009D0001D48069A00F06FFB03211B4800F09BFCAA
:1009E000022000F025F8214823A10268684602F0A1
:1009F0003FFB6846FFF716FC0C220121144800F06B
:100A00005AFB08B070BD10B50446224601210F48BC
:100A100000F051FB10BD08B502210A4800F00CFBA4
:100A20000090009A521C0121064800F044FB08BDCA
:100A300000F01F0201219140124A430942F823109D
:100A40007047000044010020540100206401002090
:100A50003401002000F0FFFF54726967676572205F
:100A6000506F73697469766F200A0D001C000020B6
:100A700018ED00E000E400E056616C6F723A20254A
:100A8000640D0A0080E200E070B505460021B5481B
:100A900001F08AFA04460CB1012070BDB14800F0A3
:100AA00050FDB04800F045FEAE49896901F11C00D7
:100AB000002100F054F90121AA4801F07EF800203D
:100AC000EBE710B5A749896901F11C00002100F08E
:100AD00046F910BD70B5A349896901F1600000F0C5
:100AE0003BF9054645F004019E4A926902F1600017
:100AF00000F035F906209C4908700123002299482E
:100B000000F0A7FE0446052097490870FF204870B2
:100B10000223964A934800F09CFE0446204670BD8E
:100B20002DE9F04707460D4616468E49896901F1C1
:100B3000600000F011F9804648F00401894A92698A
:100B400002F1600000F00BF90DB1FC2D02D901207B
:100B5000BDE8F087062084490870012300228148FF
:100B600000F077FE814602207F490870300C487003
:100B7000300A8870CE70002405E017F8011B201D94
:100B8000794A1154641CAC42F7D32B1D00227649DC
:100B9000744800F05EFE8146002400E0641C44F6C8
:100BA00020608442FAD34846D2E72DE9F047074651
:100BB0000D4616466B49896901F1600000F0CCF8DA
:100BC000804648F00401674A926902F1600000F033
:100BD000C6F80DB1FC2D02D90120BDE8F087032035
:100BE00061490870300C4870300A8870CE7000245B
:100BF00004E00021201D5C4A1154641CAC42F8D36F
:100C00002B1D5A4A5849574800F023FE81460024BC
:100C100005E05649201D085C07F8010B641CAC4236
:100C2000F7D34846D9E72DE9F04F93B007468846F9
:100C3000002012904B4890F82D402046E11704EB1D
:100C40005171CD102346424649A102A8009502F0F9
:100C50000FFA02A8FFF7E6FA4249896901F160003C
:100C600000F07AF883464BF004013E4A926902F1A3
:100C7000600000F074F84FF0000A17E03949896904
:100C800001F1640000F068F8064606F0080060B95B
:100C900097F800902F443349896901F1680049466B
:100CA00000F05DF8129828441290AA44C245E5D39A
:100CB0002C49896901F17000002100F050F82949A0
:100CC000896901F1600000F047F820F4807B4BF067
:100CD0000201244A926902F1600000F040F800BF6E
:100CE0002049896901F1200000F036F8064606F037
:100CF00004000028F4D01B49896901F1200000F0AC
:100D00002BF840F0040017490190896901F1200097
:100D1000019900F024F8129813B0BDE8F08F10B5D7
:100D2000032000F010F810BD10B5042000F00BF8FF
:100D300010BD10B5052000F006F810BD10B5062056
:100D400000F001F810BD00F01F02012191400F4A90
:100D5000430942F82310704701460868704702466D
:100D60001160704774010020D0010020D0020020E3
:100D70006C656E2025692C205769642025692C201C
:100D8000696E63722025690D0A00000080E200E0B0
:100D90001F4A116070471F4A1160704710B500214B
:100DA0001D4801F03AFC04460CB1012010BD1A4A5E
:100DB000AFF21D01104601F02FFB174AAFF22F01D1
:100DC000104601F0F7FA4FF480721449124801F00E
:100DD00033FA0020EAE70E490968114A1268881AB6
:100DE00018B10B4909680E4A1160704710B50A48DE
:100DF00001F0B7FB10BD10B5074801F065FB0020FE
:100E000001218140074A430942F8231000BF10BD69
:100E10002000002024000020D00300201C0500201A
:100E20002800002080E200E070B504460D4625A0B1
:100E3000FFF7F8F9274801F071FF092001218140EF
:100E4000254A430942F8231000BF70BD10B50021A8
:100E5000204801F01DFD04460CB1012010BD1D4AC3
:100E6000AFF23B01104601F027FF0020F6E710B576
:100E70000021184802F05CF804461CB117A0FFF7E7
:100E8000D1F902E01AA0FFF7CDF910BD10B5044664
:100E9000224600210F4801F0FBFD10BD10B52822AD
:100EA00000210C4801F098FF00210A4801F01BFDC9
:100EB00010BD10B50021074801F0ADFD04462046E5
:100EC00010BD000054696D657248616E646C657296
:100ED000200D0A001C06002080E200E04E4F205644
:100EE0004120454C2054494D4552200D0A00000038
:100EF0005641204249454E20454C2054494D4552CB
:100F0000200D0A0070B504460D4616461CB100209F
:100F10008A49086008E07D218948FFF78FF90120A0
:100F200086490860002070BD2660A868A060E86857
:100F3000E0604FF0113060600020F4E770B50446C7
:100F40000D4616461CB100207C49086007E0A2212E
:100F50007B48FFF773F901207849086070BD60682D
:100F6000B0F1113F03D100207449086007E0A321CC
:100F70007348FFF763F9012070490860EEE7012D1F
:100F800004D0022D06D1E068012803D100206B496E
:100F9000086007E0A4216A48FFF750F9012067497B
:100FA0000860DBE7691E042303EBC10122685018C7
:100FB000314600F0BFF800BFD0E770B504460D46DB
:100FC0001CB100205D49086008E0C0215C48FFF7C3
:100FD00035F9012059490860002070BD6068B0F102
:100FE000113F03D100205549086008E0C121544851
:100FF000FFF724F90120514908600020EDE7012D99
:1010000004D0022D06D1E068012803D100204B490D
:10101000086008E0C2214A48FFF710F9012047495B
:1010200008600020D9E7691E042303EBC101226890
:10103000501801680846D0E770B504460D461CB14B
:1010400000203E49086008E0DA213D48FFF7F6F845
:1010500001203A490860002070BD6068B0F1113F7E
:1010600003D100203549086008E0DB213448FFF750
:10107000E5F80120314908600020EDE7012D04D09A
:10108000022D06D1E068012803D100202B49086019
:1010900008E0DC212A48FFF7D1F801202749086041
:1010A0000020D9E7691E002303EBC1012268501814
:1010B00001680846D0E770B504460D4616461CB1D7
:1010C00000201E49086007E0F6211D48FFF7B6F82A
:1010D00001201A49086070BD6068B0F1113F03D16A
:1010E00000201649086007E0F7211548FFF7A6F829
:1010F000012012490860EEE7012D04D0022D06D12F
:10110000E068012803D100200C49086007E0F821BD
:101110000B48FFF793F8012008490860DBE7691ED8
:10112000002303EBC10122685018314600F002F899
:1011300000BFD0E7024611607047000004000020A5
:10114000AC34000010B504461CB10020CE49086044
:1011500007E05F21CD48FFF771F80120CA49086018
:1011600010BD6068B0F1113F03D10020C64908608E
:1011700007E06021C548FFF761F80120C249086017
:10118000EEE7A068012803D10020BF49086007E00E
:101190006121BE48FFF752F80120BB490860DFE734
:1011A000216801F58E704FF0004100F069F900BF31
:1011B000D6E710B504461CB10020B349086007E02B
:1011C0007A21B248FFF73AF80120AF49086010BD14
:1011D0006068B0F1113F03D10020AB49086007E01F
:1011E0007B21AA48FFF72AF80120A7490860EEE70B
:1011F000A068012803D10020A349086007E07C21F2
:10120000A248FFF71BF801209F490860DFE721682B
:1012100001F58E70002100F033F900BFD7E770B5FB
:1012200004460D461CB100209749086007E098214C
:101230009648FFF703F801209349086070BD606885
:10124000B0F1113F03D100208F49086007E09921D8
:101250008E48FEF7F3FF01208B490860EEE7A06897
:10126000012803D100208849086007E09A218748B7
:10127000FEF7E4FF012084490860DFE7216801F5FB
:10128000947000F0FAF8064646EA0501226802F575
:10129000947000F0F5F800BFD0E770B504460D4635
:1012A0001CB100207849086007E0BC217748FEF7B0
:1012B000C5FF01207449086070BD6068B0F1113F3E
:1012C00003D100207049086007E0BD216F48FEF798
:1012D000B5FF01206C490860EEE7A068012803D142
:1012E00000206949086007E0BE216848FEF7A6FFB4
:1012F000012065490860DFE7216801F5947000F07E
:10130000BCF8064626EA0501226802F5947000F052
:10131000B7F800BFD0E770B504460D461CB10020F9
:101320005949086007E0DF215848FEF787FF012090
:101330005549086070BD6068B0F1113F03D10020CD
:101340005149086007E0E0215048FEF777FF01208F
:101350004D490860EEE7A068012803D100204A4902
:10136000086007E0E1214948FEF768FF012046498F
:101370000860DFE7216801F5907000F07EF806460E
:1013800006EA0501226802F5907000F079F800BFC6
:10139000D0E710B504461CB100203B49086009E0C5
:1013A0004FF481713948FEF749FF01203649086042
:1013B000002010BD6068B0F1113F03D10020324918
:1013C000086009E040F203113048FEF737FF0120C2
:1013D0002D4908600020ECE7A068012803D1002017
:1013E0002949086009E04FF482712848FEF726FF7A
:1013F0000120254908600020DBE7216801F5947091
:1014000000F03BF8D5E710B504461CB100201E499A
:10141000086009E040F21F111C48FEF70FFF012091
:1014200019490860002010BD6068B0F1113F03D178
:1014300000201549086009E04FF490711348FEF749
:10144000FDFE0120104908600020ECE7A06801289B
:1014500003D100200C49086009E040F221110B483B
:10146000FEF7ECFE0120084908600020DBE7216858
:1014700001F5907000F001F8D5E701460868704763
:10148000024611607047000004000020F83400009C
:101490000246002000210AE0174B03EB01131B88D2
:1014A000934203D1144B03EB011002E0491C0429C1
:1014B000F2DB00BF704770B505460E461DB1002037
:1014C0000E49086008E08F210D48FEF7B7FE0120A5
:1014D0000A490860002070BD3046FFF7D9FF044676
:1014E0001CB9002068600220F5E7214628466268A2
:1014F000FFF708FDEFE700002C00002004000020AB
:101500004835000070B50446A26902F17000216BF5
:1015100000F02DFDA16901F1600000F025FD85B20C
:1015200045F48075606A08B145F06005A16901F174
:101530006000294600F01BFD002060642064A06468
:1015400070BD10B504461CB10020FE49086008E0DB
:1015500040F2B711FC48FEF771FE0120F94908601E
:1015600010BDE069B0F1113F03D10020F5490860DA
:1015700008E04FF4DC71F448FEF760FE0120F14909
:101580000860EDE72046FFF7BDFF00202062206BDA
:101590006063A16901F140000A2100F0E8FC00BF8E
:1015A000DEE770B504460D46164640F21B41E6489C
:1015B000FEF744FE0120E349086070BD2DE9F843C1
:1015C00004460D4690461CB10020DE49086009E043
:1015D000AD21DD48FEF732FE0120DA490860002027
:1015E000BDE8F883206AB0F1223F01D10520F7E77A
:1015F00000202062A064D548E0640020A063E0637E
:1016000020646064C4F81880A8686062E868A0621A
:10161000287C84F82C00687C18B9082084F82D00F8
:1016200002E0687C84F82D00A87C84F82E006869AC
:101630006065287E84F858004FF01130E06194F81E
:101640002C1001208840401E2063206B6063002026
:1016500020606060A060E06020616061687E0128B9
:1016600062D1A16901F1600000F07EFC064646F0FF
:101670006606A16901F16000314600F078FC9F2008
:101680008DF8000000208DF801008DF802009DF813
:101690000010A26902F1680000F069FC9DF80110D9
:1016A000A26902F1680000F062FC9DF80210A269D4
:1016B00002F1680000F05BFCA16901F1600000F03C
:1016C00053FC064626F48076A16901F1600031469C
:1016D00000F04DFCA16901F1600000F045FC0646F8
:1016E00046F48076A16901F16000314600F03FFCCC
:1016F000A16901F1640000F037FC074607F0010022
:1017000020B9A16901F16C0000F02EFCA16901F182
:10171000640000F029FC074607F0010020B9A16928
:1017200001F16C0000F020FC2046FFF70AFF0020CA
:1017300056E770B504461CB100208249086009E0F4
:1017400040F239118048FEF779FD01207D4908609B
:10175000002070BDE069B0F1113F03D1002079494C
:10176000086009E04FF49D717748FEF767FD01209E
:10177000744908600020ECE7206AB0F1223F01D1F3
:101780000520E6E7A16901F1280000F0EDFB42F237
:101790002B0140EA0106A16901F12800314600F061
:1017A000E6FB4FF022302062A16901F1600000F0F9
:1017B000DBFB054645F06205A16901F160002946A1
:1017C00000F0D5FBA16901F11C004FF0004100F0D1
:1017D000CEFB0020BDE770B504461CB1002059497E
:1017E000086009E040F287115748FEF727FD012005
:1017F00054490860002070BDE069B0F1113F03D189
:1018000000205049086009E04FF4C4714E48FEF7CB
:1018100015FD01204B4908600020ECE7A06C08B1E1
:101820001520E8E7A16901F11C00002100F09FFBF1
:10183000A16901F1600000F097FB054625F0020167
:10184000A26902F1600000F092FB0020206200BF5C
:10185000D1E72DE9FC5F04468A4693461F464FF0C8
:1018600000091CB10020374908600AE040F22A2133
:101870003548FEF7E3FC0120324908600020BDE84E
:10188000FC9FBAF1000F03D000202E49086009E048
:1018900040F22B212C48FEF7D1FC01202949086099
:1018A0000020ECE71FB100202649086009E04FF452
:1018B0000B712548FEF7C2FC012022490860002078
:1018C000DDE7E069B0F1113F03D100201D49086058
:1018D00009E040F22D211C48FEF7B0FC0120194917
:1018E00008600020CBE7206AB0F1223F01D006203B
:1018F000C5E7A06C08B11520C1E7A16901F11C0082
:1019000000F032FBB0F1004F01D1012000E00020D7
:101910000190A16901F11C00002100F028FBA169E0
:1019200001F1600000F020FB064606F00400D0B193
:1019300006F00100B8B9D4E90C10884213D101981F
:10194000012805E0040000209C350000A3150000DC
:1019500006D1A16901F11C004FF0004100F007FB26
:1019600040F283408BE70120A064C4F838A0C4F89B
:101970003CB02764676494F82D50A16901F16400BC
:1019800000F0F2FA804624E0082D03D1A06B90F815
:1019900000900AE0102D03D1A06BB0F8009004E095
:1019A000202D02D1A06BD0F80090A16901F1680050
:1019B000494600F0DCFAA06B00EBE500A063606C28
:1019C000A0EBE5006064A16901F1640000F0CCFACD
:1019D000804608F0080010B9606C0028D4D1A269D4
:1019E00002F17000616B00F0C2FAA16901F16000C0
:1019F00000F0BAFA064626F48076A16901F160008B
:101A0000314600F0B4FA0198012815D1A16901F11D
:101A1000280000F0A9FA40F004000090A16901F14B
:101A20002800009900F0A3FAA16901F11C004FF011
:101A3000004100F09CFABEE0A5E000BFA16901F101
:101A4000200000F091FA804608F004000028F5D04C
:101A5000A16901F1200000F087FA40F00400009035
:101A6000A16901F12000009900F081FAA16901F15A
:101A7000600000F079FA064646F48071A26902F12E
:101A8000600000F074FAA16901F1640000F06CFAE2
:101A9000804630E0A16901F16C0000F065FA8146F2
:101AA000082D07D1E06BD0B1E26B501CE06382F8E7
:101AB000009014E0102D08D1E06B80B1E16BA1F82B
:101AC0000090E06B801CE06309E0202D07D1E06B03
:101AD00028B1E06BC0F80090E06B001DE063206966
:101AE00000EBE5002061A7EBE507A16901F16400C7
:101AF00000F03AFA804608F001000028CAD0606C75
:101B0000F0B3A16901F1640000F02EFA804624E0F0
:101B1000082D03D1A06B90F800900AE0102D03D19E
:101B2000A06BB0F8009004E0202D02D1A06BD0F89B
:101B30000090A16901F16800494600F018FAA06B15
:101B400000EBE500A063606CA0EBE5006064A169B8
:101B500001F1640000F008FA804608F0080010B9AE
:101B6000606C0028D4D1A16901F1600000F0FCF99B
:101B7000064626F48076A16901F16000314600E056
:101B800001E000F0F4F9002F7FF457AFA16901F1F3
:101B9000600000F0E9F9064646F48071A26902F19E
:101BA000600000F0E4F9A26902F17000216B00F01E
:101BB000DEF90020A064002061E62DE9F041044632
:101BC0000E461CB10020EB4908600AE04FF460713A
:101BD000E948FEF733FB0120E64908600020BDE834
:101BE000F081E069B0F1113F03D10020E1490860C4
:101BF00009E040F28131E048FEF720FB0120DD4999
:101C000008600020EBE7A06C08B11520E7E700278B
:101C100094F82C00451E06E026FA05F000F00100BD
:101C200000B17F1C6D1E002DF6DA012F02DD40F29F
:101C30008440D4E7F04360630020D0E710B5044649
:101C40001CB10020CB49086009E040F2BF31CA480E
:101C5000FEF7F4FA0120C7490860002010BDE069D2
:101C6000B0F1113F03D10020C249086009E04FF4F0
:101C70007071C148FEF7E2FA0120BE4908600020F9
:101C8000ECE7606BC043E9E770B504460E461546C5
:101C90001CB10020B749086008E040F2FD31B648A9
:101CA000FEF7CCFA0120B349086070BD1DB10020D9
:101CB000B049086008E040F2FE31AF48FEF7BEFAD6
:101CC0000120AC490860F0E7E069B0F1113F03D1B1
:101CD0000020A849086008E040F2FF31A648FEF75E
:101CE000ADFA0120A3490860DFE7E564266500BF7F
:101CF000DBE72DE9F84F81464C460027B9F1000F8C
:101D000003D000209B49086009E040F25A419A48FC
:101D1000FEF794FA012097490860BDE8F88F6069E2
:101D2000401C6061A16901F1200000F01DF9054629
:101D3000A16901F1200000F017F928430090A16982
:101D400001F12000009900F012F905F00100A8B19E
:101D5000D4E91001A0EB010A2068401C2060204655
:101D6000FFF7D0FBA16901F1640000F0FDF85246D5
:101D700040F27F41D4E913309847CEE794F82D60C4
:101D800005F0040018B905F0400000287AD0A169D8
:101D900001F1600000F0E8F883464BF48071A2691D
:101DA00002F1600000F0E3F8A16901F1640000F0C5
:101DB000DBF880462BE0A16901F16C0000F0D4F85B
:101DC0000746082E06D1E06BB8B1E26B501CE06309
:101DD000177012E0102E07D1E06B70B1E16B0F802D
:101DE000E06B801CE06308E0202E06D1E06B20B1A0
:101DF000E06B0760E06B001DE063206900EBE6002C
:101E00002061A16901F1640000F0AEF8804608F09D
:101E100001000028CFD0606CA8B3A16901F1640073
:101E200000F0A2F8804621E0082E02D1A06B0778CE
:101E300008E0102E02D1A06B078803E0202E01D10C
:101E4000A06B0768A16901F16800394600F08FF8BE
:101E5000A06B00EBE600A063606CA0EBE6006064A2
:101E6000A16901F1640000F07FF8804608F00800E5
:101E700010B9606C0028D7D1A16901F16000594602
:101E800000F075F81CE0FFE7A26902F17000216B19
:101E900000F06DF8A16901F1280000F065F820F06C
:101EA00004000090A16901F12800009900F05FF89A
:101EB0000020A0644FF49061D4E91330226C98475D
:101EC00005F0800028B100224FF49161D4E913306D
:101ED000984705F4807028B1002240F28941D4E986
:101EE0001330984705F0020060B1D4E91001A0EB6F
:101EF000010AE068401CE060524640F28741D4E9A4
:101F00001330984705F0200060B1D4E91001A0EB30
:101F1000010AA068401CA060524640F28241D4E908
:101F20001330984705F0080060B1D4E91001A0EB28
:101F3000010A6068401C6060524640F28141D4E969
:101F40001330984705F4005060B1D4E91001A0EBBC
:101F5000010A6068401C6060524640F28A41D4E940
:101F60001330984700BFD8E601460868704702461C
:101F700011607047040000209C35000010B5024637
:101F8000002000210CE0C1EBC103164C34F82330D3
:101F9000934204D1C1EBC10304EB830002E0491C6E
:101FA0000429F0D300BF10BD70B505460E461DB123
:101FB00000200D49086008E08A210C48FEF73EF930
:101FC000012009490860002070BD3046FFF7D6FFA8
:101FD00004460CB90220F7E7214628466268FFF75D
:101FE000EDFAF1E76C00002004000020E835000065
:101FF00070B504460D4640F2BF11EB48FEF71EF9DE
:102000000120EA49086070BD70B504460E461546C9
:102010001CB10020E549086008E08F21E248FEF786
:102020000DF90120E1490860002070BD00206062C8
:102030000021E162A1622063A16361634FF011306E
:102040002062E561DA48E0636064E16901F10C0057
:10205000002100F0A5F9204600F041FB0020E4E754
:102060002DE9F04104460025E16901F1080000F086
:1020700094F9C6B2E16901F1080000F08EF9C6B228
:10208000E16901F10C00002100F08AF937460CE00B
:10209000626A515DE269101D00F082F96D1CE16910
:1020A00001F1080000F079F9C6B206F0080010B995
:1020B000E06AA842ECD8606A28446062E06A411B8A
:1020C000E162A0682844A06007F01007E16901F10F
:1020D0000C00394600F064F92846BDE8F0812DE98E
:1020E000F04104460E4615461CB10020AF49086079
:1020F00009E0DE21AC48FEF7A1F80120AB490860F9
:102100000020BDE8F0811EB10020A849086008E069
:10211000DF21A548FEF792F80120A44908600020BD
:10212000EFE7206AB0F1113F03D100209F4908601A
:1021300008E0E0219C48FEF781F801209B490860F7
:102140000020DEE7002D03DB00209849086008E04E
:10215000E1219548FEF772F80120944908600020BB
:10216000CFE7E16901F1080000F017F90746E169DE
:1021700001F10C00002100F013F9A562E56266622E
:1021800007F01007E16901F10C00394600F008F989
:102190002046FFF765FF80464046B2E72DE9F04153
:1021A00004460025E16901F1080000F0F6F8C7B225
:1021B000E16901F10C00002100F0F2F824E0E1698E
:1021C00001F1080000F0E9F8C6B206F00100D0B154
:1021D000E06900F0E2F8C2B228466D1C236B1A5485
:1021E00006F0200010B12069401C206106F080003C
:1021F00010B16069401C606106F0400020B1A06928
:10220000401CA06100E002E0A06BA842D7D800BF4C
:10221000206B28442063A06B411BA163E068284425
:10222000E06007F01007E16901F10C00394600F0A9
:10223000B7F82846BDE8F0812DE9F04104460E4686
:1022400015461CB10020594908600AE040F23111DE
:102250005548FDF7F3FF0120544908600020BDE810
:10226000F0811EB100205149086009E04FF49971D6
:102270004D48FDF7E3FF01204C4908600020EEE7E0
:10228000206AB0F1113F03D100204849086009E0FD
:1022900040F233114448FDF7D1FF01204349086063
:1022A0000020DCE7002D03DB00204049086009E046
:1022B0004FF49A713C48FDF7C1FF01203B4908608B
:1022C0000020CCE7E16901F1080000F066F807465C
:1022D000E16901F10C00002100F062F86563A5637B
:1022E000266307F01007E16901F10C00394600F0A0
:1022F00057F82046FFF752FF80464046AFE770B5DB
:1023000004461CB100202949086008E04FF4B77169
:102310002548FDF793FF01202449086070BD206A1D
:10232000B0F1113F03D100202049086008E040F2DD
:102330006F111D48FDF782FF01201C490860EDE781
:10234000E16901F1080000F028F8054605F01005E4
:1023500045F00301E26902F10C0000F021F800BF32
:10236000DCE770B504461CB100201049086009E0A4
:1023700040F299110C48FDF761FF01200B490860FC
:10238000002070BDE16901F1080000F006F8054683
:1023900000BF012020EA9500F3E701460868704776
:1023A000024611607047000038360000040000202B
:1023B000F11F000070B504460D4616461CB1002002
:1023C0007E49086007E068217D48FDF737FF01205E
:1023D0007A49086070BD1DB100207849086007E0A7
:1023E00069217748FDF72AFF012074490860F1E769
:1023F000206AB0F1113F03D100207049086007E066
:102400006A216F48FDF71AFF01206C490860E1E777
:10241000E563266400BFDDE770B504460D46164649
:102420001CB100206549086007E089216448FDF778
:1024300005FF01206149086070BD1DB100205F49A2
:10244000086007E08A215E48FDF7F8FE01205B493D
:102450000860F1E7206AB0F1113F03D1002057492D
:10246000086007E08B215648FDF7E8FE012053493C
:102470000860E1E76564A66400BFDDE770B5044667
:10248000E06A38B9A56A0021A1622946D4E9112081
:10249000904702E02046FFF7E3FD2068401C2060E3
:1024A00070BD70B50446A06B10B12046FFF776FEF4
:1024B000A06B28B9D4E90D53E91AD4E90F2090474D
:1024C0006068401C606070BD70B504461CB100209F
:1024D0003A49086007E0A6213948FDF7AFFE012020
:1024E0003649086070BDE16901F10800056800BF68
:1024F00005F0030010B12046FFF7D3FF05F00400FC
:1025000020B1A06A10B12046FFF7B8FF00BFE9E78D
:1025100010B504461CB100202849086008E040F2CC
:1025200025112748FDF78AFE01202449086010BDC7
:10253000206AB0F1113F03D100202049086008E073
:102540004FF493711E48FDF779FE01201B49086086
:10255000EDE7E16901F10C00002100F02BF800BF6C
:10256000E5E710B504461CB100201449086008E0F6
:1025700040F243111248FDF761FE01200F49086047
:1025800010BD206AB0F1113F03D100200B49086053
:1025900008E04FF4A2710A48FDF750FE01200749F8
:1025A0000860EDE7E16901F10C00102100F002F88C
:1025B00000BFE5E7024611607047000004000020FC
:1025C0008C36000000BF00BF826802F00802082AB3
:1025D000F9D0021D1346196000BF7047014600BFC5
:1025E00000BF886800F001000028F9D000BF08682B
:1025F000C0B270470246002000210AE0164B03EBF0
:1026000001131B88934203D1134B03EB011002E02B
:10261000491C0029F2D000BF704770B505460E4630
:102620001DB100200D49086008E085210C48FDF728
:1026300005FE012009490860002070BD3046FFF703
:10264000D9FF04460CB90220F7E721462846626804
:10265000FFF7DAFCF1E70000DC00002004000020B6
:10266000E436000070B504460D461CB10020304928
:10267000086007E060212F48FDF7E0FD01202C49AC
:10268000086070BD1DB100202949086007E0612184
:102690002848FDF7D3FD012025490860F1E7206AAD
:1026A000B0F1113F03D100202149086007E0622109
:1026B0002048FDF7C3FD01201D490860E1E72068BF
:1026C000286060686860A068A860E068E8602069C9
:1026D0002861A069A8616069686100BFD1E710B591
:1026E00004461CB100201249086007E0832111480C
:1026F000FDF7A4FD01200E49086010BD206AB0F16D
:10270000113F03D100200A49086007E084210948ED
:10271000FDF794FD012006490860EEE700202060E7
:102720006060A060E0602061A061606100BFE4E7DC
:10273000040000204037000070B505460C461DB16E
:102740000020FA49086008E040F21621F848FDF739
:1027500075FD0120F549086070BD022C03DA0020E8
:10276000F249086008E040F21721F148FDF766FDE4
:102770000120EE490860EFE700BFEDE770B50446C1
:102780000E4615461CB10020E849086007E072219A
:10279000E748FDF753FD0120E449086070BD1EB114
:1027A0000020E249086007E07321E148FDF746FD9B
:1027B0000120DE490860F1E71DB10020DB49086017
:1027C00007E07421DA48FDF739FD0120D749086098
:1027D000E4E70020606196E8070084E80700656090
:1027E0002561D448206264620020E0604FF011301F
:1027F000606100BFD2E77CB5044605261CB100200D
:10280000CA49086008E09721C948FDF717FD012073
:10281000C649086000207CBD6069B0F1113F03D15A
:102820000020C249086008E09821C148FDF706FD74
:102830000120BE4908600020EDE7A0690090E06932
:102840000190002520E05DF82500B0F1223F00D185
:1028500018E0B94A525D21691144081D002100F0B9
:1028600021FAB54A525D216988184FF4907100F041
:1028700019FAB14A525D21698818002100F012FA54
:10288000002600BF681CC5B2022DDCDB3046C2E763
:1028900070B505460E461DB10020A449086008E049
:1028A000CF21A348FDF7CAFC0120A0490860002001
:1028B00070BDA869B0F1223F05D1E869B0F1223FAF
:1028C00001D10520F4E7304600F0B8FB04460CB90E
:1028D0000220EDE7214628466268FFF74FFF2846B1
:1028E000FFF789FFE4E770B504460D461CB10020F0
:1028F0008E49086007E0FE218D48FDF79FFC01200E
:102900008A49086070BD022D03DA002087490860FB
:1029100007E0FF218648FDF791FC0120834908600C
:10292000F0E76069B0F1113F03D100207F490860F2
:1029300008E04FF480717E48FDF780FC01207B4960
:102940000860DFE77C4A525D2169881800F0A7F92A
:102950000646794A525D21698818202100F0A2F9C3
:102960001DB94FF02230A06102E04FF02230E0614B
:10297000714B5B5D2269D01846F0800100F092F93E
:1029800000BFBFE770B504460D461CB10020674983
:10299000086008E040F23F116548FDF74FFC012058
:1029A0006249086070BD022D03DA00205F490860AB
:1029B00008E04FF4A0715E48FDF740FC01205B4940
:1029C0000860EFE76069B0F1113F03D1002057497B
:1029D000086008E040F241115548FDF72FFC012046
:1029E00052490860DEE7544A525D2169881800F0B8
:1029F00056F9064626F080064F4A525D216988182E
:102A0000314600F04FF915B90020A06101E0002027
:102A1000E06100BFC6E770B504460D461CB100205A
:102A20004249086009E04FF4B9714148FDF706FCDE
:102A300001203E490860002070BD022D03DA00200D
:102A40003A49086009E040F273113948FDF7F6FB96
:102A50000120364908600020EEE76069B0F1113FBF
:102A600003D100203149086009E04FF4BA713048C1
:102A7000FDF7E4FB01202D4908600020DCE72E4A29
:102A8000525D2169114401F1080000F008F9D3E713
:102A900070B504460D4616461CB100202349086057
:102AA00008E04FF4C9712248FDF7C8FB01201F4917
:102AB000086070BD022D03DA00201C49086008E0A0
:102AC00040F293111A48FDF7B9FB0120174908603D
:102AD000EFE76069B0F1113F03D1002013490860AE
:102AE00008E04FF4CA711248FDF7A8FB01200F4916
:102AF0000860DEE7104A525D21691144081D314625
:102B000000F0D0F800BFD4E770B504460D461CB104
:102B100000200649086011E04FF4D7710448FDF722
:102B20008DFB012001490860002070BD04000020D9
:102B30009C37000039270000F8000020022D03DA3E
:102B400000205A49086009E040F2AF115848FDF7EB
:102B500075FB0120554908600020E6E76069B0F187
:102B6000113F03D100205149086009E04FF4D871AA
:102B70004F48FDF763FB01204C4908600020D4E773
:102B80004C4A525D21691144081D00F088F8CCE7D9
:102B900070B504460D461CB100204449086008E0A9
:102BA00040F2CB114248FDF749FB01203F49086044
:102BB00070BD022D03DA00203C49086008E04FF4A4
:102BC000E6713B48FDF73AFB012038490860EFE722
:102BD0006069B0F1113F03D100203449086008E07A
:102BE00040F2CD113248FDF729FB01202F49086042
:102BF000DEE7304A525D2169881800F050F8064639
:102C00002C4B5B5D2269D01846F0200100F04AF899
:102C1000284A525D21698818314600F043F800BF08
:102C2000C6E770B504460D461CB100201F49086078
:102C300009E04FF4FC711E48FDF700FB01201B4921
:102C40000860002070BD022D03DA002017490860DB
:102C500009E040F2F9111648FDF7F0FA0120134996
:102C600008600020EEE76069B0F1113F03D1002059
:102C70000E49086009E04FF4FD710D48FDF7DEFADA
:102C800001200A4908600020DCE70A4A525D2169F8
:102C9000881800F004F80646C6F30020D2E7014683
:102CA0000868704702461160704700000400002069
:102CB0009C370000F800002070B504460D4616460B
:102CC0001CB100204149086007E064214048FDF73D
:102CD000B5FA01203D49086070BD1DB100203B4997
:102CE000086007E065213A48FDF7A8FA0120374956
:102CF0000860F1E76069B0F1113F03D1002033496A
:102D0000086007E066213248FDF798FA01202F4954
:102D10000860E1E72562666200BFDDE72DE9F0416A
:102D2000074600241FB100202849086008E08321DD
:102D30002748FDF783FA012024490860BDE8F081A7
:102D40003C4600253AE0234A525D21698818016813
:102D50000E4606F0400070B306F4807058B3E06889
:102D6000401CE0602946D4E908209047194A525D8A
:102D70002169881801680E4606F0100098B906F01F
:102D8000010080B926F08006124B5B5D2269D018E5
:102D900046F0200100F016F80E4A525D21698818AD
:102DA000314600F00FF80B4B5B5D2269D01846F4FA
:102DB000807100F007F8681CC0B20546022DC2DB26
:102DC00000BFBBE70246116070470000040000200E
:102DD000EC370000F80000202DE9F04106460F46D0
:102DE000904600251EB100204D49086008E085216D
:102DF0004C48FDF723FA012049490860BDE8F081FD
:102E0000022F03DA00204649086007E08621454882
:102E1000FDF714FA012042490860EFE77069B0F14C
:102E2000113F03D100203E49086007E087213D485B
:102E3000FDF704FA01203A490860DFE7002411E0B9
:102E4000394850F8340000EA080028B1364800EB51
:102E5000C4004068054304E0334800EBC400406808
:102E60008543641C072CEBD3304AD25D3169881846
:102E700001460D6000BF00BFC0E72DE9F0410546E7
:102E80000E4600271DB100202549086009E0C02139
:102E90002448FDF7D3F90120214908600020BDE84E
:102EA000F081022E03DA00201D49086008E0C121EC
:102EB0001C48FDF7C3F90120194908600020EEE71E
:102EC0006869B0F1113F03D100201549086008E09E
:102ED000C2211448FDF7B2F9012011490860002011
:102EE000DDE7124A925D29698818D0F8008000BF9A
:102EF000002410E00C4800EBC400406800EA080021
:102F000020B1094850F83400074303E0064850F860
:102F100034008743641C072CECD33846BFE700001D
:102F20000400002040380000FC000020F8000020D1
:102F30002DE9F04104460D4600260027B0461CB19D
:102F400000203B49086009E068213A48FDF776F91E
:102F50000120374908600020BDE8F081022D03DA26
:102F600000203349086008E069213248FDF766F91E
:102F700001202F4908600020EEE76069B0F1113FA1
:102F800003D100202A49086008E06A212948FDF79A
:102F900055F90120264908600020DDE7264A525DE8
:102FA00021691144081D002100F03EF8224A525DBB
:102FB000216988184FF4907100F036F81E4A525D6E
:102FC00021698818802100F02FF81B4A525D216981
:102FD000114401F1080001680E4600BF164A525D17
:102FE0002169114401F1080001680F4608F1010050
:102FF00080B28046BE4202D1B8F1000FEED10E4A37
:10300000525D216988184FF4907100F00DF80A4A5A
:10301000525D21698818002100F006F8BE4201D1F6
:10302000012099E7002097E70246116070470000F1
:103030000400002098380000F800002010B5024677
:10304000002000210DE001EB4103084C34F823304F
:10305000934204D101EB410304EB830003E04B1CDA
:1030600099B20029EFD000BF10BD0000EC00002095
:103070000FB41CB5074B06AA7B446946009005981F
:1030800000F087F90020694600F096F91CBC5DF855
:1030900014FB00003D0300002DE9F0410E460446FC
:1030A000002020622046E168884730B3252805D0FB
:1030B000D4E901219047206A401CF2E7E1682046EC
:1030C00000278847050018D0A5F14100192802D82B
:1030D00020354FF400673246294620462760FDF729
:1030E00049F840B1012804D0F61D26F0070608363D
:1030F000D8E7361DD6E72846DAE7206ABDE8F08132
:1031000070B50C460546012A05D02878800600D502
:10311000EA69002302E0012305E05B1C934202D22E
:10312000E05C0028F9D1A869E618C01AA861286AED
:10313000184428622846AFF3008004E0D5E9012155
:1031400014F8010B9047B442F8D32846AFF300803F
:1031500070BD00002DE9F041064600241068752975
:10316000314616A510D0AFF30080002802DA4042A5
:1031700013A507E031688A0701D512A502E04907C7
:1031800004D511A5012401E0AFF3008000210A223B
:1031900006F1240709E0B0FBF2FCB0FBF2F302FBFE
:1031A0001C00303078541846491C0028F3D12346BF
:1031B0002A463046BDE8F04100F08DB8000000001E
:1031C0002D0000002B0000002000000070B5044618
:1031D0000D4621461068AFF300802188090502D50D
:1031E0000F4A7A4402E00E4A7A440E32002104F17A
:1031F000240305E000F00F060009965D5E54491CAB
:103200000028F7D120780023000704D5702D02D0C4
:1032100009B1022311322046BDE8704000F05BB8CE
:103220009E02000040EA0103024630B59B0710D120
:103230004FF0013400E008C208C91D1B9D4315EA88
:10324000C41FF8D013F0FF0102F8011B0DD01B0AB8
:10325000F8E711F8013B002B02F8013B05D011F80B
:10326000013B002B02F8013BF3D130BD10B5203AF1
:10327000C0F00B80B1E81850203AA0E81850B1E82F
:103280001850A0E81850BFF4F5AF5FEA027C24BFE5
:10329000B1E81850A0E8185044BF18C918C0BDE8DC
:1032A00010405FEA827C24BF51F8043B40F8043BA5
:1032B00008BF7047D20728BF31F8023B48BF11F85A
:1032C000012B28BF20F8023B48BF00F8012B7047B4
:1032D0007047704770472DE9F0470D469946924672
:1032E000044600F124080168880604D5E06921F04D
:1032F0001001216000E00120A84201DD471B00E031
:103300000027A1697A1902EB0900081AA061207848
:10331000C00602D42046AFF30080002608E0D4E9BE
:1033200001211AF806009047206A401C761C206292
:103330004E45F4DB2078C0060AD52046AFF3008066
:1033400006E0D4E9012130209047206A401C206229
:10335000381EA7F10107F4DC07E0D4E9012118F8D1
:1033600005009047206A401C2062281EA5F1010537
:10337000F3DC2046AFF300802078000602D502205F
:10338000BDE8F0870120FBE701694A1C026108786B
:10339000704700B58FB0CDE9013100210591054995
:1033A0007944CDE9031011466846FFF775FE0FB06A
:1033B00000BD0000E5FFFFFF0A6802F8010B0A608C
:1033C000704710B5436913B1AFF3008001E0FFF718
:1033D00097FE012010BD127800F124010A7000222E
:1033E0004A700122EDE711684FF0FF32E9E77546B8
:1033F00000F02CF8AE4605006946534620F0070061
:10340000854618B020B5FCF7F1FEBDE820404FF02E
:1034100000064FF000074FF000084FF0000B21F0BE
:103420000701AC46ACE8C009ACE8C009ACE8C0098B
:10343000ACE8C0098D46704710B50446AFF3008074
:103440002046BDE81040FCF7B0BE000000487047C1
:103450004406002001491820ABBEFEE7260002000A
:103460007047000067452301EFCDAB89EFBEADDEAD
:10347000EDDAEBFEA53CF0A521436587A90BDCFE48
:10348000080402013031323334353637383941429D
:1034900043444546403058003031323334353637B6
:1034A0003839616263646566403078002E2E5C7343
:1034B000646B5F776F726B73706163655C7374616B
:1034C0006E64616C6F6E655F6273705F305C436FDA
:1034D000727465785F4D335F305C6C6962737263E0
:1034E0005C6770696F5F76345F335C7372635C78BE
:1034F0006770696F2E6300002E2E5C73646B5F77BC
:103500006F726B73706163655C7374616E64616C20
:103510006F6E655F6273705F305C436F7274657865
:103520005F4D335F305C6C69627372635C677069B6
:103530006F5F76345F335C7372635C786770696F5A
:103540005F696E74722E63002E2E5C73646B5F77FE
:103550006F726B73706163655C7374616E64616CD0
:103560006F6E655F6273705F305C436F7274657815
:103570005F4D335F305C6C69627372635C67706966
:103580006F5F76345F335C7372635C786770696F0A
:103590005F73696E69742E63000000002E2E5C73E9
:1035A000646B5F776F726B73706163655C7374617A
:1035B0006E64616C6F6E655F6273705F305C436FE9
:1035C000727465785F4D335F305C6C6962737263EF
:1035D0005C7370695F76345F345C7372635C7873BC
:1035E00070692E63000000002E2E5C73646B5F77A1
:1035F0006F726B73706163655C7374616E64616C30
:103600006F6E655F6273705F305C436F7274657874
:103610005F4D335F305C6C69627372635C737069B9
:103620005F76345F345C7372635C787370695F7368
:10363000696E69742E6300002E2E5C73646B5F7775
:103640006F726B73706163655C7374616E64616CDF
:103650006F6E655F6273705F305C436F7274657824
:103660005F4D335F305C6C69627372635C7561726D
:10367000746C6974655F76335F325C7372635C7817
:10368000756172746C6974652E6300002E2E5C7314
:10369000646B5F776F726B73706163655C73746189
:1036A0006E64616C6F6E655F6273705F305C436FF8
:1036B000727465785F4D335F305C6C6962737263FE
:1036C0005C756172746C6974655F76335F325C73CC
:1036D00072635C78756172746C6974655F696E742D
:1036E000722E63002E2E5C73646B5F776F726B7348
:1036F000706163655C7374616E64616C6F6E655F4D
:103700006273705F305C436F727465785F4D335FD6
:10371000305C6C69627372635C756172746C69743D
:10372000655F76335F325C7372635C787561727467
:103730006C6974655F73696E69742E6300000000C4
:103740002E2E5C73646B5F776F726B737061636551
:103750005C7374616E64616C6F6E655F6273705FE1
:10376000305C436F727465785F4D335F305C6C69B9
:10377000627372635C756172746C6974655F7633D1
:103780005F325C7372635C78756172746C697465C6
:103790005F73746174732E63000000002E2E5C73DF
:1037A000646B5F776F726B73706163655C73746178
:1037B0006E64616C6F6E655F6273705F305C436FE7
:1037C000727465785F4D335F305C6C6962737263ED
:1037D0005C746D726374725F76345F345C737263B1
:1037E0005C78746D726374722E6300002E2E5C73AD
:1037F000646B5F776F726B73706163655C73746128
:103800006E64616C6F6E655F6273705F305C436F96
:10381000727465785F4D335F305C6C69627372639C
:103820005C746D726374725F76345F345C73726360
:103830005C78746D726374725F696E74722E63006B
:103840002E2E5C73646B5F776F726B737061636550
:103850005C7374616E64616C6F6E655F6273705FE0
:10386000305C436F727465785F4D335F305C6C69B8
:10387000627372635C746D726374725F76345F340A
:103880005C7372635C78746D726374725F6F707472
:10389000696F6E732E6300002E2E5C73646B5F770E
:1038A0006F726B73706163655C7374616E64616C7D
:1038B0006F6E655F6273705F305C436F72746578C2
:1038C0005F4D335F305C6C69627372635C746D7200
:1038D0006374725F76345F345C7372635C78746DAA
:1038E000726374725F73656C66746573742E6300C3
:1038F000103900000000002034010000FC0000002E
:1039000078390000340100207415000058010000CF
:103910004540787D013905F10215142B11402C69C1
:1039200004217A1210520283014052037A0420616A
:103930003A1310392A4A083289800A13021C490AAC
:103940009A031CA1496411A938D9D01310402AC286
:103950000E693517C04180F0FA0222104280191713
:1039600039B122045A206C191B115A0932291C1929
:083970001B3914291C290C006D
:04000005000001D125
:00000001FF
